{
  "contracts/aggregator/OffchainAggregator.sol": {
    "OffchainAggregator": {
      "abi": [
        {
          "inputs": [
            {
              "internalType": "uint32",
              "name": "_maximumGasPrice",
              "type": "uint32"
            },
            {
              "internalType": "uint32",
              "name": "_reasonableGasPrice",
              "type": "uint32"
            },
            {
              "internalType": "uint32",
              "name": "_microLinkPerEth",
              "type": "uint32"
            },
            {
              "internalType": "uint32",
              "name": "_linkGweiPerObservation",
              "type": "uint32"
            },
            {
              "internalType": "uint32",
              "name": "_linkGweiPerTransmission",
              "type": "uint32"
            },
            {
              "internalType": "address",
              "name": "_link",
              "type": "address"
            },
            {
              "internalType": "address",
              "name": "_validator",
              "type": "address"
            },
            {
              "internalType": "int192",
              "name": "_minAnswer",
              "type": "int192"
            },
            {
              "internalType": "int192",
              "name": "_maxAnswer",
              "type": "int192"
            },
            {
              "internalType": "contract AccessControllerInterface",
              "name": "_billingAccessController",
              "type": "address"
            },
            {
              "internalType": "contract AccessControllerInterface",
              "name": "_requesterAccessController",
              "type": "address"
            },
            {
              "internalType": "uint8",
              "name": "_decimals",
              "type": "uint8"
            },
            {
              "internalType": "string",
              "name": "_description",
              "type": "string"
            }
          ],
          "stateMutability": "nonpayable",
          "type": "constructor"
        },
        {
          "anonymous": false,
          "inputs": [
            {
              "indexed": true,
              "internalType": "int256",
              "name": "current",
              "type": "int256"
            },
            {
              "indexed": true,
              "internalType": "uint256",
              "name": "roundId",
              "type": "uint256"
            },
            {
              "indexed": false,
              "internalType": "uint256",
              "name": "updatedAt",
              "type": "uint256"
            }
          ],
          "name": "AnswerUpdated",
          "type": "event"
        },
        {
          "anonymous": false,
          "inputs": [
            {
              "indexed": false,
              "internalType": "contract AccessControllerInterface",
              "name": "old",
              "type": "address"
            },
            {
              "indexed": false,
              "internalType": "contract AccessControllerInterface",
              "name": "current",
              "type": "address"
            }
          ],
          "name": "BillingAccessControllerSet",
          "type": "event"
        },
        {
          "anonymous": false,
          "inputs": [
            {
              "indexed": false,
              "internalType": "uint32",
              "name": "maximumGasPrice",
              "type": "uint32"
            },
            {
              "indexed": false,
              "internalType": "uint32",
              "name": "reasonableGasPrice",
              "type": "uint32"
            },
            {
              "indexed": false,
              "internalType": "uint32",
              "name": "microLinkPerEth",
              "type": "uint32"
            },
            {
              "indexed": false,
              "internalType": "uint32",
              "name": "linkGweiPerObservation",
              "type": "uint32"
            },
            {
              "indexed": false,
              "internalType": "uint32",
              "name": "linkGweiPerTransmission",
              "type": "uint32"
            }
          ],
          "name": "BillingSet",
          "type": "event"
        },
        {
          "anonymous": false,
          "inputs": [
            {
              "indexed": false,
              "internalType": "uint32",
              "name": "previousConfigBlockNumber",
              "type": "uint32"
            },
            {
              "indexed": false,
              "internalType": "uint64",
              "name": "configCount",
              "type": "uint64"
            },
            {
              "indexed": false,
              "internalType": "address[]",
              "name": "signers",
              "type": "address[]"
            },
            {
              "indexed": false,
              "internalType": "address[]",
              "name": "transmitters",
              "type": "address[]"
            },
            {
              "indexed": false,
              "internalType": "uint8",
              "name": "threshold",
              "type": "uint8"
            },
            {
              "indexed": false,
              "internalType": "uint64",
              "name": "encodedConfigVersion",
              "type": "uint64"
            },
            {
              "indexed": false,
              "internalType": "bytes",
              "name": "encoded",
              "type": "bytes"
            }
          ],
          "name": "ConfigSet",
          "type": "event"
        },
        {
          "anonymous": false,
          "inputs": [
            {
              "indexed": true,
              "internalType": "uint256",
              "name": "roundId",
              "type": "uint256"
            },
            {
              "indexed": true,
              "internalType": "address",
              "name": "startedBy",
              "type": "address"
            },
            {
              "indexed": false,
              "internalType": "uint256",
              "name": "startedAt",
              "type": "uint256"
            }
          ],
          "name": "NewRound",
          "type": "event"
        },
        {
          "anonymous": false,
          "inputs": [
            {
              "indexed": true,
              "internalType": "uint32",
              "name": "aggregatorRoundId",
              "type": "uint32"
            },
            {
              "indexed": false,
              "internalType": "int192",
              "name": "answer",
              "type": "int192"
            },
            {
              "indexed": false,
              "internalType": "address",
              "name": "transmitter",
              "type": "address"
            },
            {
              "indexed": false,
              "internalType": "int192[]",
              "name": "observations",
              "type": "int192[]"
            },
            {
              "indexed": false,
              "internalType": "bytes",
              "name": "observers",
              "type": "bytes"
            },
            {
              "indexed": false,
              "internalType": "bytes32",
              "name": "rawReportContext",
              "type": "bytes32"
            }
          ],
          "name": "NewTransmission",
          "type": "event"
        },
        {
          "anonymous": false,
          "inputs": [
            {
              "indexed": false,
              "internalType": "address",
              "name": "transmitter",
              "type": "address"
            },
            {
              "indexed": false,
              "internalType": "address",
              "name": "payee",
              "type": "address"
            },
            {
              "indexed": false,
              "internalType": "uint256",
              "name": "amount",
              "type": "uint256"
            }
          ],
          "name": "OraclePaid",
          "type": "event"
        },
        {
          "anonymous": false,
          "inputs": [
            {
              "indexed": true,
              "internalType": "address",
              "name": "from",
              "type": "address"
            },
            {
              "indexed": true,
              "internalType": "address",
              "name": "to",
              "type": "address"
            }
          ],
          "name": "OwnershipTransferRequested",
          "type": "event"
        },
        {
          "anonymous": false,
          "inputs": [
            {
              "indexed": true,
              "internalType": "address",
              "name": "from",
              "type": "address"
            },
            {
              "indexed": true,
              "internalType": "address",
              "name": "to",
              "type": "address"
            }
          ],
          "name": "OwnershipTransferred",
          "type": "event"
        },
        {
          "anonymous": false,
          "inputs": [
            {
              "indexed": true,
              "internalType": "address",
              "name": "transmitter",
              "type": "address"
            },
            {
              "indexed": true,
              "internalType": "address",
              "name": "current",
              "type": "address"
            },
            {
              "indexed": true,
              "internalType": "address",
              "name": "proposed",
              "type": "address"
            }
          ],
          "name": "PayeeshipTransferRequested",
          "type": "event"
        },
        {
          "anonymous": false,
          "inputs": [
            {
              "indexed": true,
              "internalType": "address",
              "name": "transmitter",
              "type": "address"
            },
            {
              "indexed": true,
              "internalType": "address",
              "name": "previous",
              "type": "address"
            },
            {
              "indexed": true,
              "internalType": "address",
              "name": "current",
              "type": "address"
            }
          ],
          "name": "PayeeshipTransferred",
          "type": "event"
        },
        {
          "anonymous": false,
          "inputs": [
            {
              "indexed": false,
              "internalType": "contract AccessControllerInterface",
              "name": "old",
              "type": "address"
            },
            {
              "indexed": false,
              "internalType": "contract AccessControllerInterface",
              "name": "current",
              "type": "address"
            }
          ],
          "name": "RequesterAccessControllerSet",
          "type": "event"
        },
        {
          "anonymous": false,
          "inputs": [
            {
              "indexed": true,
              "internalType": "address",
              "name": "requester",
              "type": "address"
            },
            {
              "indexed": false,
              "internalType": "bytes16",
              "name": "configDigest",
              "type": "bytes16"
            },
            {
              "indexed": false,
              "internalType": "uint32",
              "name": "epoch",
              "type": "uint32"
            },
            {
              "indexed": false,
              "internalType": "uint8",
              "name": "round",
              "type": "uint8"
            }
          ],
          "name": "RoundRequested",
          "type": "event"
        },
        {
          "anonymous": false,
          "inputs": [
            {
              "indexed": true,
              "internalType": "address",
              "name": "previous",
              "type": "address"
            },
            {
              "indexed": true,
              "internalType": "address",
              "name": "current",
              "type": "address"
            }
          ],
          "name": "ValidatorUpdated",
          "type": "event"
        },
        {
          "inputs": [],
          "name": "LINK",
          "outputs": [
            {
              "internalType": "contract LinkTokenInterface",
              "name": "",
              "type": "address"
            }
          ],
          "stateMutability": "view",
          "type": "function"
        },
        {
          "inputs": [],
          "name": "acceptOwnership",
          "outputs": [],
          "stateMutability": "nonpayable",
          "type": "function"
        },
        {
          "inputs": [
            {
              "internalType": "address",
              "name": "_transmitter",
              "type": "address"
            }
          ],
          "name": "acceptPayeeship",
          "outputs": [],
          "stateMutability": "nonpayable",
          "type": "function"
        },
        {
          "inputs": [],
          "name": "billingAccessController",
          "outputs": [
            {
              "internalType": "contract AccessControllerInterface",
              "name": "",
              "type": "address"
            }
          ],
          "stateMutability": "view",
          "type": "function"
        },
        {
          "inputs": [],
          "name": "decimals",
          "outputs": [
            {
              "internalType": "uint8",
              "name": "",
              "type": "uint8"
            }
          ],
          "stateMutability": "view",
          "type": "function"
        },
        {
          "inputs": [],
          "name": "description",
          "outputs": [
            {
              "internalType": "string",
              "name": "",
              "type": "string"
            }
          ],
          "stateMutability": "view",
          "type": "function"
        },
        {
          "inputs": [
            {
              "internalType": "uint256",
              "name": "_roundId",
              "type": "uint256"
            }
          ],
          "name": "getAnswer",
          "outputs": [
            {
              "internalType": "int256",
              "name": "",
              "type": "int256"
            }
          ],
          "stateMutability": "view",
          "type": "function"
        },
        {
          "inputs": [],
          "name": "getBilling",
          "outputs": [
            {
              "internalType": "uint32",
              "name": "maximumGasPrice",
              "type": "uint32"
            },
            {
              "internalType": "uint32",
              "name": "reasonableGasPrice",
              "type": "uint32"
            },
            {
              "internalType": "uint32",
              "name": "microLinkPerEth",
              "type": "uint32"
            },
            {
              "internalType": "uint32",
              "name": "linkGweiPerObservation",
              "type": "uint32"
            },
            {
              "internalType": "uint32",
              "name": "linkGweiPerTransmission",
              "type": "uint32"
            }
          ],
          "stateMutability": "view",
          "type": "function"
        },
        {
          "inputs": [
            {
              "internalType": "uint80",
              "name": "_roundId",
              "type": "uint80"
            }
          ],
          "name": "getRoundData",
          "outputs": [
            {
              "internalType": "uint80",
              "name": "roundId",
              "type": "uint80"
            },
            {
              "internalType": "int256",
              "name": "answer",
              "type": "int256"
            },
            {
              "internalType": "uint256",
              "name": "startedAt",
              "type": "uint256"
            },
            {
              "internalType": "uint256",
              "name": "updatedAt",
              "type": "uint256"
            },
            {
              "internalType": "uint80",
              "name": "answeredInRound",
              "type": "uint80"
            }
          ],
          "stateMutability": "view",
          "type": "function"
        },
        {
          "inputs": [
            {
              "internalType": "uint256",
              "name": "_roundId",
              "type": "uint256"
            }
          ],
          "name": "getTimestamp",
          "outputs": [
            {
              "internalType": "uint256",
              "name": "",
              "type": "uint256"
            }
          ],
          "stateMutability": "view",
          "type": "function"
        },
        {
          "inputs": [],
          "name": "latestAnswer",
          "outputs": [
            {
              "internalType": "int256",
              "name": "",
              "type": "int256"
            }
          ],
          "stateMutability": "view",
          "type": "function"
        },
        {
          "inputs": [],
          "name": "latestConfigDetails",
          "outputs": [
            {
              "internalType": "uint32",
              "name": "configCount",
              "type": "uint32"
            },
            {
              "internalType": "uint32",
              "name": "blockNumber",
              "type": "uint32"
            },
            {
              "internalType": "bytes16",
              "name": "configDigest",
              "type": "bytes16"
            }
          ],
          "stateMutability": "view",
          "type": "function"
        },
        {
          "inputs": [],
          "name": "latestRound",
          "outputs": [
            {
              "internalType": "uint256",
              "name": "",
              "type": "uint256"
            }
          ],
          "stateMutability": "view",
          "type": "function"
        },
        {
          "inputs": [],
          "name": "latestRoundData",
          "outputs": [
            {
              "internalType": "uint80",
              "name": "roundId",
              "type": "uint80"
            },
            {
              "internalType": "int256",
              "name": "answer",
              "type": "int256"
            },
            {
              "internalType": "uint256",
              "name": "startedAt",
              "type": "uint256"
            },
            {
              "internalType": "uint256",
              "name": "updatedAt",
              "type": "uint256"
            },
            {
              "internalType": "uint80",
              "name": "answeredInRound",
              "type": "uint80"
            }
          ],
          "stateMutability": "view",
          "type": "function"
        },
        {
          "inputs": [],
          "name": "latestTimestamp",
          "outputs": [
            {
              "internalType": "uint256",
              "name": "",
              "type": "uint256"
            }
          ],
          "stateMutability": "view",
          "type": "function"
        },
        {
          "inputs": [],
          "name": "latestTransmissionDetails",
          "outputs": [
            {
              "internalType": "bytes16",
              "name": "configDigest",
              "type": "bytes16"
            },
            {
              "internalType": "uint32",
              "name": "epoch",
              "type": "uint32"
            },
            {
              "internalType": "uint8",
              "name": "round",
              "type": "uint8"
            },
            {
              "internalType": "int192",
              "name": "latestAnswer",
              "type": "int192"
            },
            {
              "internalType": "uint64",
              "name": "latestTimestamp",
              "type": "uint64"
            }
          ],
          "stateMutability": "view",
          "type": "function"
        },
        {
          "inputs": [],
          "name": "linkAvailableForPayment",
          "outputs": [
            {
              "internalType": "int256",
              "name": "availableBalance",
              "type": "int256"
            }
          ],
          "stateMutability": "view",
          "type": "function"
        },
        {
          "inputs": [],
          "name": "maxAnswer",
          "outputs": [
            {
              "internalType": "int192",
              "name": "",
              "type": "int192"
            }
          ],
          "stateMutability": "view",
          "type": "function"
        },
        {
          "inputs": [],
          "name": "minAnswer",
          "outputs": [
            {
              "internalType": "int192",
              "name": "",
              "type": "int192"
            }
          ],
          "stateMutability": "view",
          "type": "function"
        },
        {
          "inputs": [
            {
              "internalType": "address",
              "name": "_signerOrTransmitter",
              "type": "address"
            }
          ],
          "name": "oracleObservationCount",
          "outputs": [
            {
              "internalType": "uint16",
              "name": "",
              "type": "uint16"
            }
          ],
          "stateMutability": "view",
          "type": "function"
        },
        {
          "inputs": [
            {
              "internalType": "address",
              "name": "_transmitter",
              "type": "address"
            }
          ],
          "name": "owedPayment",
          "outputs": [
            {
              "internalType": "uint256",
              "name": "",
              "type": "uint256"
            }
          ],
          "stateMutability": "view",
          "type": "function"
        },
        {
          "inputs": [],
          "name": "owner",
          "outputs": [
            {
              "internalType": "address payable",
              "name": "",
              "type": "address"
            }
          ],
          "stateMutability": "view",
          "type": "function"
        },
        {
          "inputs": [],
          "name": "requestNewRound",
          "outputs": [
            {
              "internalType": "uint80",
              "name": "",
              "type": "uint80"
            }
          ],
          "stateMutability": "nonpayable",
          "type": "function"
        },
        {
          "inputs": [],
          "name": "requesterAccessController",
          "outputs": [
            {
              "internalType": "contract AccessControllerInterface",
              "name": "",
              "type": "address"
            }
          ],
          "stateMutability": "view",
          "type": "function"
        },
        {
          "inputs": [
            {
              "internalType": "uint32",
              "name": "_maximumGasPrice",
              "type": "uint32"
            },
            {
              "internalType": "uint32",
              "name": "_reasonableGasPrice",
              "type": "uint32"
            },
            {
              "internalType": "uint32",
              "name": "_microLinkPerEth",
              "type": "uint32"
            },
            {
              "internalType": "uint32",
              "name": "_linkGweiPerObservation",
              "type": "uint32"
            },
            {
              "internalType": "uint32",
              "name": "_linkGweiPerTransmission",
              "type": "uint32"
            }
          ],
          "name": "setBilling",
          "outputs": [],
          "stateMutability": "nonpayable",
          "type": "function"
        },
        {
          "inputs": [
            {
              "internalType": "contract AccessControllerInterface",
              "name": "_billingAccessController",
              "type": "address"
            }
          ],
          "name": "setBillingAccessController",
          "outputs": [],
          "stateMutability": "nonpayable",
          "type": "function"
        },
        {
          "inputs": [
            {
              "internalType": "address[]",
              "name": "_signers",
              "type": "address[]"
            },
            {
              "internalType": "address[]",
              "name": "_transmitters",
              "type": "address[]"
            },
            {
              "internalType": "uint8",
              "name": "_threshold",
              "type": "uint8"
            },
            {
              "internalType": "uint64",
              "name": "_encodedConfigVersion",
              "type": "uint64"
            },
            {
              "internalType": "bytes",
              "name": "_encoded",
              "type": "bytes"
            }
          ],
          "name": "setConfig",
          "outputs": [],
          "stateMutability": "nonpayable",
          "type": "function"
        },
        {
          "inputs": [
            {
              "internalType": "address[]",
              "name": "_transmitters",
              "type": "address[]"
            },
            {
              "internalType": "address[]",
              "name": "_payees",
              "type": "address[]"
            }
          ],
          "name": "setPayees",
          "outputs": [],
          "stateMutability": "nonpayable",
          "type": "function"
        },
        {
          "inputs": [
            {
              "internalType": "contract AccessControllerInterface",
              "name": "_requesterAccessController",
              "type": "address"
            }
          ],
          "name": "setRequesterAccessController",
          "outputs": [],
          "stateMutability": "nonpayable",
          "type": "function"
        },
        {
          "inputs": [
            {
              "internalType": "address",
              "name": "_newValidator",
              "type": "address"
            }
          ],
          "name": "setValidator",
          "outputs": [],
          "stateMutability": "nonpayable",
          "type": "function"
        },
        {
          "inputs": [
            {
              "internalType": "address",
              "name": "_to",
              "type": "address"
            }
          ],
          "name": "transferOwnership",
          "outputs": [],
          "stateMutability": "nonpayable",
          "type": "function"
        },
        {
          "inputs": [
            {
              "internalType": "address",
              "name": "_transmitter",
              "type": "address"
            },
            {
              "internalType": "address",
              "name": "_proposed",
              "type": "address"
            }
          ],
          "name": "transferPayeeship",
          "outputs": [],
          "stateMutability": "nonpayable",
          "type": "function"
        },
        {
          "inputs": [
            {
              "internalType": "bytes",
              "name": "_report",
              "type": "bytes"
            },
            {
              "internalType": "bytes32[]",
              "name": "_rs",
              "type": "bytes32[]"
            },
            {
              "internalType": "bytes32[]",
              "name": "_ss",
              "type": "bytes32[]"
            },
            {
              "internalType": "bytes32",
              "name": "_rawVs",
              "type": "bytes32"
            }
          ],
          "name": "transmit",
          "outputs": [],
          "stateMutability": "nonpayable",
          "type": "function"
        },
        {
          "inputs": [],
          "name": "transmitters",
          "outputs": [
            {
              "internalType": "address[]",
              "name": "",
              "type": "address[]"
            }
          ],
          "stateMutability": "view",
          "type": "function"
        },
        {
          "inputs": [],
          "name": "validator",
          "outputs": [
            {
              "internalType": "contract AggregatorValidatorInterface",
              "name": "",
              "type": "address"
            }
          ],
          "stateMutability": "view",
          "type": "function"
        },
        {
          "inputs": [],
          "name": "version",
          "outputs": [
            {
              "internalType": "uint256",
              "name": "",
              "type": "uint256"
            }
          ],
          "stateMutability": "view",
          "type": "function"
        },
        {
          "inputs": [
            {
              "internalType": "address",
              "name": "_recipient",
              "type": "address"
            },
            {
              "internalType": "uint256",
              "name": "_amount",
              "type": "uint256"
            }
          ],
          "name": "withdrawFunds",
          "outputs": [],
          "stateMutability": "nonpayable",
          "type": "function"
        },
        {
          "inputs": [
            {
              "internalType": "address",
              "name": "_transmitter",
              "type": "address"
            }
          ],
          "name": "withdrawPayment",
          "outputs": [],
          "stateMutability": "nonpayable",
          "type": "function"
        }
      ],
      "evm": {
        "bytecode": {
          "linkReferences": {},
          "object": "6101006040523480156200001257600080fd5b5060405162004f3e38038062004f3e83398181016040526101a08110156200003957600080fd5b815160208301516040808501516060860151608087015160a088015160c089015160e08a01516101008b01516101208c01516101408d01516101608e01516101808f0180519b519d9f9c9e9a9d999c989b979a96999598949793969295919491939282019284640100000000821115620000b257600080fd5b908301906020820185811115620000c857600080fd5b8251640100000000811182820188101715620000e357600080fd5b82525081516020918201929091019080838360005b8381101562000112578181015183820152602001620000f8565b50505050905090810190601f168015620001405780820380516001836020036101000a031916815260200191505b506040525050600080546001600160a01b03191633179055508c8c8c8c8c8c896200016f87878787876200029c565b6200017a816200038e565b6001600160601b0319606083901b1660805262000196620005c4565b620001a0620005c4565b60005b601f8160ff161015620001f0576001838260ff16601f8110620001c257fe5b61ffff909216602092909202015260018260ff8316601f8110620001e257fe5b6020020152600101620001a3565b5062000200600483601f620005e3565b5062000210600882601f62000680565b505050505060f887901b7fff000000000000000000000000000000000000000000000000000000000000001660e05250508351620002599350602e9250602085019150620006b1565b50620002658362000407565b6200027087620004df565b50505050601791820b820b604090811b60a05290820b90910b901b60c052506200074a95505050505050565b6040805160a0808201835263ffffffff88811680845288821660208086018290528984168688018190528985166060808901829052958a1660809889018190526002805463ffffffff1916871763ffffffff60201b191664010000000087021763ffffffff60401b19166801000000000000000085021763ffffffff60601b19166c0100000000000000000000000084021763ffffffff60801b1916600160801b830217905589519586529285019390935283880152928201529283015291517fd0d9486a2c673e2a4b57fc82e4c8a556b3e2b82dd5db07e2c04a920ca0f469b6929181900390910190a15050505050565b6003546001600160a01b0390811690821681146200040357600380546001600160a01b0319166001600160a01b03848116918217909255604080519284168352602083019190915280517f793cb73064f3c8cde7e187ae515511e6e56d1ee89bf08b82fa60fb70f8d489129281900390910190a15b5050565b6000546001600160a01b0316331462000467576040805162461bcd60e51b815260206004820152601660248201527f4f6e6c792063616c6c61626c65206279206f776e657200000000000000000000604482015290519081900360640190fd5b602d546001600160a01b0390811690821681146200040357602d80546001600160a01b0319166001600160a01b03848116918217909255604080519284168352602083019190915280517f27b89aede8b560578baaa25ee5ce3852c5eecad1e114b941bbd89e1eb4bae6349281900390910190a15050565b6000546001600160a01b031633146200053f576040805162461bcd60e51b815260206004820152601660248201527f4f6e6c792063616c6c61626c65206279206f776e657200000000000000000000604482015290519081900360640190fd5b602c546001600160a01b0368010000000000000000909104811690821681146200040357602c8054600160401b600160e01b031916680100000000000000006001600160a01b0385811691820292909217909255604051908316907fcfac5dc75b8d9a7e074162f59d9adcd33da59f0fe8dfb21580db298fc0fdad0d90600090a35050565b604051806103e00160405280601f906020820280368337509192915050565b6002830191839082156200066e5791602002820160005b838211156200063c57835183826101000a81548161ffff021916908361ffff1602179055509260200192600201602081600101049283019260010302620005fa565b80156200066c5782816101000a81549061ffff02191690556002016020816001010492830192600103026200063c565b505b506200067c92915062000733565b5090565b82601f81019282156200066e579160200282015b828111156200066e57825182559160200191906001019062000694565b828054600181600116156101000203166002900490600052602060002090601f016020900481019282620006e957600085556200066e565b82601f106200070457805160ff19168380011785556200066e565b828001600101855582156200066e57918201828111156200066e57825182559160200191906001019062000694565b5b808211156200067c576000815560010162000734565b60805160601c60a05160401c60c05160401c60e05160f81c61478f620007af60003980610da05250806115e95280612ea5525080610d1a5280612e78525080610cf652806122575280612347528061326e52806137ed5280613c3f525061478f6000f3fe608060405234801561001057600080fd5b50600436106102925760003560e01c80638da5cb5b11610160578063bd824706116100d8578063e5fe45771161008c578063f2fde38b11610071578063f2fde38b14610a88578063fbffd2c114610aae578063feaf968c14610ad457610292565b8063e5fe4577146109ff578063eb5dcd6c14610a5a57610292565b8063c9807539116100bd578063c9807539146108a6578063d09dc339146109ba578063e4902f82146109c257610292565b8063bd82470614610835578063c10753291461087a57610292565b80639c849b301161012f578063b121e14711610114578063b121e147146107d5578063b5ab58dc146107fb578063b633620c1461081857610292565b80639c849b30146106ed5780639e3ceeab146107af57610292565b80638da5cb5b1461064357806398e5b12a1461064b578063996e8298146106725780639a6fc8f51461067a57610292565b8063585aa7de1161020e57806379ba5097116101c257806381ff7048116101a757806381ff7048146105d35780638205bf6a146106155780638ac28d5a1461061d57610292565b806379ba509714610573578063814118341461057b57610292565b806370da2f67116101f357806370da2f67146104e657806370efdf2d146104ee5780637284e416146104f657610292565b8063585aa7de146103b1578063668a0f02146104de57610292565b806329937268116102655780633a5381b51161024a5780633a5381b51461039957806350d25bcd146103a157806354fd4d50146103a957610292565b8063299372681461033a578063313ce5671461037b57610292565b80630eafb25b146102975780631327d3d8146102cf5780631b6b6d23146102f757806322adbc781461031b575b600080fd5b6102bd600480360360208110156102ad57600080fd5b50356001600160a01b0316610adc565b60408051918252519081900360200190f35b6102f5600480360360208110156102e557600080fd5b50356001600160a01b0316610c0c565b005b6102ff610cf4565b604080516001600160a01b039092168252519081900360200190f35b610323610d18565b6040805160179290920b8252519081900360200190f35b610342610d3c565b6040805163ffffffff96871681529486166020860152928516848401529084166060840152909216608082015290519081900360a00190f35b610383610d9e565b6040805160ff9092168252519081900360200190f35b6102ff610dc2565b6102bd610dd8565b6102bd610e01565b6102f5600480360360a08110156103c757600080fd5b8101906020810181356401000000008111156103e257600080fd5b8201836020820111156103f457600080fd5b8035906020019184602083028401116401000000008311171561041657600080fd5b91939092909160208101903564010000000081111561043457600080fd5b82018360208201111561044657600080fd5b8035906020019184602083028401116401000000008311171561046857600080fd5b9193909260ff8335169267ffffffffffffffff60208201351692919060608101906040013564010000000081111561049f57600080fd5b8201836020820111156104b157600080fd5b803590602001918460018302840111640100000000831117156104d357600080fd5b509092509050610e06565b6102bd6115d4565b6103236115e7565b6102ff61160b565b6104fe61161a565b6040805160208082528351818301528351919283929083019185019080838360005b83811015610538578181015183820152602001610520565b50505050905090810190601f1680156105655780820380516001836020036101000a031916815260200191505b509250505060405180910390f35b6102f56116b0565b610583611766565b60408051602080825283518183015283519192839290830191858101910280838360005b838110156105bf5781810151838201526020016105a7565b505050509050019250505060405180910390f35b6105db6117c7565b6040805163ffffffff94851681529290931660208301526fffffffffffffffffffffffffffffffff19168183015290519081900360600190f35b6102bd6117e8565b6102f56004803603602081101561063357600080fd5b50356001600160a01b031661181b565b6102ff611895565b6106536118a4565b6040805169ffffffffffffffffffff9092168252519081900360200190f35b6102ff611a80565b6106a36004803603602081101561069057600080fd5b503569ffffffffffffffffffff16611a8f565b604051808669ffffffffffffffffffff1681526020018581526020018481526020018381526020018269ffffffffffffffffffff1681526020019550505050505060405180910390f35b6102f56004803603604081101561070357600080fd5b81019060208101813564010000000081111561071e57600080fd5b82018360208201111561073057600080fd5b8035906020019184602083028401116401000000008311171561075257600080fd5b91939092909160208101903564010000000081111561077057600080fd5b82018360208201111561078257600080fd5b803590602001918460208302840111640100000000831117156107a457600080fd5b509092509050611bc5565b6102f5600480360360208110156107c557600080fd5b50356001600160a01b0316611ddf565b6102f5600480360360208110156107eb57600080fd5b50356001600160a01b0316611eae565b6102bd6004803603602081101561081157600080fd5b5035611f8f565b6102bd6004803603602081101561082e57600080fd5b5035611fc5565b6102f5600480360360a081101561084b57600080fd5b5063ffffffff813581169160208101358216916040820135811691606081013582169160809091013516612005565b6102f56004803603604081101561089057600080fd5b506001600160a01b038135169060200135612134565b6102f5600480360360808110156108bc57600080fd5b8101906020810181356401000000008111156108d757600080fd5b8201836020820111156108e957600080fd5b8035906020019184600183028401116401000000008311171561090b57600080fd5b91939092909160208101903564010000000081111561092957600080fd5b82018360208201111561093b57600080fd5b8035906020019184602083028401116401000000008311171561095d57600080fd5b91939092909160208101903564010000000081111561097b57600080fd5b82018360208201111561098d57600080fd5b803590602001918460208302840111640100000000831117156109af57600080fd5b91935091503561243f565b6102bd613269565b6109e8600480360360208110156109d857600080fd5b50356001600160a01b031661331a565b6040805161ffff9092168252519081900360200190f35b610a076133c7565b604080516fffffffffffffffffffffffffffffffff19909616865263ffffffff909416602086015260ff9092168484015260170b606084015267ffffffffffffffff166080830152519081900360a00190f35b6102f560048036036040811015610a7057600080fd5b506001600160a01b0381358116916020013516613481565b6102f560048036036020811015610a9e57600080fd5b50356001600160a01b03166135c5565b6102f560048036036020811015610ac457600080fd5b50356001600160a01b031661366e565b6106a36136cf565b6001600160a01b03811660009081526027602090815260408083208151808301909252805460ff808216845285948401916101009004166002811115610b1e57fe5b6002811115610b2957fe5b9052509050600081602001516002811115610b4057fe5b1415610b50576000915050610c07565b6040805160a08101825260025463ffffffff8082168352640100000000820481166020840152600160401b8204811693830193909352600160601b8104831660608301819052600160801b90910490921660808201528251909160009160019060049060ff16601f8110610bc057fe5b601091828204019190066002029054906101000a900461ffff160361ffff1602633b9aca0002905060016008846000015160ff16601f8110610bfe57fe5b01540301925050505b919050565b6000546001600160a01b03163314610c64576040805162461bcd60e51b815260206004820152601660248201527527b7363c9031b0b63630b1363290313c9037bbb732b960511b604482015290519081900360640190fd5b602c546001600160a01b03600160401b90910481169082168114610cf057602c80547fffffffff0000000000000000000000000000000000000000ffffffffffffffff16600160401b6001600160a01b0385811691820292909217909255604051908316907fcfac5dc75b8d9a7e074162f59d9adcd33da59f0fe8dfb21580db298fc0fdad0d90600090a35b5050565b7f000000000000000000000000000000000000000000000000000000000000000081565b7f000000000000000000000000000000000000000000000000000000000000000081565b6040805160a08101825260025463ffffffff8082168084526401000000008304821660208501819052600160401b84048316958501869052600160601b8404831660608601819052600160801b90940490921660809094018490529490939290565b7f000000000000000000000000000000000000000000000000000000000000000081565b602c54600160401b90046001600160a01b031690565b602a54600160b01b900463ffffffff166000908152602b6020526040902054601790810b900b90565b600481565b868560ff8616601f831115610e62576040805162461bcd60e51b815260206004820152601060248201527f746f6f206d616e79207369676e65727300000000000000000000000000000000604482015290519081900360640190fd5b60008111610eb7576040805162461bcd60e51b815260206004820152601a60248201527f7468726573686f6c64206d75737420626520706f736974697665000000000000604482015290519081900360640190fd5b818314610ef55760405162461bcd60e51b81526004018080602001828103825260248152602001806147366024913960400191505060405180910390fd5b806003028311610f4c576040805162461bcd60e51b815260206004820181905260248201527f6661756c74792d6f7261636c65207468726573686f6c6420746f6f2068696768604482015290519081900360640190fd5b6000546001600160a01b03163314610fa4576040805162461bcd60e51b815260206004820152601660248201527527b7363c9031b0b63630b1363290313c9037bbb732b960511b604482015290519081900360640190fd5b602854156110a1576028805460001981019160009183908110610fc357fe5b6000918252602082200154602980546001600160a01b0390921693509084908110610fea57fe5b6000918252602090912001546001600160a01b0316905061100a8161372b565b6001600160a01b03808316600090815260276020526040808220805461ffff199081169091559284168252902080549091169055602880548061104957fe5b600082815260209020810160001990810180546001600160a01b0319169055019055602980548061107657fe5b600082815260209020810160001990810180546001600160a01b031916905501905550610fa4915050565b60005b8a811015611409576000602760008e8e858181106110be57fe5b602090810292909201356001600160a01b031683525081019190915260400160002054610100900460ff1660028111156110f457fe5b14611146576040805162461bcd60e51b815260206004820152601760248201527f7265706561746564207369676e65722061646472657373000000000000000000604482015290519081900360640190fd5b6040805180820190915260ff8216815260016020820152602760008e8e8581811061116d57fe5b602090810292909201356001600160a01b0316835250818101929092526040016000208251815460ff191660ff90911617808255918301519091829061ff0019166101008360028111156111bd57fe5b02179055506000915060069050818c8c858181106111d757fe5b6001600160a01b0360209182029390930135831684528301939093526040909101600020541691909114159050611255576040805162461bcd60e51b815260206004820152601160248201527f7061796565206d75737420626520736574000000000000000000000000000000604482015290519081900360640190fd5b6000602760008c8c8581811061126757fe5b602090810292909201356001600160a01b031683525081019190915260400160002054610100900460ff16600281111561129d57fe5b146112ef576040805162461bcd60e51b815260206004820152601c60248201527f7265706561746564207472616e736d6974746572206164647265737300000000604482015290519081900360640190fd5b6040805180820190915260ff8216815260026020820152602760008c8c8581811061131657fe5b602090810292909201356001600160a01b0316835250818101929092526040016000208251815460ff191660ff90911617808255918301519091829061ff00191661010083600281111561136657fe5b021790555090505060288c8c8381811061137c57fe5b835460018101855560009485526020948590200180546001600160a01b0319166001600160a01b03959092029390930135939093169290921790555060298a8a838181106113c657fe5b835460018181018655600095865260209586902090910180546001600160a01b0319166001600160a01b03969093029490940135949094161790915550016110a4565b50602a805460ff8916600160a81b0260ff60a81b19909116179055602c80544363ffffffff90811664010000000090810267ffffffff0000000019841617808316600101831663ffffffff1990911617938490559091048116911661147630828f8f8f8f8f8f8f8f61394a565b602a60000160006101000a8154816fffffffffffffffffffffffffffffffff021916908360801c02179055506000602a60000160106101000a81548164ffffffffff021916908364ffffffffff1602179055507f25d719d88a4512dd76c7442b910a83360845505894eb444ef299409e180f8fb982828f8f8f8f8f8f8f8f604051808b63ffffffff1681526020018a67ffffffffffffffff16815260200180602001806020018760ff1681526020018667ffffffffffffffff1681526020018060200184810384528c8c82818152602001925060200280828437600083820152601f01601f191690910185810384528a8152602090810191508b908b0280828437600083820152601f01601f191690910185810383528681526020019050868680828437600083820152604051601f909101601f19169092018290039f50909d5050505050505050505050505050a150505050505050505050505050565b602a54600160b01b900463ffffffff1690565b7f000000000000000000000000000000000000000000000000000000000000000081565b602d546001600160a01b031690565b602e8054604080516020601f60026000196101006001881615020190951694909404938401819004810282018101909252828152606093909290918301828280156116a65780601f1061167b576101008083540402835291602001916116a6565b820191906000526020600020905b81548152906001019060200180831161168957829003601f168201915b5050505050905090565b6001546001600160a01b0316331461170f576040805162461bcd60e51b815260206004820152601660248201527f4d7573742062652070726f706f736564206f776e657200000000000000000000604482015290519081900360640190fd5b60008054336001600160a01b0319808316821784556001805490911690556040516001600160a01b0390921692909183917f8be0079c531659141344cd1fd0a4f28419497f9722a3daafe3b4186f6b6457e091a350565b606060298054806020026020016040519081016040528092919081815260200182805480156116a657602002820191906000526020600020905b81546001600160a01b031681526001909101906020018083116117a0575050505050905090565b602c54602a5463ffffffff808316926401000000009004169060801b909192565b602a54600160b01b900463ffffffff166000908152602b6020526040902054600160c01b900467ffffffffffffffff1690565b6001600160a01b03818116600090815260066020526040902054163314611889576040805162461bcd60e51b815260206004820152601760248201527f4f6e6c792070617965652063616e207769746864726177000000000000000000604482015290519081900360640190fd5b6118928161372b565b50565b6000546001600160a01b031681565b600080546001600160a01b03163314806119675750602d5460408051630d629b5f60e31b815233600482018181526024830193845236604484018190526001600160a01b0390951694636b14daf894929360009391929190606401848480828437600083820152604051601f909101601f1916909201965060209550909350505081840390508186803b15801561193a57600080fd5b505afa15801561194e573d6000803e3d6000fd5b505050506040513d602081101561196457600080fd5b50515b6119b8576040805162461bcd60e51b815260206004820152601d60248201527f4f6e6c79206f776e6572267265717565737465722063616e2063616c6c000000604482015290519081900360640190fd5b6040805160808082018352602a549081901b6fffffffffffffffffffffffffffffffff1916808352600160801b820464ffffffffff8116602080860191909152600160a81b840460ff90811686880152600160b01b90940463ffffffff9081166060808801919091528751948552600884901c909116918401919091529216818501529251919233927f3ea16a923ff4b1df6526e854c9e3a995c43385d70e73359e10623c74f0b52037929181900390910190a2806060015160010163ffffffff1691505090565b6003546001600160a01b031690565b600080600080600063ffffffff8669ffffffffffffffffffff1611156040518060400160405280600f81526020017f4e6f20646174612070726573656e74000000000000000000000000000000000081525090611b6a5760405162461bcd60e51b81526004018080602001828103825283818151815260200191508051906020019080838360005b83811015611b2f578181015183820152602001611b17565b50505050905090810190601f168015611b5c5780820380516001836020036101000a031916815260200191505b509250505060405180910390fd5b5050505063ffffffff83166000908152602b6020908152604091829020825180840190935254601781810b810b810b808552600160c01b90920467ffffffffffffffff1693909201839052949594900b939092508291508490565b6000546001600160a01b03163314611c1d576040805162461bcd60e51b815260206004820152601660248201527527b7363c9031b0b63630b1363290313c9037bbb732b960511b604482015290519081900360640190fd5b828114611c71576040805162461bcd60e51b815260206004820181905260248201527f7472616e736d6974746572732e73697a6520213d207061796565732e73697a65604482015290519081900360640190fd5b60005b83811015611dd8576000858583818110611c8a57fe5b905060200201356001600160a01b031690506000848484818110611caa57fe5b6001600160a01b038581166000908152600660209081526040909120549202939093013583169350909116905080158080611cf65750826001600160a01b0316826001600160a01b0316145b611d47576040805162461bcd60e51b815260206004820152601160248201527f706179656520616c726561647920736574000000000000000000000000000000604482015290519081900360640190fd5b6001600160a01b03848116600090815260066020526040902080546001600160a01b03191685831690811790915590831614611dc857826001600160a01b0316826001600160a01b0316856001600160a01b03167f78af32efdcad432315431e9b03d27e6cd98fb79c405fdc5af7c1714d9c0f75b360405160405180910390a45b505060019092019150611c749050565b5050505050565b6000546001600160a01b03163314611e37576040805162461bcd60e51b815260206004820152601660248201527527b7363c9031b0b63630b1363290313c9037bbb732b960511b604482015290519081900360640190fd5b602d546001600160a01b039081169082168114610cf057602d80546001600160a01b0319166001600160a01b03848116918217909255604080519284168352602083019190915280517f27b89aede8b560578baaa25ee5ce3852c5eecad1e114b941bbd89e1eb4bae6349281900390910190a15050565b6001600160a01b03818116600090815260076020526040902054163314611f1c576040805162461bcd60e51b815260206004820152601f60248201527f6f6e6c792070726f706f736564207061796565732063616e2061636365707400604482015290519081900360640190fd5b6001600160a01b0381811660008181526006602090815260408083208054336001600160a01b031980831682179093556007909452828520805490921690915590519416939092849290917f78af32efdcad432315431e9b03d27e6cd98fb79c405fdc5af7c1714d9c0f75b39190a45050565b600063ffffffff821115611fa557506000610c07565b5063ffffffff166000908152602b6020526040902054601790810b900b90565b600063ffffffff821115611fdb57506000610c07565b5063ffffffff166000908152602b6020526040902054600160c01b900467ffffffffffffffff1690565b6003546000546001600160a01b0391821691163314806120c6575060408051630d629b5f60e31b815233600482018181526024830193845236604484018190526001600160a01b03861694636b14daf8946000939190606401848480828437600083820152604051601f909101601f1916909201965060209550909350505081840390508186803b15801561209957600080fd5b505afa1580156120ad573d6000803e3d6000fd5b505050506040513d60208110156120c357600080fd5b50515b612117576040805162461bcd60e51b815260206004820181905260248201527f4f6e6c79206f776e65722662696c6c696e6741646d696e2063616e2063616c6c604482015290519081900360640190fd5b61211f613a4e565b61212c8686868686613ded565b505050505050565b6000546001600160a01b03163314806121f6575060035460408051630d629b5f60e31b815233600482018181526024830193845236604484018190526001600160a01b0390951694636b14daf894929360009391929190606401848480828437600083820152604051601f909101601f1916909201965060209550909350505081840390508186803b1580156121c957600080fd5b505afa1580156121dd573d6000803e3d6000fd5b505050506040513d60208110156121f357600080fd5b50515b612247576040805162461bcd60e51b815260206004820181905260248201527f4f6e6c79206f776e65722662696c6c696e6741646d696e2063616e2063616c6c604482015290519081900360640190fd5b6000612251613f07565b905060007f00000000000000000000000000000000000000000000000000000000000000006001600160a01b03166370a08231306040518263ffffffff1660e01b815260040180826001600160a01b0316815260200191505060206040518083038186803b1580156122c257600080fd5b505afa1580156122d6573d6000803e3d6000fd5b505050506040513d60208110156122ec57600080fd5b5051905081811015612345576040805162461bcd60e51b815260206004820152601460248201527f696e73756666696369656e742062616c616e6365000000000000000000000000604482015290519081900360640190fd5b7f00000000000000000000000000000000000000000000000000000000000000006001600160a01b031663a9059cbb85612381858503876140bc565b6040518363ffffffff1660e01b815260040180836001600160a01b0316815260200182815260200192505050602060405180830381600087803b1580156123c757600080fd5b505af11580156123db573d6000803e3d6000fd5b505050506040513d60208110156123f157600080fd5b5051612439576040805162461bcd60e51b8152602060048201526012602482015271696e73756666696369656e742066756e647360701b604482015290519081900360640190fd5b50505050565b60005a90506124528888888888886140d6565b36146124a5576040805162461bcd60e51b815260206004820152601960248201527f7472616e736d6974206d65737361676520746f6f206c6f6e6700000000000000604482015290519081900360640190fd5b6124ad6145cb565b6040805160808082018352602a549081901b6fffffffffffffffffffffffffffffffff19168252600160801b810464ffffffffff166020830152600160a81b810460ff1692820192909252600160b01b90910463ffffffff166060808301919091529082526000908a908a9081101561252557600080fd5b81359160208101359181019060608101604082013564010000000081111561254c57600080fd5b82018360208201111561255e57600080fd5b8035906020019184602083028401116401000000008311171561258057600080fd5b91908080602002602001604051908101604052809392919081815260200183836020028082843760009201919091525050505060408801525050506080840182905283515190925060589190911b906fffffffffffffffffffffffffffffffff19808316911614612638576040805162461bcd60e51b815260206004820152601560248201527f636f6e666967446967657374206d69736d617463680000000000000000000000604482015290519081900360640190fd5b608083015183516020015164ffffffffff8083169116106126a0576040805162461bcd60e51b815260206004820152600c60248201527f7374616c65207265706f72740000000000000000000000000000000000000000604482015290519081900360640190fd5b83516040015160ff1689116126fc576040805162461bcd60e51b815260206004820152601560248201527f6e6f7420656e6f756768207369676e6174757265730000000000000000000000604482015290519081900360640190fd5b601f891115612752576040805162461bcd60e51b815260206004820152601360248201527f746f6f206d616e79207369676e61747572657300000000000000000000000000604482015290519081900360640190fd5b8689146127a6576040805162461bcd60e51b815260206004820152601e60248201527f7369676e617475726573206f7574206f6620726567697374726174696f6e0000604482015290519081900360640190fd5b601f8460400151511115612801576040805162461bcd60e51b815260206004820152601e60248201527f6e756d206f62736572766174696f6e73206f7574206f6620626f756e64730000604482015290519081900360640190fd5b83600001516040015160020260ff1684604001515111612868576040805162461bcd60e51b815260206004820152601e60248201527f746f6f206665772076616c75657320746f207472757374206d656469616e0000604482015290519081900360640190fd5b8867ffffffffffffffff8111801561287f57600080fd5b506040519080825280601f01601f1916602001820160405280156128aa576020820181803683370190505b50606085015260005b60ff81168a111561291b57868160ff16602081106128cd57fe5b1a60f81b85606001518260ff16815181106128e457fe5b60200101907effffffffffffffffffffffffffffffffffffffffffffffffffffffffffffff1916908160001a9053506001016128b3565b5083604001515167ffffffffffffffff8111801561293857600080fd5b506040519080825280601f01601f191660200182016040528015612963576020820181803683370190505b5060208501526129716145ff565b60005b8560400151518160ff161015612a77576000858260ff166020811061299557fe5b1a90508281601f81106129a457fe5b6020020151156129fb576040805162461bcd60e51b815260206004820152601760248201527f6f6273657276657220696e646578207265706561746564000000000000000000604482015290519081900360640190fd5b6001838260ff16601f8110612a0c57fe5b91151560209283029190910152869060ff8416908110612a2857fe5b1a60f81b87602001518360ff1681518110612a3f57fe5b60200101907effffffffffffffffffffffffffffffffffffffffffffffffffffffffffffff1916908160001a90535050600101612974565b503360009081526027602090815260408083208151808301909252805460ff80821684529293919291840191610100909104166002811115612ab557fe5b6002811115612ac057fe5b9052509050600281602001516002811115612ad757fe5b148015612b0b57506029816000015160ff1681548110612af357fe5b6000918252602090912001546001600160a01b031633145b612b5c576040805162461bcd60e51b815260206004820152601860248201527f756e617574686f72697a6564207472616e736d69747465720000000000000000604482015290519081900360640190fd5b5050835164ffffffffff90911660209091015250506040516000908a908a908083838082843760405192018290039091209450612b9d93506145ff92505050565b612ba561461e565b60005b89811015612d9e57600060018587606001518481518110612bc557fe5b60209101015160f81c601b018e8e86818110612bdd57fe5b905060200201358d8d87818110612bf057fe5b9050602002013560405160008152602001604052604051808581526020018460ff1681526020018381526020018281526020019450505050506020604051602081039080840390855afa158015612c4b573d6000803e3d6000fd5b505060408051601f198101516001600160a01b03811660009081526027602090815290849020838501909452835460ff80821685529296509294508401916101009004166002811115612c9a57fe5b6002811115612ca557fe5b9052509250600183602001516002811115612cbc57fe5b14612d0e576040805162461bcd60e51b815260206004820152601e60248201527f61646472657373206e6f7420617574686f72697a656420746f207369676e0000604482015290519081900360640190fd5b8251849060ff16601f8110612d1f57fe5b602002015115612d76576040805162461bcd60e51b815260206004820152601460248201527f6e6f6e2d756e69717565207369676e6174757265000000000000000000000000604482015290519081900360640190fd5b600184846000015160ff16601f8110612d8b57fe5b9115156020909202015250600101612ba8565b5050505060005b600182604001515103811015612e4f57600082604001518260010181518110612dca57fe5b602002602001015160170b83604001518381518110612de557fe5b602002602001015160170b1315905080612e46576040805162461bcd60e51b815260206004820152601760248201527f6f62736572766174696f6e73206e6f7420736f72746564000000000000000000604482015290519081900360640190fd5b50600101612da5565b50604081015180516000919060028104908110612e6857fe5b602002602001015190508060170b7f000000000000000000000000000000000000000000000000000000000000000060170b13158015612ece57507f000000000000000000000000000000000000000000000000000000000000000060170b8160170b13155b612f1f576040805162461bcd60e51b815260206004820152601e60248201527f6d656469616e206973206f7574206f66206d696e2d6d61782072616e67650000604482015290519081900360640190fd5b81516060908101805163ffffffff60019091018116909152604080518082018252601785810b80835267ffffffffffffffff42811660208086019182528a5189015188166000908152602b8252878120965187549351909416600160c01b029390950b77ffffffffffffffffffffffffffffffffffffffffffffffff9081167fffffffffffffffff0000000000000000000000000000000000000000000000009093169290921790911691909117909355875186015184890151848a01516080808c015188519586523386890181905291860181905260a0988601898152845199870199909952835194909916997ff6a97944f31ea060dfde0566e4167c1a1082551e64b60ecb14d599a9d023d451998c999298949793969095909492939185019260c086019289820192909102908190849084905b8381101561306d578181015183820152602001613055565b50505050905001838103825285818151815260200191508051906020019080838360005b838110156130a9578181015183820152602001613091565b50505050905090810190601f1680156130d65780820380516001836020036101000a031916815260200191505b5097505050505050505060405180910390a281516060015160408051428152905160009263ffffffff16917f0109fc6f55cf40689f02fbaad7af7fe7bbac8a3d2186600afc7d3e10cac60271919081900360200190a381600001516060015163ffffffff168160170b7f0559884fd3a460db3073b7fc896cc77986f16e378210ded43186175bf646fc5f426040518082815260200191505060405180910390a361318b8260000151606001518260170b6140ee565b5080518051602a8054602084015160408501516060909501516fffffffffffffffffffffffffffffffff1990921660809490941c939093177fffffffffffffffffffffff0000000000ffffffffffffffffffffffffffffffff16600160801b64ffffffffff909416939093029290921760ff60a81b1916600160a81b60ff90941693909302929092177fffffffffffff00000000ffffffffffffffffffffffffffffffffffffffffffff16600160b01b63ffffffff9283160217909155821061325057fe5b61325e8282602001516141dc565b505050505050505050565b6000807f00000000000000000000000000000000000000000000000000000000000000006001600160a01b03166370a08231306040518263ffffffff1660e01b815260040180826001600160a01b0316815260200191505060206040518083038186803b1580156132d957600080fd5b505afa1580156132ed573d6000803e3d6000fd5b505050506040513d602081101561330357600080fd5b505190506000613311613f07565b90910391505090565b6001600160a01b03811660009081526027602090815260408083208151808301909252805460ff80821684528594840191610100900416600281111561335c57fe5b600281111561336757fe5b905250905060008160200151600281111561337e57fe5b141561338e576000915050610c07565b60016004826000015160ff16601f81106133a457fe5b601091828204019190066002029054906101000a900461ffff1603915050919050565b600080808080333214613421576040805162461bcd60e51b815260206004820152601460248201527f4f6e6c792063616c6c61626c6520627920454f41000000000000000000000000604482015290519081900360640190fd5b5050602a5463ffffffff600160b01b820481166000908152602b6020526040902054608083901b96600160801b909304600881901c909216955064ffffffffff9091169350601781900b9250600160c01b900467ffffffffffffffff1690565b6001600160a01b038281166000908152600660205260409020541633146134ef576040805162461bcd60e51b815260206004820152601d60248201527f6f6e6c792063757272656e742070617965652063616e20757064617465000000604482015290519081900360640190fd5b336001600160a01b038216141561354d576040805162461bcd60e51b815260206004820152601760248201527f63616e6e6f74207472616e7366657220746f2073656c66000000000000000000604482015290519081900360640190fd5b6001600160a01b03808316600090815260076020526040902080548383166001600160a01b0319821681179092559091169081146135c0576040516001600160a01b038084169133918616907f84f7c7c80bb8ed2279b4aab5f61cd05e6374073d38f46d7f32de8c30e9e3836790600090a45b505050565b6000546001600160a01b0316331461361d576040805162461bcd60e51b815260206004820152601660248201527527b7363c9031b0b63630b1363290313c9037bbb732b960511b604482015290519081900360640190fd5b600180546001600160a01b0319166001600160a01b0383811691821790925560008054604051929316917fed8889f560326eb138920d842192f0eb3dd22b4f139c87a2c57538e05bae12789190a350565b6000546001600160a01b031633146136c6576040805162461bcd60e51b815260206004820152601660248201527527b7363c9031b0b63630b1363290313c9037bbb732b960511b604482015290519081900360640190fd5b6118928161440e565b602a54600160b01b900463ffffffff166000818152602b6020908152604091829020825180840190935254601781810b810b810b808552600160c01b90920467ffffffffffffffff1693909201839052929392900b9181908490565b6001600160a01b03811660009081526027602090815260408083208151808301909252805460ff8082168452929391929184019161010090910416600281111561377157fe5b600281111561377c57fe5b9052509050600061378c83610adc565b905080156135c0576001600160a01b0380841660009081526006602090815260408083205481517fa9059cbb0000000000000000000000000000000000000000000000000000000081529085166004820181905260248201879052915191947f0000000000000000000000000000000000000000000000000000000000000000169363a9059cbb9360448084019491939192918390030190829087803b15801561383557600080fd5b505af1158015613849573d6000803e3d6000fd5b505050506040513d602081101561385f57600080fd5b50516138a7576040805162461bcd60e51b8152602060048201526012602482015271696e73756666696369656e742066756e647360701b604482015290519081900360640190fd5b60016004846000015160ff16601f81106138bd57fe5b601091828204019190066002026101000a81548161ffff021916908361ffff16021790555060016008846000015160ff16601f81106138f857fe5b0155604080516001600160a01b0380871682528316602082015280820184905290517fe8ec50e5150ae28ae37e493ff389ffab7ffaec2dc4dccfca03f12a3de29d12b29181900360600190a150505050565b60008a8a8a8a8a8a8a8a8a8a604051602001808b6001600160a01b031681526020018a67ffffffffffffffff16815260200180602001806020018760ff1681526020018667ffffffffffffffff1681526020018060200184810384528c8c82818152602001925060200280828437600083820152601f01601f191690910185810384528a8152602090810191508b908b0280828437600083820152601f01601f191690910185810383528681526020019050868680828437600081840152601f19601f8201169050808301925050509d50505050505050505050505050506040516020818303038152906040528051906020012090509a9950505050505050505050565b6040805160a08101825260025463ffffffff8082168352640100000000820481166020840152600160401b8204811683850152600160601b820481166060840152600160801b90910416608082015281516103e0810192839052909160009190600490601f908285855b82829054906101000a900461ffff1661ffff1681526020019060020190602082600101049283019260010382029150808411613ab8575050604080516103e0810191829052959650600095945060089350601f9250905082845b815481526020019060010190808311613b12575050505050905060006029805480602002602001604051908101604052809291908181526020018280548015613b8457602002820191906000526020600020905b81546001600160a01b03168152600190910190602001808311613b66575b5050505050905060005b8151811015613dd157600060018483601f8110613ba757fe5b6020020151039050600060018684601f8110613bbf57fe5b60200201510361ffff169050600082886060015163ffffffff168302633b9aca00020190506000811115613dc657600060066000878781518110613bff57fe5b60200260200101516001600160a01b03166001600160a01b0316815260200190815260200160002060009054906101000a90046001600160a01b031690507f00000000000000000000000000000000000000000000000000000000000000006001600160a01b031663a9059cbb82846040518363ffffffff1660e01b815260040180836001600160a01b0316815260200182815260200192505050602060405180830381600087803b158015613cb457600080fd5b505af1158015613cc8573d6000803e3d6000fd5b505050506040513d6020811015613cde57600080fd5b5051613d26576040805162461bcd60e51b8152602060048201526012602482015271696e73756666696369656e742066756e647360701b604482015290519081900360640190fd5b60018886601f8110613d3457fe5b61ffff909216602092909202015260018786601f8110613d5057fe5b602002015285517fe8ec50e5150ae28ae37e493ff389ffab7ffaec2dc4dccfca03f12a3de29d12b290879087908110613d8557fe5b6020026020010151828460405180846001600160a01b03168152602001836001600160a01b03168152602001828152602001935050505060405180910390a1505b505050600101613b8e565b50613ddf600484601f614635565b50611dd8600883601f6146cb565b6040805160a0808201835263ffffffff88811680845288821660208086018290528984168688018190528985166060808901829052958a1660809889018190526002805463ffffffff1916871767ffffffff0000000019166401000000008702176bffffffff00000000000000001916600160401b8502177fffffffffffffffffffffffffffffffff00000000ffffffffffffffffffffffff16600160601b8402177fffffffffffffffffffffffff00000000ffffffffffffffffffffffffffffffff16600160801b830217905589519586529285019390935283880152928201529283015291517fd0d9486a2c673e2a4b57fc82e4c8a556b3e2b82dd5db07e2c04a920ca0f469b6929181900390910190a15050505050565b604080516103e0810191829052600091829190600490601f908285855b82829054906101000a900461ffff1661ffff1681526020019060020190602082600101049283019260010382029150808411613f245790505050505050905060005b601f811015613f945760018282601f8110613f7d57fe5b60200201510361ffff169290920191600101613f66565b506040805160a08101825260025463ffffffff808216835264010000000082048116602080850191909152600160401b8304821684860152600160601b8304821660608501819052600160801b90930490911660808401526029805485518184028101840190965280865296909202633b9aca000295929360009390929183018282801561404b57602002820191906000526020600020905b81546001600160a01b0316815260019091019060200180831161402d575b5050604080516103e0810191829052949550600094935060089250601f915082845b81548152602001906001019080831161406d575050505050905060005b82518110156140b45760018282601f81106140a157fe5b602002015103959095019460010161408a565b505050505090565b6000818310156140cd5750816140d0565b50805b92915050565b602083810286019082020160e4019695505050505050565b602c54600160401b90046001600160a01b03168061410c5750610cf0565b600019830163ffffffff8181166000818152602b602090815260408083205481517fbeed9b510000000000000000000000000000000000000000000000000000000081526004810195909552601790810b900b60248501819052948916604485015260648401889052516001600160a01b0387169363beed9b5193620186a09360848084019491939192918390030190829088803b1580156141ad57600080fd5b5087f1935050505080156141d357506040513d60208110156141ce57600080fd5b505160015b61212c57611dd8565b3360009081526027602090815260408083208151808301909252805460ff8082168452929391929184019161010090910416600281111561421957fe5b600281111561422457fe5b9052506040805160a08101825260025463ffffffff8082168352640100000000820481166020840152600160401b8204811683850152600160601b820481166060840152600160801b90910416608082015281516103e0810192839052929350916142d991859190600490601f90826000855b82829054906101000a900461ffff1661ffff16815260200190600201906020826001010492830192600103820291508084116142975790505050505050614485565b6142e790600490601f614635565b506002826020015160028111156142fa57fe5b1461434c576040805162461bcd60e51b815260206004820181905260248201527f73656e7420627920756e64657369676e61746564207472616e736d6974746572604482015290519081900360640190fd5b6000614373633b9aca003a04836020015163ffffffff16846000015163ffffffff166144fa565b90506010360260005a905060006143928863ffffffff16858585614520565b6fffffffffffffffffffffffffffffffff1690506000620f4240866040015163ffffffff168302816143c057fe5b049050856080015163ffffffff16633b9aca0002816008896000015160ff16601f81106143e957fe5b015401016008886000015160ff16601f811061440157fe5b0155505050505050505050565b6003546001600160a01b039081169082168114610cf057600380546001600160a01b0319166001600160a01b03848116918217909255604080519284168352602083019190915280517f793cb73064f3c8cde7e187ae515511e6e56d1ee89bf08b82fa60fb70f8d489129281900390910190a15050565b61448d6145ff565b60005b83518110156144f25760008482815181106144a757fe5b016020015160f81c90506144cc8482601f81106144c057fe5b602002015160016145ac565b848260ff16601f81106144db57fe5b61ffff909216602092909202015250600101614490565b509092915050565b6000838381101561450d57600285850304015b61451781846140bc565b95945050505050565b600081851015614577576040805162461bcd60e51b815260206004820181905260248201527f6761734c6566742063616e6e6f742065786365656420696e697469616c476173604482015290519081900360640190fd5b818503830161179301633b9aca00858202026fffffffffffffffffffffffffffffffff81106145a257fe5b9695505050505050565b60006145c48261ffff168461ffff160161ffff6140bc565b9392505050565b6040518060a001604052806145de6146f9565b81526060602082018190526040820181905280820152600060809091015290565b604051806103e00160405280601f906020820280368337509192915050565b604080518082019091526000808252602082015290565b6002830191839082156146bb5791602002820160005b8382111561468b57835183826101000a81548161ffff021916908361ffff160217905550926020019260020160208160010104928301926001030261464b565b80156146b95782816101000a81549061ffff021916905560020160208160010104928301926001030261468b565b505b506146c7929150614720565b5090565b82601f81019282156146bb579160200282015b828111156146bb5782518255916020019190600101906146de565b60408051608081018252600080825260208201819052918101829052606081019190915290565b5b808211156146c7576000815560010161472156fe6f7261636c6520616464726573736573206f7574206f6620726567697374726174696f6ea2646970667358221220a1a8465652b44dfec084009c8320dd2cab77556276c98da976877ba141d30c7264736f6c63430007060033",
          "opcodes": "PUSH2 0x100 PUSH1 0x40 MSTORE CALLVALUE DUP1 ISZERO PUSH3 0x12 JUMPI PUSH1 0x0 DUP1 REVERT JUMPDEST POP PUSH1 0x40 MLOAD PUSH3 0x4F3E CODESIZE SUB DUP1 PUSH3 0x4F3E DUP4 CODECOPY DUP2 DUP2 ADD PUSH1 0x40 MSTORE PUSH2 0x1A0 DUP2 LT ISZERO PUSH3 0x39 JUMPI PUSH1 0x0 DUP1 REVERT JUMPDEST DUP2 MLOAD PUSH1 0x20 DUP4 ADD MLOAD PUSH1 0x40 DUP1 DUP6 ADD MLOAD PUSH1 0x60 DUP7 ADD MLOAD PUSH1 0x80 DUP8 ADD MLOAD PUSH1 0xA0 DUP9 ADD MLOAD PUSH1 0xC0 DUP10 ADD MLOAD PUSH1 0xE0 DUP11 ADD MLOAD PUSH2 0x100 DUP12 ADD MLOAD PUSH2 0x120 DUP13 ADD MLOAD PUSH2 0x140 DUP14 ADD MLOAD PUSH2 0x160 DUP15 ADD MLOAD PUSH2 0x180 DUP16 ADD DUP1 MLOAD SWAP12 MLOAD SWAP14 SWAP16 SWAP13 SWAP15 SWAP11 SWAP14 SWAP10 SWAP13 SWAP9 SWAP12 SWAP8 SWAP11 SWAP7 SWAP10 SWAP6 SWAP9 SWAP5 SWAP8 SWAP4 SWAP7 SWAP3 SWAP6 SWAP2 SWAP5 SWAP2 SWAP4 SWAP3 DUP3 ADD SWAP3 DUP5 PUSH5 0x100000000 DUP3 GT ISZERO PUSH3 0xB2 JUMPI PUSH1 0x0 DUP1 REVERT JUMPDEST SWAP1 DUP4 ADD SWAP1 PUSH1 0x20 DUP3 ADD DUP6 DUP2 GT ISZERO PUSH3 0xC8 JUMPI PUSH1 0x0 DUP1 REVERT JUMPDEST DUP3 MLOAD PUSH5 0x100000000 DUP2 GT DUP3 DUP3 ADD DUP9 LT OR ISZERO PUSH3 0xE3 JUMPI PUSH1 0x0 DUP1 REVERT JUMPDEST DUP3 MSTORE POP DUP2 MLOAD PUSH1 0x20 SWAP2 DUP3 ADD SWAP3 SWAP1 SWAP2 ADD SWAP1 DUP1 DUP4 DUP4 PUSH1 0x0 JUMPDEST DUP4 DUP2 LT ISZERO PUSH3 0x112 JUMPI DUP2 DUP2 ADD MLOAD DUP4 DUP3 ADD MSTORE PUSH1 0x20 ADD PUSH3 0xF8 JUMP JUMPDEST POP POP POP POP SWAP1 POP SWAP1 DUP2 ADD SWAP1 PUSH1 0x1F AND DUP1 ISZERO PUSH3 0x140 JUMPI DUP1 DUP3 SUB DUP1 MLOAD PUSH1 0x1 DUP4 PUSH1 0x20 SUB PUSH2 0x100 EXP SUB NOT AND DUP2 MSTORE PUSH1 0x20 ADD SWAP2 POP JUMPDEST POP PUSH1 0x40 MSTORE POP POP PUSH1 0x0 DUP1 SLOAD PUSH1 0x1 PUSH1 0x1 PUSH1 0xA0 SHL SUB NOT AND CALLER OR SWAP1 SSTORE POP DUP13 DUP13 DUP13 DUP13 DUP13 DUP13 DUP10 PUSH3 0x16F DUP8 DUP8 DUP8 DUP8 DUP8 PUSH3 0x29C JUMP JUMPDEST PUSH3 0x17A DUP2 PUSH3 0x38E JUMP JUMPDEST PUSH1 0x1 PUSH1 0x1 PUSH1 0x60 SHL SUB NOT PUSH1 0x60 DUP4 SWAP1 SHL AND PUSH1 0x80 MSTORE PUSH3 0x196 PUSH3 0x5C4 JUMP JUMPDEST PUSH3 0x1A0 PUSH3 0x5C4 JUMP JUMPDEST PUSH1 0x0 JUMPDEST PUSH1 0x1F DUP2 PUSH1 0xFF AND LT ISZERO PUSH3 0x1F0 JUMPI PUSH1 0x1 DUP4 DUP3 PUSH1 0xFF AND PUSH1 0x1F DUP2 LT PUSH3 0x1C2 JUMPI INVALID JUMPDEST PUSH2 0xFFFF SWAP1 SWAP3 AND PUSH1 0x20 SWAP3 SWAP1 SWAP3 MUL ADD MSTORE PUSH1 0x1 DUP3 PUSH1 0xFF DUP4 AND PUSH1 0x1F DUP2 LT PUSH3 0x1E2 JUMPI INVALID JUMPDEST PUSH1 0x20 MUL ADD MSTORE PUSH1 0x1 ADD PUSH3 0x1A3 JUMP JUMPDEST POP PUSH3 0x200 PUSH1 0x4 DUP4 PUSH1 0x1F PUSH3 0x5E3 JUMP JUMPDEST POP PUSH3 0x210 PUSH1 0x8 DUP3 PUSH1 0x1F PUSH3 0x680 JUMP JUMPDEST POP POP POP POP POP PUSH1 0xF8 DUP8 SWAP1 SHL PUSH32 0xFF00000000000000000000000000000000000000000000000000000000000000 AND PUSH1 0xE0 MSTORE POP POP DUP4 MLOAD PUSH3 0x259 SWAP4 POP PUSH1 0x2E SWAP3 POP PUSH1 0x20 DUP6 ADD SWAP2 POP PUSH3 0x6B1 JUMP JUMPDEST POP PUSH3 0x265 DUP4 PUSH3 0x407 JUMP JUMPDEST PUSH3 0x270 DUP8 PUSH3 0x4DF JUMP JUMPDEST POP POP POP POP PUSH1 0x17 SWAP2 DUP3 SIGNEXTEND DUP3 SIGNEXTEND PUSH1 0x40 SWAP1 DUP2 SHL PUSH1 0xA0 MSTORE SWAP1 DUP3 SIGNEXTEND SWAP1 SWAP2 SIGNEXTEND SWAP1 SHL PUSH1 0xC0 MSTORE POP PUSH3 0x74A SWAP6 POP POP POP POP POP POP JUMP JUMPDEST PUSH1 0x40 DUP1 MLOAD PUSH1 0xA0 DUP1 DUP3 ADD DUP4 MSTORE PUSH4 0xFFFFFFFF DUP9 DUP2 AND DUP1 DUP5 MSTORE DUP9 DUP3 AND PUSH1 0x20 DUP1 DUP7 ADD DUP3 SWAP1 MSTORE DUP10 DUP5 AND DUP7 DUP9 ADD DUP2 SWAP1 MSTORE DUP10 DUP6 AND PUSH1 0x60 DUP1 DUP10 ADD DUP3 SWAP1 MSTORE SWAP6 DUP11 AND PUSH1 0x80 SWAP9 DUP10 ADD DUP2 SWAP1 MSTORE PUSH1 0x2 DUP1 SLOAD PUSH4 0xFFFFFFFF NOT AND DUP8 OR PUSH4 0xFFFFFFFF PUSH1 0x20 SHL NOT AND PUSH5 0x100000000 DUP8 MUL OR PUSH4 0xFFFFFFFF PUSH1 0x40 SHL NOT AND PUSH9 0x10000000000000000 DUP6 MUL OR PUSH4 0xFFFFFFFF PUSH1 0x60 SHL NOT AND PUSH13 0x1000000000000000000000000 DUP5 MUL OR PUSH4 0xFFFFFFFF PUSH1 0x80 SHL NOT AND PUSH1 0x1 PUSH1 0x80 SHL DUP4 MUL OR SWAP1 SSTORE DUP10 MLOAD SWAP6 DUP7 MSTORE SWAP3 DUP6 ADD SWAP4 SWAP1 SWAP4 MSTORE DUP4 DUP9 ADD MSTORE SWAP3 DUP3 ADD MSTORE SWAP3 DUP4 ADD MSTORE SWAP2 MLOAD PUSH32 0xD0D9486A2C673E2A4B57FC82E4C8A556B3E2B82DD5DB07E2C04A920CA0F469B6 SWAP3 SWAP2 DUP2 SWAP1 SUB SWAP1 SWAP2 ADD SWAP1 LOG1 POP POP POP POP POP JUMP JUMPDEST PUSH1 0x3 SLOAD PUSH1 0x1 PUSH1 0x1 PUSH1 0xA0 SHL SUB SWAP1 DUP2 AND SWAP1 DUP3 AND DUP2 EQ PUSH3 0x403 JUMPI PUSH1 0x3 DUP1 SLOAD PUSH1 0x1 PUSH1 0x1 PUSH1 0xA0 SHL SUB NOT AND PUSH1 0x1 PUSH1 0x1 PUSH1 0xA0 SHL SUB DUP5 DUP2 AND SWAP2 DUP3 OR SWAP1 SWAP3 SSTORE PUSH1 0x40 DUP1 MLOAD SWAP3 DUP5 AND DUP4 MSTORE PUSH1 0x20 DUP4 ADD SWAP2 SWAP1 SWAP2 MSTORE DUP1 MLOAD PUSH32 0x793CB73064F3C8CDE7E187AE515511E6E56D1EE89BF08B82FA60FB70F8D48912 SWAP3 DUP2 SWAP1 SUB SWAP1 SWAP2 ADD SWAP1 LOG1 JUMPDEST POP POP JUMP JUMPDEST PUSH1 0x0 SLOAD PUSH1 0x1 PUSH1 0x1 PUSH1 0xA0 SHL SUB AND CALLER EQ PUSH3 0x467 JUMPI PUSH1 0x40 DUP1 MLOAD PUSH3 0x461BCD PUSH1 0xE5 SHL DUP2 MSTORE PUSH1 0x20 PUSH1 0x4 DUP3 ADD MSTORE PUSH1 0x16 PUSH1 0x24 DUP3 ADD MSTORE PUSH32 0x4F6E6C792063616C6C61626C65206279206F776E657200000000000000000000 PUSH1 0x44 DUP3 ADD MSTORE SWAP1 MLOAD SWAP1 DUP2 SWAP1 SUB PUSH1 0x64 ADD SWAP1 REVERT JUMPDEST PUSH1 0x2D SLOAD PUSH1 0x1 PUSH1 0x1 PUSH1 0xA0 SHL SUB SWAP1 DUP2 AND SWAP1 DUP3 AND DUP2 EQ PUSH3 0x403 JUMPI PUSH1 0x2D DUP1 SLOAD PUSH1 0x1 PUSH1 0x1 PUSH1 0xA0 SHL SUB NOT AND PUSH1 0x1 PUSH1 0x1 PUSH1 0xA0 SHL SUB DUP5 DUP2 AND SWAP2 DUP3 OR SWAP1 SWAP3 SSTORE PUSH1 0x40 DUP1 MLOAD SWAP3 DUP5 AND DUP4 MSTORE PUSH1 0x20 DUP4 ADD SWAP2 SWAP1 SWAP2 MSTORE DUP1 MLOAD PUSH32 0x27B89AEDE8B560578BAAA25EE5CE3852C5EECAD1E114B941BBD89E1EB4BAE634 SWAP3 DUP2 SWAP1 SUB SWAP1 SWAP2 ADD SWAP1 LOG1 POP POP JUMP JUMPDEST PUSH1 0x0 SLOAD PUSH1 0x1 PUSH1 0x1 PUSH1 0xA0 SHL SUB AND CALLER EQ PUSH3 0x53F JUMPI PUSH1 0x40 DUP1 MLOAD PUSH3 0x461BCD PUSH1 0xE5 SHL DUP2 MSTORE PUSH1 0x20 PUSH1 0x4 DUP3 ADD MSTORE PUSH1 0x16 PUSH1 0x24 DUP3 ADD MSTORE PUSH32 0x4F6E6C792063616C6C61626C65206279206F776E657200000000000000000000 PUSH1 0x44 DUP3 ADD MSTORE SWAP1 MLOAD SWAP1 DUP2 SWAP1 SUB PUSH1 0x64 ADD SWAP1 REVERT JUMPDEST PUSH1 0x2C SLOAD PUSH1 0x1 PUSH1 0x1 PUSH1 0xA0 SHL SUB PUSH9 0x10000000000000000 SWAP1 SWAP2 DIV DUP2 AND SWAP1 DUP3 AND DUP2 EQ PUSH3 0x403 JUMPI PUSH1 0x2C DUP1 SLOAD PUSH1 0x1 PUSH1 0x40 SHL PUSH1 0x1 PUSH1 0xE0 SHL SUB NOT AND PUSH9 0x10000000000000000 PUSH1 0x1 PUSH1 0x1 PUSH1 0xA0 SHL SUB DUP6 DUP2 AND SWAP2 DUP3 MUL SWAP3 SWAP1 SWAP3 OR SWAP1 SWAP3 SSTORE PUSH1 0x40 MLOAD SWAP1 DUP4 AND SWAP1 PUSH32 0xCFAC5DC75B8D9A7E074162F59D9ADCD33DA59F0FE8DFB21580DB298FC0FDAD0D SWAP1 PUSH1 0x0 SWAP1 LOG3 POP POP JUMP JUMPDEST PUSH1 0x40 MLOAD DUP1 PUSH2 0x3E0 ADD PUSH1 0x40 MSTORE DUP1 PUSH1 0x1F SWAP1 PUSH1 0x20 DUP3 MUL DUP1 CALLDATASIZE DUP4 CALLDATACOPY POP SWAP2 SWAP3 SWAP2 POP POP JUMP JUMPDEST PUSH1 0x2 DUP4 ADD SWAP2 DUP4 SWAP1 DUP3 ISZERO PUSH3 0x66E JUMPI SWAP2 PUSH1 0x20 MUL DUP3 ADD PUSH1 0x0 JUMPDEST DUP4 DUP3 GT ISZERO PUSH3 0x63C JUMPI DUP4 MLOAD DUP4 DUP3 PUSH2 0x100 EXP DUP2 SLOAD DUP2 PUSH2 0xFFFF MUL NOT AND SWAP1 DUP4 PUSH2 0xFFFF AND MUL OR SWAP1 SSTORE POP SWAP3 PUSH1 0x20 ADD SWAP3 PUSH1 0x2 ADD PUSH1 0x20 DUP2 PUSH1 0x1 ADD DIV SWAP3 DUP4 ADD SWAP3 PUSH1 0x1 SUB MUL PUSH3 0x5FA JUMP JUMPDEST DUP1 ISZERO PUSH3 0x66C JUMPI DUP3 DUP2 PUSH2 0x100 EXP DUP2 SLOAD SWAP1 PUSH2 0xFFFF MUL NOT AND SWAP1 SSTORE PUSH1 0x2 ADD PUSH1 0x20 DUP2 PUSH1 0x1 ADD DIV SWAP3 DUP4 ADD SWAP3 PUSH1 0x1 SUB MUL PUSH3 0x63C JUMP JUMPDEST POP JUMPDEST POP PUSH3 0x67C SWAP3 SWAP2 POP PUSH3 0x733 JUMP JUMPDEST POP SWAP1 JUMP JUMPDEST DUP3 PUSH1 0x1F DUP2 ADD SWAP3 DUP3 ISZERO PUSH3 0x66E JUMPI SWAP2 PUSH1 0x20 MUL DUP3 ADD JUMPDEST DUP3 DUP2 GT ISZERO PUSH3 0x66E JUMPI DUP3 MLOAD DUP3 SSTORE SWAP2 PUSH1 0x20 ADD SWAP2 SWAP1 PUSH1 0x1 ADD SWAP1 PUSH3 0x694 JUMP JUMPDEST DUP3 DUP1 SLOAD PUSH1 0x1 DUP2 PUSH1 0x1 AND ISZERO PUSH2 0x100 MUL SUB AND PUSH1 0x2 SWAP1 DIV SWAP1 PUSH1 0x0 MSTORE PUSH1 0x20 PUSH1 0x0 KECCAK256 SWAP1 PUSH1 0x1F ADD PUSH1 0x20 SWAP1 DIV DUP2 ADD SWAP3 DUP3 PUSH3 0x6E9 JUMPI PUSH1 0x0 DUP6 SSTORE PUSH3 0x66E JUMP JUMPDEST DUP3 PUSH1 0x1F LT PUSH3 0x704 JUMPI DUP1 MLOAD PUSH1 0xFF NOT AND DUP4 DUP1 ADD OR DUP6 SSTORE PUSH3 0x66E JUMP JUMPDEST DUP3 DUP1 ADD PUSH1 0x1 ADD DUP6 SSTORE DUP3 ISZERO PUSH3 0x66E JUMPI SWAP2 DUP3 ADD DUP3 DUP2 GT ISZERO PUSH3 0x66E JUMPI DUP3 MLOAD DUP3 SSTORE SWAP2 PUSH1 0x20 ADD SWAP2 SWAP1 PUSH1 0x1 ADD SWAP1 PUSH3 0x694 JUMP JUMPDEST JUMPDEST DUP1 DUP3 GT ISZERO PUSH3 0x67C JUMPI PUSH1 0x0 DUP2 SSTORE PUSH1 0x1 ADD PUSH3 0x734 JUMP JUMPDEST PUSH1 0x80 MLOAD PUSH1 0x60 SHR PUSH1 0xA0 MLOAD PUSH1 0x40 SHR PUSH1 0xC0 MLOAD PUSH1 0x40 SHR PUSH1 0xE0 MLOAD PUSH1 0xF8 SHR PUSH2 0x478F PUSH3 0x7AF PUSH1 0x0 CODECOPY DUP1 PUSH2 0xDA0 MSTORE POP DUP1 PUSH2 0x15E9 MSTORE DUP1 PUSH2 0x2EA5 MSTORE POP DUP1 PUSH2 0xD1A MSTORE DUP1 PUSH2 0x2E78 MSTORE POP DUP1 PUSH2 0xCF6 MSTORE DUP1 PUSH2 0x2257 MSTORE DUP1 PUSH2 0x2347 MSTORE DUP1 PUSH2 0x326E MSTORE DUP1 PUSH2 0x37ED MSTORE DUP1 PUSH2 0x3C3F MSTORE POP PUSH2 0x478F PUSH1 0x0 RETURN INVALID PUSH1 0x80 PUSH1 0x40 MSTORE CALLVALUE DUP1 ISZERO PUSH2 0x10 JUMPI PUSH1 0x0 DUP1 REVERT JUMPDEST POP PUSH1 0x4 CALLDATASIZE LT PUSH2 0x292 JUMPI PUSH1 0x0 CALLDATALOAD PUSH1 0xE0 SHR DUP1 PUSH4 0x8DA5CB5B GT PUSH2 0x160 JUMPI DUP1 PUSH4 0xBD824706 GT PUSH2 0xD8 JUMPI DUP1 PUSH4 0xE5FE4577 GT PUSH2 0x8C JUMPI DUP1 PUSH4 0xF2FDE38B GT PUSH2 0x71 JUMPI DUP1 PUSH4 0xF2FDE38B EQ PUSH2 0xA88 JUMPI DUP1 PUSH4 0xFBFFD2C1 EQ PUSH2 0xAAE JUMPI DUP1 PUSH4 0xFEAF968C EQ PUSH2 0xAD4 JUMPI PUSH2 0x292 JUMP JUMPDEST DUP1 PUSH4 0xE5FE4577 EQ PUSH2 0x9FF JUMPI DUP1 PUSH4 0xEB5DCD6C EQ PUSH2 0xA5A JUMPI PUSH2 0x292 JUMP JUMPDEST DUP1 PUSH4 0xC9807539 GT PUSH2 0xBD JUMPI DUP1 PUSH4 0xC9807539 EQ PUSH2 0x8A6 JUMPI DUP1 PUSH4 0xD09DC339 EQ PUSH2 0x9BA JUMPI DUP1 PUSH4 0xE4902F82 EQ PUSH2 0x9C2 JUMPI PUSH2 0x292 JUMP JUMPDEST DUP1 PUSH4 0xBD824706 EQ PUSH2 0x835 JUMPI DUP1 PUSH4 0xC1075329 EQ PUSH2 0x87A JUMPI PUSH2 0x292 JUMP JUMPDEST DUP1 PUSH4 0x9C849B30 GT PUSH2 0x12F JUMPI DUP1 PUSH4 0xB121E147 GT PUSH2 0x114 JUMPI DUP1 PUSH4 0xB121E147 EQ PUSH2 0x7D5 JUMPI DUP1 PUSH4 0xB5AB58DC EQ PUSH2 0x7FB JUMPI DUP1 PUSH4 0xB633620C EQ PUSH2 0x818 JUMPI PUSH2 0x292 JUMP JUMPDEST DUP1 PUSH4 0x9C849B30 EQ PUSH2 0x6ED JUMPI DUP1 PUSH4 0x9E3CEEAB EQ PUSH2 0x7AF JUMPI PUSH2 0x292 JUMP JUMPDEST DUP1 PUSH4 0x8DA5CB5B EQ PUSH2 0x643 JUMPI DUP1 PUSH4 0x98E5B12A EQ PUSH2 0x64B JUMPI DUP1 PUSH4 0x996E8298 EQ PUSH2 0x672 JUMPI DUP1 PUSH4 0x9A6FC8F5 EQ PUSH2 0x67A JUMPI PUSH2 0x292 JUMP JUMPDEST DUP1 PUSH4 0x585AA7DE GT PUSH2 0x20E JUMPI DUP1 PUSH4 0x79BA5097 GT PUSH2 0x1C2 JUMPI DUP1 PUSH4 0x81FF7048 GT PUSH2 0x1A7 JUMPI DUP1 PUSH4 0x81FF7048 EQ PUSH2 0x5D3 JUMPI DUP1 PUSH4 0x8205BF6A EQ PUSH2 0x615 JUMPI DUP1 PUSH4 0x8AC28D5A EQ PUSH2 0x61D JUMPI PUSH2 0x292 JUMP JUMPDEST DUP1 PUSH4 0x79BA5097 EQ PUSH2 0x573 JUMPI DUP1 PUSH4 0x81411834 EQ PUSH2 0x57B JUMPI PUSH2 0x292 JUMP JUMPDEST DUP1 PUSH4 0x70DA2F67 GT PUSH2 0x1F3 JUMPI DUP1 PUSH4 0x70DA2F67 EQ PUSH2 0x4E6 JUMPI DUP1 PUSH4 0x70EFDF2D EQ PUSH2 0x4EE JUMPI DUP1 PUSH4 0x7284E416 EQ PUSH2 0x4F6 JUMPI PUSH2 0x292 JUMP JUMPDEST DUP1 PUSH4 0x585AA7DE EQ PUSH2 0x3B1 JUMPI DUP1 PUSH4 0x668A0F02 EQ PUSH2 0x4DE JUMPI PUSH2 0x292 JUMP JUMPDEST DUP1 PUSH4 0x29937268 GT PUSH2 0x265 JUMPI DUP1 PUSH4 0x3A5381B5 GT PUSH2 0x24A JUMPI DUP1 PUSH4 0x3A5381B5 EQ PUSH2 0x399 JUMPI DUP1 PUSH4 0x50D25BCD EQ PUSH2 0x3A1 JUMPI DUP1 PUSH4 0x54FD4D50 EQ PUSH2 0x3A9 JUMPI PUSH2 0x292 JUMP JUMPDEST DUP1 PUSH4 0x29937268 EQ PUSH2 0x33A JUMPI DUP1 PUSH4 0x313CE567 EQ PUSH2 0x37B JUMPI PUSH2 0x292 JUMP JUMPDEST DUP1 PUSH4 0xEAFB25B EQ PUSH2 0x297 JUMPI DUP1 PUSH4 0x1327D3D8 EQ PUSH2 0x2CF JUMPI DUP1 PUSH4 0x1B6B6D23 EQ PUSH2 0x2F7 JUMPI DUP1 PUSH4 0x22ADBC78 EQ PUSH2 0x31B JUMPI JUMPDEST PUSH1 0x0 DUP1 REVERT JUMPDEST PUSH2 0x2BD PUSH1 0x4 DUP1 CALLDATASIZE SUB PUSH1 0x20 DUP2 LT ISZERO PUSH2 0x2AD JUMPI PUSH1 0x0 DUP1 REVERT JUMPDEST POP CALLDATALOAD PUSH1 0x1 PUSH1 0x1 PUSH1 0xA0 SHL SUB AND PUSH2 0xADC JUMP JUMPDEST PUSH1 0x40 DUP1 MLOAD SWAP2 DUP3 MSTORE MLOAD SWAP1 DUP2 SWAP1 SUB PUSH1 0x20 ADD SWAP1 RETURN JUMPDEST PUSH2 0x2F5 PUSH1 0x4 DUP1 CALLDATASIZE SUB PUSH1 0x20 DUP2 LT ISZERO PUSH2 0x2E5 JUMPI PUSH1 0x0 DUP1 REVERT JUMPDEST POP CALLDATALOAD PUSH1 0x1 PUSH1 0x1 PUSH1 0xA0 SHL SUB AND PUSH2 0xC0C JUMP JUMPDEST STOP JUMPDEST PUSH2 0x2FF PUSH2 0xCF4 JUMP JUMPDEST PUSH1 0x40 DUP1 MLOAD PUSH1 0x1 PUSH1 0x1 PUSH1 0xA0 SHL SUB SWAP1 SWAP3 AND DUP3 MSTORE MLOAD SWAP1 DUP2 SWAP1 SUB PUSH1 0x20 ADD SWAP1 RETURN JUMPDEST PUSH2 0x323 PUSH2 0xD18 JUMP JUMPDEST PUSH1 0x40 DUP1 MLOAD PUSH1 0x17 SWAP3 SWAP1 SWAP3 SIGNEXTEND DUP3 MSTORE MLOAD SWAP1 DUP2 SWAP1 SUB PUSH1 0x20 ADD SWAP1 RETURN JUMPDEST PUSH2 0x342 PUSH2 0xD3C JUMP JUMPDEST PUSH1 0x40 DUP1 MLOAD PUSH4 0xFFFFFFFF SWAP7 DUP8 AND DUP2 MSTORE SWAP5 DUP7 AND PUSH1 0x20 DUP7 ADD MSTORE SWAP3 DUP6 AND DUP5 DUP5 ADD MSTORE SWAP1 DUP5 AND PUSH1 0x60 DUP5 ADD MSTORE SWAP1 SWAP3 AND PUSH1 0x80 DUP3 ADD MSTORE SWAP1 MLOAD SWAP1 DUP2 SWAP1 SUB PUSH1 0xA0 ADD SWAP1 RETURN JUMPDEST PUSH2 0x383 PUSH2 0xD9E JUMP JUMPDEST PUSH1 0x40 DUP1 MLOAD PUSH1 0xFF SWAP1 SWAP3 AND DUP3 MSTORE MLOAD SWAP1 DUP2 SWAP1 SUB PUSH1 0x20 ADD SWAP1 RETURN JUMPDEST PUSH2 0x2FF PUSH2 0xDC2 JUMP JUMPDEST PUSH2 0x2BD PUSH2 0xDD8 JUMP JUMPDEST PUSH2 0x2BD PUSH2 0xE01 JUMP JUMPDEST PUSH2 0x2F5 PUSH1 0x4 DUP1 CALLDATASIZE SUB PUSH1 0xA0 DUP2 LT ISZERO PUSH2 0x3C7 JUMPI PUSH1 0x0 DUP1 REVERT JUMPDEST DUP2 ADD SWAP1 PUSH1 0x20 DUP2 ADD DUP2 CALLDATALOAD PUSH5 0x100000000 DUP2 GT ISZERO PUSH2 0x3E2 JUMPI PUSH1 0x0 DUP1 REVERT JUMPDEST DUP3 ADD DUP4 PUSH1 0x20 DUP3 ADD GT ISZERO PUSH2 0x3F4 JUMPI PUSH1 0x0 DUP1 REVERT JUMPDEST DUP1 CALLDATALOAD SWAP1 PUSH1 0x20 ADD SWAP2 DUP5 PUSH1 0x20 DUP4 MUL DUP5 ADD GT PUSH5 0x100000000 DUP4 GT OR ISZERO PUSH2 0x416 JUMPI PUSH1 0x0 DUP1 REVERT JUMPDEST SWAP2 SWAP4 SWAP1 SWAP3 SWAP1 SWAP2 PUSH1 0x20 DUP2 ADD SWAP1 CALLDATALOAD PUSH5 0x100000000 DUP2 GT ISZERO PUSH2 0x434 JUMPI PUSH1 0x0 DUP1 REVERT JUMPDEST DUP3 ADD DUP4 PUSH1 0x20 DUP3 ADD GT ISZERO PUSH2 0x446 JUMPI PUSH1 0x0 DUP1 REVERT JUMPDEST DUP1 CALLDATALOAD SWAP1 PUSH1 0x20 ADD SWAP2 DUP5 PUSH1 0x20 DUP4 MUL DUP5 ADD GT PUSH5 0x100000000 DUP4 GT OR ISZERO PUSH2 0x468 JUMPI PUSH1 0x0 DUP1 REVERT JUMPDEST SWAP2 SWAP4 SWAP1 SWAP3 PUSH1 0xFF DUP4 CALLDATALOAD AND SWAP3 PUSH8 0xFFFFFFFFFFFFFFFF PUSH1 0x20 DUP3 ADD CALLDATALOAD AND SWAP3 SWAP2 SWAP1 PUSH1 0x60 DUP2 ADD SWAP1 PUSH1 0x40 ADD CALLDATALOAD PUSH5 0x100000000 DUP2 GT ISZERO PUSH2 0x49F JUMPI PUSH1 0x0 DUP1 REVERT JUMPDEST DUP3 ADD DUP4 PUSH1 0x20 DUP3 ADD GT ISZERO PUSH2 0x4B1 JUMPI PUSH1 0x0 DUP1 REVERT JUMPDEST DUP1 CALLDATALOAD SWAP1 PUSH1 0x20 ADD SWAP2 DUP5 PUSH1 0x1 DUP4 MUL DUP5 ADD GT PUSH5 0x100000000 DUP4 GT OR ISZERO PUSH2 0x4D3 JUMPI PUSH1 0x0 DUP1 REVERT JUMPDEST POP SWAP1 SWAP3 POP SWAP1 POP PUSH2 0xE06 JUMP JUMPDEST PUSH2 0x2BD PUSH2 0x15D4 JUMP JUMPDEST PUSH2 0x323 PUSH2 0x15E7 JUMP JUMPDEST PUSH2 0x2FF PUSH2 0x160B JUMP JUMPDEST PUSH2 0x4FE PUSH2 0x161A JUMP JUMPDEST PUSH1 0x40 DUP1 MLOAD PUSH1 0x20 DUP1 DUP3 MSTORE DUP4 MLOAD DUP2 DUP4 ADD MSTORE DUP4 MLOAD SWAP2 SWAP3 DUP4 SWAP3 SWAP1 DUP4 ADD SWAP2 DUP6 ADD SWAP1 DUP1 DUP4 DUP4 PUSH1 0x0 JUMPDEST DUP4 DUP2 LT ISZERO PUSH2 0x538 JUMPI DUP2 DUP2 ADD MLOAD DUP4 DUP3 ADD MSTORE PUSH1 0x20 ADD PUSH2 0x520 JUMP JUMPDEST POP POP POP POP SWAP1 POP SWAP1 DUP2 ADD SWAP1 PUSH1 0x1F AND DUP1 ISZERO PUSH2 0x565 JUMPI DUP1 DUP3 SUB DUP1 MLOAD PUSH1 0x1 DUP4 PUSH1 0x20 SUB PUSH2 0x100 EXP SUB NOT AND DUP2 MSTORE PUSH1 0x20 ADD SWAP2 POP JUMPDEST POP SWAP3 POP POP POP PUSH1 0x40 MLOAD DUP1 SWAP2 SUB SWAP1 RETURN JUMPDEST PUSH2 0x2F5 PUSH2 0x16B0 JUMP JUMPDEST PUSH2 0x583 PUSH2 0x1766 JUMP JUMPDEST PUSH1 0x40 DUP1 MLOAD PUSH1 0x20 DUP1 DUP3 MSTORE DUP4 MLOAD DUP2 DUP4 ADD MSTORE DUP4 MLOAD SWAP2 SWAP3 DUP4 SWAP3 SWAP1 DUP4 ADD SWAP2 DUP6 DUP2 ADD SWAP2 MUL DUP1 DUP4 DUP4 PUSH1 0x0 JUMPDEST DUP4 DUP2 LT ISZERO PUSH2 0x5BF JUMPI DUP2 DUP2 ADD MLOAD DUP4 DUP3 ADD MSTORE PUSH1 0x20 ADD PUSH2 0x5A7 JUMP JUMPDEST POP POP POP POP SWAP1 POP ADD SWAP3 POP POP POP PUSH1 0x40 MLOAD DUP1 SWAP2 SUB SWAP1 RETURN JUMPDEST PUSH2 0x5DB PUSH2 0x17C7 JUMP JUMPDEST PUSH1 0x40 DUP1 MLOAD PUSH4 0xFFFFFFFF SWAP5 DUP6 AND DUP2 MSTORE SWAP3 SWAP1 SWAP4 AND PUSH1 0x20 DUP4 ADD MSTORE PUSH16 0xFFFFFFFFFFFFFFFFFFFFFFFFFFFFFFFF NOT AND DUP2 DUP4 ADD MSTORE SWAP1 MLOAD SWAP1 DUP2 SWAP1 SUB PUSH1 0x60 ADD SWAP1 RETURN JUMPDEST PUSH2 0x2BD PUSH2 0x17E8 JUMP JUMPDEST PUSH2 0x2F5 PUSH1 0x4 DUP1 CALLDATASIZE SUB PUSH1 0x20 DUP2 LT ISZERO PUSH2 0x633 JUMPI PUSH1 0x0 DUP1 REVERT JUMPDEST POP CALLDATALOAD PUSH1 0x1 PUSH1 0x1 PUSH1 0xA0 SHL SUB AND PUSH2 0x181B JUMP JUMPDEST PUSH2 0x2FF PUSH2 0x1895 JUMP JUMPDEST PUSH2 0x653 PUSH2 0x18A4 JUMP JUMPDEST PUSH1 0x40 DUP1 MLOAD PUSH10 0xFFFFFFFFFFFFFFFFFFFF SWAP1 SWAP3 AND DUP3 MSTORE MLOAD SWAP1 DUP2 SWAP1 SUB PUSH1 0x20 ADD SWAP1 RETURN JUMPDEST PUSH2 0x2FF PUSH2 0x1A80 JUMP JUMPDEST PUSH2 0x6A3 PUSH1 0x4 DUP1 CALLDATASIZE SUB PUSH1 0x20 DUP2 LT ISZERO PUSH2 0x690 JUMPI PUSH1 0x0 DUP1 REVERT JUMPDEST POP CALLDATALOAD PUSH10 0xFFFFFFFFFFFFFFFFFFFF AND PUSH2 0x1A8F JUMP JUMPDEST PUSH1 0x40 MLOAD DUP1 DUP7 PUSH10 0xFFFFFFFFFFFFFFFFFFFF AND DUP2 MSTORE PUSH1 0x20 ADD DUP6 DUP2 MSTORE PUSH1 0x20 ADD DUP5 DUP2 MSTORE PUSH1 0x20 ADD DUP4 DUP2 MSTORE PUSH1 0x20 ADD DUP3 PUSH10 0xFFFFFFFFFFFFFFFFFFFF AND DUP2 MSTORE PUSH1 0x20 ADD SWAP6 POP POP POP POP POP POP PUSH1 0x40 MLOAD DUP1 SWAP2 SUB SWAP1 RETURN JUMPDEST PUSH2 0x2F5 PUSH1 0x4 DUP1 CALLDATASIZE SUB PUSH1 0x40 DUP2 LT ISZERO PUSH2 0x703 JUMPI PUSH1 0x0 DUP1 REVERT JUMPDEST DUP2 ADD SWAP1 PUSH1 0x20 DUP2 ADD DUP2 CALLDATALOAD PUSH5 0x100000000 DUP2 GT ISZERO PUSH2 0x71E JUMPI PUSH1 0x0 DUP1 REVERT JUMPDEST DUP3 ADD DUP4 PUSH1 0x20 DUP3 ADD GT ISZERO PUSH2 0x730 JUMPI PUSH1 0x0 DUP1 REVERT JUMPDEST DUP1 CALLDATALOAD SWAP1 PUSH1 0x20 ADD SWAP2 DUP5 PUSH1 0x20 DUP4 MUL DUP5 ADD GT PUSH5 0x100000000 DUP4 GT OR ISZERO PUSH2 0x752 JUMPI PUSH1 0x0 DUP1 REVERT JUMPDEST SWAP2 SWAP4 SWAP1 SWAP3 SWAP1 SWAP2 PUSH1 0x20 DUP2 ADD SWAP1 CALLDATALOAD PUSH5 0x100000000 DUP2 GT ISZERO PUSH2 0x770 JUMPI PUSH1 0x0 DUP1 REVERT JUMPDEST DUP3 ADD DUP4 PUSH1 0x20 DUP3 ADD GT ISZERO PUSH2 0x782 JUMPI PUSH1 0x0 DUP1 REVERT JUMPDEST DUP1 CALLDATALOAD SWAP1 PUSH1 0x20 ADD SWAP2 DUP5 PUSH1 0x20 DUP4 MUL DUP5 ADD GT PUSH5 0x100000000 DUP4 GT OR ISZERO PUSH2 0x7A4 JUMPI PUSH1 0x0 DUP1 REVERT JUMPDEST POP SWAP1 SWAP3 POP SWAP1 POP PUSH2 0x1BC5 JUMP JUMPDEST PUSH2 0x2F5 PUSH1 0x4 DUP1 CALLDATASIZE SUB PUSH1 0x20 DUP2 LT ISZERO PUSH2 0x7C5 JUMPI PUSH1 0x0 DUP1 REVERT JUMPDEST POP CALLDATALOAD PUSH1 0x1 PUSH1 0x1 PUSH1 0xA0 SHL SUB AND PUSH2 0x1DDF JUMP JUMPDEST PUSH2 0x2F5 PUSH1 0x4 DUP1 CALLDATASIZE SUB PUSH1 0x20 DUP2 LT ISZERO PUSH2 0x7EB JUMPI PUSH1 0x0 DUP1 REVERT JUMPDEST POP CALLDATALOAD PUSH1 0x1 PUSH1 0x1 PUSH1 0xA0 SHL SUB AND PUSH2 0x1EAE JUMP JUMPDEST PUSH2 0x2BD PUSH1 0x4 DUP1 CALLDATASIZE SUB PUSH1 0x20 DUP2 LT ISZERO PUSH2 0x811 JUMPI PUSH1 0x0 DUP1 REVERT JUMPDEST POP CALLDATALOAD PUSH2 0x1F8F JUMP JUMPDEST PUSH2 0x2BD PUSH1 0x4 DUP1 CALLDATASIZE SUB PUSH1 0x20 DUP2 LT ISZERO PUSH2 0x82E JUMPI PUSH1 0x0 DUP1 REVERT JUMPDEST POP CALLDATALOAD PUSH2 0x1FC5 JUMP JUMPDEST PUSH2 0x2F5 PUSH1 0x4 DUP1 CALLDATASIZE SUB PUSH1 0xA0 DUP2 LT ISZERO PUSH2 0x84B JUMPI PUSH1 0x0 DUP1 REVERT JUMPDEST POP PUSH4 0xFFFFFFFF DUP2 CALLDATALOAD DUP2 AND SWAP2 PUSH1 0x20 DUP2 ADD CALLDATALOAD DUP3 AND SWAP2 PUSH1 0x40 DUP3 ADD CALLDATALOAD DUP2 AND SWAP2 PUSH1 0x60 DUP2 ADD CALLDATALOAD DUP3 AND SWAP2 PUSH1 0x80 SWAP1 SWAP2 ADD CALLDATALOAD AND PUSH2 0x2005 JUMP JUMPDEST PUSH2 0x2F5 PUSH1 0x4 DUP1 CALLDATASIZE SUB PUSH1 0x40 DUP2 LT ISZERO PUSH2 0x890 JUMPI PUSH1 0x0 DUP1 REVERT JUMPDEST POP PUSH1 0x1 PUSH1 0x1 PUSH1 0xA0 SHL SUB DUP2 CALLDATALOAD AND SWAP1 PUSH1 0x20 ADD CALLDATALOAD PUSH2 0x2134 JUMP JUMPDEST PUSH2 0x2F5 PUSH1 0x4 DUP1 CALLDATASIZE SUB PUSH1 0x80 DUP2 LT ISZERO PUSH2 0x8BC JUMPI PUSH1 0x0 DUP1 REVERT JUMPDEST DUP2 ADD SWAP1 PUSH1 0x20 DUP2 ADD DUP2 CALLDATALOAD PUSH5 0x100000000 DUP2 GT ISZERO PUSH2 0x8D7 JUMPI PUSH1 0x0 DUP1 REVERT JUMPDEST DUP3 ADD DUP4 PUSH1 0x20 DUP3 ADD GT ISZERO PUSH2 0x8E9 JUMPI PUSH1 0x0 DUP1 REVERT JUMPDEST DUP1 CALLDATALOAD SWAP1 PUSH1 0x20 ADD SWAP2 DUP5 PUSH1 0x1 DUP4 MUL DUP5 ADD GT PUSH5 0x100000000 DUP4 GT OR ISZERO PUSH2 0x90B JUMPI PUSH1 0x0 DUP1 REVERT JUMPDEST SWAP2 SWAP4 SWAP1 SWAP3 SWAP1 SWAP2 PUSH1 0x20 DUP2 ADD SWAP1 CALLDATALOAD PUSH5 0x100000000 DUP2 GT ISZERO PUSH2 0x929 JUMPI PUSH1 0x0 DUP1 REVERT JUMPDEST DUP3 ADD DUP4 PUSH1 0x20 DUP3 ADD GT ISZERO PUSH2 0x93B JUMPI PUSH1 0x0 DUP1 REVERT JUMPDEST DUP1 CALLDATALOAD SWAP1 PUSH1 0x20 ADD SWAP2 DUP5 PUSH1 0x20 DUP4 MUL DUP5 ADD GT PUSH5 0x100000000 DUP4 GT OR ISZERO PUSH2 0x95D JUMPI PUSH1 0x0 DUP1 REVERT JUMPDEST SWAP2 SWAP4 SWAP1 SWAP3 SWAP1 SWAP2 PUSH1 0x20 DUP2 ADD SWAP1 CALLDATALOAD PUSH5 0x100000000 DUP2 GT ISZERO PUSH2 0x97B JUMPI PUSH1 0x0 DUP1 REVERT JUMPDEST DUP3 ADD DUP4 PUSH1 0x20 DUP3 ADD GT ISZERO PUSH2 0x98D JUMPI PUSH1 0x0 DUP1 REVERT JUMPDEST DUP1 CALLDATALOAD SWAP1 PUSH1 0x20 ADD SWAP2 DUP5 PUSH1 0x20 DUP4 MUL DUP5 ADD GT PUSH5 0x100000000 DUP4 GT OR ISZERO PUSH2 0x9AF JUMPI PUSH1 0x0 DUP1 REVERT JUMPDEST SWAP2 SWAP4 POP SWAP2 POP CALLDATALOAD PUSH2 0x243F JUMP JUMPDEST PUSH2 0x2BD PUSH2 0x3269 JUMP JUMPDEST PUSH2 0x9E8 PUSH1 0x4 DUP1 CALLDATASIZE SUB PUSH1 0x20 DUP2 LT ISZERO PUSH2 0x9D8 JUMPI PUSH1 0x0 DUP1 REVERT JUMPDEST POP CALLDATALOAD PUSH1 0x1 PUSH1 0x1 PUSH1 0xA0 SHL SUB AND PUSH2 0x331A JUMP JUMPDEST PUSH1 0x40 DUP1 MLOAD PUSH2 0xFFFF SWAP1 SWAP3 AND DUP3 MSTORE MLOAD SWAP1 DUP2 SWAP1 SUB PUSH1 0x20 ADD SWAP1 RETURN JUMPDEST PUSH2 0xA07 PUSH2 0x33C7 JUMP JUMPDEST PUSH1 0x40 DUP1 MLOAD PUSH16 0xFFFFFFFFFFFFFFFFFFFFFFFFFFFFFFFF NOT SWAP1 SWAP7 AND DUP7 MSTORE PUSH4 0xFFFFFFFF SWAP1 SWAP5 AND PUSH1 0x20 DUP7 ADD MSTORE PUSH1 0xFF SWAP1 SWAP3 AND DUP5 DUP5 ADD MSTORE PUSH1 0x17 SIGNEXTEND PUSH1 0x60 DUP5 ADD MSTORE PUSH8 0xFFFFFFFFFFFFFFFF AND PUSH1 0x80 DUP4 ADD MSTORE MLOAD SWAP1 DUP2 SWAP1 SUB PUSH1 0xA0 ADD SWAP1 RETURN JUMPDEST PUSH2 0x2F5 PUSH1 0x4 DUP1 CALLDATASIZE SUB PUSH1 0x40 DUP2 LT ISZERO PUSH2 0xA70 JUMPI PUSH1 0x0 DUP1 REVERT JUMPDEST POP PUSH1 0x1 PUSH1 0x1 PUSH1 0xA0 SHL SUB DUP2 CALLDATALOAD DUP2 AND SWAP2 PUSH1 0x20 ADD CALLDATALOAD AND PUSH2 0x3481 JUMP JUMPDEST PUSH2 0x2F5 PUSH1 0x4 DUP1 CALLDATASIZE SUB PUSH1 0x20 DUP2 LT ISZERO PUSH2 0xA9E JUMPI PUSH1 0x0 DUP1 REVERT JUMPDEST POP CALLDATALOAD PUSH1 0x1 PUSH1 0x1 PUSH1 0xA0 SHL SUB AND PUSH2 0x35C5 JUMP JUMPDEST PUSH2 0x2F5 PUSH1 0x4 DUP1 CALLDATASIZE SUB PUSH1 0x20 DUP2 LT ISZERO PUSH2 0xAC4 JUMPI PUSH1 0x0 DUP1 REVERT JUMPDEST POP CALLDATALOAD PUSH1 0x1 PUSH1 0x1 PUSH1 0xA0 SHL SUB AND PUSH2 0x366E JUMP JUMPDEST PUSH2 0x6A3 PUSH2 0x36CF JUMP JUMPDEST PUSH1 0x1 PUSH1 0x1 PUSH1 0xA0 SHL SUB DUP2 AND PUSH1 0x0 SWAP1 DUP2 MSTORE PUSH1 0x27 PUSH1 0x20 SWAP1 DUP2 MSTORE PUSH1 0x40 DUP1 DUP4 KECCAK256 DUP2 MLOAD DUP1 DUP4 ADD SWAP1 SWAP3 MSTORE DUP1 SLOAD PUSH1 0xFF DUP1 DUP3 AND DUP5 MSTORE DUP6 SWAP5 DUP5 ADD SWAP2 PUSH2 0x100 SWAP1 DIV AND PUSH1 0x2 DUP2 GT ISZERO PUSH2 0xB1E JUMPI INVALID JUMPDEST PUSH1 0x2 DUP2 GT ISZERO PUSH2 0xB29 JUMPI INVALID JUMPDEST SWAP1 MSTORE POP SWAP1 POP PUSH1 0x0 DUP2 PUSH1 0x20 ADD MLOAD PUSH1 0x2 DUP2 GT ISZERO PUSH2 0xB40 JUMPI INVALID JUMPDEST EQ ISZERO PUSH2 0xB50 JUMPI PUSH1 0x0 SWAP2 POP POP PUSH2 0xC07 JUMP JUMPDEST PUSH1 0x40 DUP1 MLOAD PUSH1 0xA0 DUP2 ADD DUP3 MSTORE PUSH1 0x2 SLOAD PUSH4 0xFFFFFFFF DUP1 DUP3 AND DUP4 MSTORE PUSH5 0x100000000 DUP3 DIV DUP2 AND PUSH1 0x20 DUP5 ADD MSTORE PUSH1 0x1 PUSH1 0x40 SHL DUP3 DIV DUP2 AND SWAP4 DUP4 ADD SWAP4 SWAP1 SWAP4 MSTORE PUSH1 0x1 PUSH1 0x60 SHL DUP2 DIV DUP4 AND PUSH1 0x60 DUP4 ADD DUP2 SWAP1 MSTORE PUSH1 0x1 PUSH1 0x80 SHL SWAP1 SWAP2 DIV SWAP1 SWAP3 AND PUSH1 0x80 DUP3 ADD MSTORE DUP3 MLOAD SWAP1 SWAP2 PUSH1 0x0 SWAP2 PUSH1 0x1 SWAP1 PUSH1 0x4 SWAP1 PUSH1 0xFF AND PUSH1 0x1F DUP2 LT PUSH2 0xBC0 JUMPI INVALID JUMPDEST PUSH1 0x10 SWAP2 DUP3 DUP3 DIV ADD SWAP2 SWAP1 MOD PUSH1 0x2 MUL SWAP1 SLOAD SWAP1 PUSH2 0x100 EXP SWAP1 DIV PUSH2 0xFFFF AND SUB PUSH2 0xFFFF AND MUL PUSH4 0x3B9ACA00 MUL SWAP1 POP PUSH1 0x1 PUSH1 0x8 DUP5 PUSH1 0x0 ADD MLOAD PUSH1 0xFF AND PUSH1 0x1F DUP2 LT PUSH2 0xBFE JUMPI INVALID JUMPDEST ADD SLOAD SUB ADD SWAP3 POP POP POP JUMPDEST SWAP2 SWAP1 POP JUMP JUMPDEST PUSH1 0x0 SLOAD PUSH1 0x1 PUSH1 0x1 PUSH1 0xA0 SHL SUB AND CALLER EQ PUSH2 0xC64 JUMPI PUSH1 0x40 DUP1 MLOAD PUSH3 0x461BCD PUSH1 0xE5 SHL DUP2 MSTORE PUSH1 0x20 PUSH1 0x4 DUP3 ADD MSTORE PUSH1 0x16 PUSH1 0x24 DUP3 ADD MSTORE PUSH22 0x27B7363C9031B0B63630B1363290313C9037BBB732B9 PUSH1 0x51 SHL PUSH1 0x44 DUP3 ADD MSTORE SWAP1 MLOAD SWAP1 DUP2 SWAP1 SUB PUSH1 0x64 ADD SWAP1 REVERT JUMPDEST PUSH1 0x2C SLOAD PUSH1 0x1 PUSH1 0x1 PUSH1 0xA0 SHL SUB PUSH1 0x1 PUSH1 0x40 SHL SWAP1 SWAP2 DIV DUP2 AND SWAP1 DUP3 AND DUP2 EQ PUSH2 0xCF0 JUMPI PUSH1 0x2C DUP1 SLOAD PUSH32 0xFFFFFFFF0000000000000000000000000000000000000000FFFFFFFFFFFFFFFF AND PUSH1 0x1 PUSH1 0x40 SHL PUSH1 0x1 PUSH1 0x1 PUSH1 0xA0 SHL SUB DUP6 DUP2 AND SWAP2 DUP3 MUL SWAP3 SWAP1 SWAP3 OR SWAP1 SWAP3 SSTORE PUSH1 0x40 MLOAD SWAP1 DUP4 AND SWAP1 PUSH32 0xCFAC5DC75B8D9A7E074162F59D9ADCD33DA59F0FE8DFB21580DB298FC0FDAD0D SWAP1 PUSH1 0x0 SWAP1 LOG3 JUMPDEST POP POP JUMP JUMPDEST PUSH32 0x0 DUP2 JUMP JUMPDEST PUSH32 0x0 DUP2 JUMP JUMPDEST PUSH1 0x40 DUP1 MLOAD PUSH1 0xA0 DUP2 ADD DUP3 MSTORE PUSH1 0x2 SLOAD PUSH4 0xFFFFFFFF DUP1 DUP3 AND DUP1 DUP5 MSTORE PUSH5 0x100000000 DUP4 DIV DUP3 AND PUSH1 0x20 DUP6 ADD DUP2 SWAP1 MSTORE PUSH1 0x1 PUSH1 0x40 SHL DUP5 DIV DUP4 AND SWAP6 DUP6 ADD DUP7 SWAP1 MSTORE PUSH1 0x1 PUSH1 0x60 SHL DUP5 DIV DUP4 AND PUSH1 0x60 DUP7 ADD DUP2 SWAP1 MSTORE PUSH1 0x1 PUSH1 0x80 SHL SWAP1 SWAP5 DIV SWAP1 SWAP3 AND PUSH1 0x80 SWAP1 SWAP5 ADD DUP5 SWAP1 MSTORE SWAP5 SWAP1 SWAP4 SWAP3 SWAP1 JUMP JUMPDEST PUSH32 0x0 DUP2 JUMP JUMPDEST PUSH1 0x2C SLOAD PUSH1 0x1 PUSH1 0x40 SHL SWAP1 DIV PUSH1 0x1 PUSH1 0x1 PUSH1 0xA0 SHL SUB AND SWAP1 JUMP JUMPDEST PUSH1 0x2A SLOAD PUSH1 0x1 PUSH1 0xB0 SHL SWAP1 DIV PUSH4 0xFFFFFFFF AND PUSH1 0x0 SWAP1 DUP2 MSTORE PUSH1 0x2B PUSH1 0x20 MSTORE PUSH1 0x40 SWAP1 KECCAK256 SLOAD PUSH1 0x17 SWAP1 DUP2 SIGNEXTEND SWAP1 SIGNEXTEND SWAP1 JUMP JUMPDEST PUSH1 0x4 DUP2 JUMP JUMPDEST DUP7 DUP6 PUSH1 0xFF DUP7 AND PUSH1 0x1F DUP4 GT ISZERO PUSH2 0xE62 JUMPI PUSH1 0x40 DUP1 MLOAD PUSH3 0x461BCD PUSH1 0xE5 SHL DUP2 MSTORE PUSH1 0x20 PUSH1 0x4 DUP3 ADD MSTORE PUSH1 0x10 PUSH1 0x24 DUP3 ADD MSTORE PUSH32 0x746F6F206D616E79207369676E65727300000000000000000000000000000000 PUSH1 0x44 DUP3 ADD MSTORE SWAP1 MLOAD SWAP1 DUP2 SWAP1 SUB PUSH1 0x64 ADD SWAP1 REVERT JUMPDEST PUSH1 0x0 DUP2 GT PUSH2 0xEB7 JUMPI PUSH1 0x40 DUP1 MLOAD PUSH3 0x461BCD PUSH1 0xE5 SHL DUP2 MSTORE PUSH1 0x20 PUSH1 0x4 DUP3 ADD MSTORE PUSH1 0x1A PUSH1 0x24 DUP3 ADD MSTORE PUSH32 0x7468726573686F6C64206D75737420626520706F736974697665000000000000 PUSH1 0x44 DUP3 ADD MSTORE SWAP1 MLOAD SWAP1 DUP2 SWAP1 SUB PUSH1 0x64 ADD SWAP1 REVERT JUMPDEST DUP2 DUP4 EQ PUSH2 0xEF5 JUMPI PUSH1 0x40 MLOAD PUSH3 0x461BCD PUSH1 0xE5 SHL DUP2 MSTORE PUSH1 0x4 ADD DUP1 DUP1 PUSH1 0x20 ADD DUP3 DUP2 SUB DUP3 MSTORE PUSH1 0x24 DUP2 MSTORE PUSH1 0x20 ADD DUP1 PUSH2 0x4736 PUSH1 0x24 SWAP2 CODECOPY PUSH1 0x40 ADD SWAP2 POP POP PUSH1 0x40 MLOAD DUP1 SWAP2 SUB SWAP1 REVERT JUMPDEST DUP1 PUSH1 0x3 MUL DUP4 GT PUSH2 0xF4C JUMPI PUSH1 0x40 DUP1 MLOAD PUSH3 0x461BCD PUSH1 0xE5 SHL DUP2 MSTORE PUSH1 0x20 PUSH1 0x4 DUP3 ADD DUP2 SWAP1 MSTORE PUSH1 0x24 DUP3 ADD MSTORE PUSH32 0x6661756C74792D6F7261636C65207468726573686F6C6420746F6F2068696768 PUSH1 0x44 DUP3 ADD MSTORE SWAP1 MLOAD SWAP1 DUP2 SWAP1 SUB PUSH1 0x64 ADD SWAP1 REVERT JUMPDEST PUSH1 0x0 SLOAD PUSH1 0x1 PUSH1 0x1 PUSH1 0xA0 SHL SUB AND CALLER EQ PUSH2 0xFA4 JUMPI PUSH1 0x40 DUP1 MLOAD PUSH3 0x461BCD PUSH1 0xE5 SHL DUP2 MSTORE PUSH1 0x20 PUSH1 0x4 DUP3 ADD MSTORE PUSH1 0x16 PUSH1 0x24 DUP3 ADD MSTORE PUSH22 0x27B7363C9031B0B63630B1363290313C9037BBB732B9 PUSH1 0x51 SHL PUSH1 0x44 DUP3 ADD MSTORE SWAP1 MLOAD SWAP1 DUP2 SWAP1 SUB PUSH1 0x64 ADD SWAP1 REVERT JUMPDEST PUSH1 0x28 SLOAD ISZERO PUSH2 0x10A1 JUMPI PUSH1 0x28 DUP1 SLOAD PUSH1 0x0 NOT DUP2 ADD SWAP2 PUSH1 0x0 SWAP2 DUP4 SWAP1 DUP2 LT PUSH2 0xFC3 JUMPI INVALID JUMPDEST PUSH1 0x0 SWAP2 DUP3 MSTORE PUSH1 0x20 DUP3 KECCAK256 ADD SLOAD PUSH1 0x29 DUP1 SLOAD PUSH1 0x1 PUSH1 0x1 PUSH1 0xA0 SHL SUB SWAP1 SWAP3 AND SWAP4 POP SWAP1 DUP5 SWAP1 DUP2 LT PUSH2 0xFEA JUMPI INVALID JUMPDEST PUSH1 0x0 SWAP2 DUP3 MSTORE PUSH1 0x20 SWAP1 SWAP2 KECCAK256 ADD SLOAD PUSH1 0x1 PUSH1 0x1 PUSH1 0xA0 SHL SUB AND SWAP1 POP PUSH2 0x100A DUP2 PUSH2 0x372B JUMP JUMPDEST PUSH1 0x1 PUSH1 0x1 PUSH1 0xA0 SHL SUB DUP1 DUP4 AND PUSH1 0x0 SWAP1 DUP2 MSTORE PUSH1 0x27 PUSH1 0x20 MSTORE PUSH1 0x40 DUP1 DUP3 KECCAK256 DUP1 SLOAD PUSH2 0xFFFF NOT SWAP1 DUP2 AND SWAP1 SWAP2 SSTORE SWAP3 DUP5 AND DUP3 MSTORE SWAP1 KECCAK256 DUP1 SLOAD SWAP1 SWAP2 AND SWAP1 SSTORE PUSH1 0x28 DUP1 SLOAD DUP1 PUSH2 0x1049 JUMPI INVALID JUMPDEST PUSH1 0x0 DUP3 DUP2 MSTORE PUSH1 0x20 SWAP1 KECCAK256 DUP2 ADD PUSH1 0x0 NOT SWAP1 DUP2 ADD DUP1 SLOAD PUSH1 0x1 PUSH1 0x1 PUSH1 0xA0 SHL SUB NOT AND SWAP1 SSTORE ADD SWAP1 SSTORE PUSH1 0x29 DUP1 SLOAD DUP1 PUSH2 0x1076 JUMPI INVALID JUMPDEST PUSH1 0x0 DUP3 DUP2 MSTORE PUSH1 0x20 SWAP1 KECCAK256 DUP2 ADD PUSH1 0x0 NOT SWAP1 DUP2 ADD DUP1 SLOAD PUSH1 0x1 PUSH1 0x1 PUSH1 0xA0 SHL SUB NOT AND SWAP1 SSTORE ADD SWAP1 SSTORE POP PUSH2 0xFA4 SWAP2 POP POP JUMP JUMPDEST PUSH1 0x0 JUMPDEST DUP11 DUP2 LT ISZERO PUSH2 0x1409 JUMPI PUSH1 0x0 PUSH1 0x27 PUSH1 0x0 DUP15 DUP15 DUP6 DUP2 DUP2 LT PUSH2 0x10BE JUMPI INVALID JUMPDEST PUSH1 0x20 SWAP1 DUP2 MUL SWAP3 SWAP1 SWAP3 ADD CALLDATALOAD PUSH1 0x1 PUSH1 0x1 PUSH1 0xA0 SHL SUB AND DUP4 MSTORE POP DUP2 ADD SWAP2 SWAP1 SWAP2 MSTORE PUSH1 0x40 ADD PUSH1 0x0 KECCAK256 SLOAD PUSH2 0x100 SWAP1 DIV PUSH1 0xFF AND PUSH1 0x2 DUP2 GT ISZERO PUSH2 0x10F4 JUMPI INVALID JUMPDEST EQ PUSH2 0x1146 JUMPI PUSH1 0x40 DUP1 MLOAD PUSH3 0x461BCD PUSH1 0xE5 SHL DUP2 MSTORE PUSH1 0x20 PUSH1 0x4 DUP3 ADD MSTORE PUSH1 0x17 PUSH1 0x24 DUP3 ADD MSTORE PUSH32 0x7265706561746564207369676E65722061646472657373000000000000000000 PUSH1 0x44 DUP3 ADD MSTORE SWAP1 MLOAD SWAP1 DUP2 SWAP1 SUB PUSH1 0x64 ADD SWAP1 REVERT JUMPDEST PUSH1 0x40 DUP1 MLOAD DUP1 DUP3 ADD SWAP1 SWAP2 MSTORE PUSH1 0xFF DUP3 AND DUP2 MSTORE PUSH1 0x1 PUSH1 0x20 DUP3 ADD MSTORE PUSH1 0x27 PUSH1 0x0 DUP15 DUP15 DUP6 DUP2 DUP2 LT PUSH2 0x116D JUMPI INVALID JUMPDEST PUSH1 0x20 SWAP1 DUP2 MUL SWAP3 SWAP1 SWAP3 ADD CALLDATALOAD PUSH1 0x1 PUSH1 0x1 PUSH1 0xA0 SHL SUB AND DUP4 MSTORE POP DUP2 DUP2 ADD SWAP3 SWAP1 SWAP3 MSTORE PUSH1 0x40 ADD PUSH1 0x0 KECCAK256 DUP3 MLOAD DUP2 SLOAD PUSH1 0xFF NOT AND PUSH1 0xFF SWAP1 SWAP2 AND OR DUP1 DUP3 SSTORE SWAP2 DUP4 ADD MLOAD SWAP1 SWAP2 DUP3 SWAP1 PUSH2 0xFF00 NOT AND PUSH2 0x100 DUP4 PUSH1 0x2 DUP2 GT ISZERO PUSH2 0x11BD JUMPI INVALID JUMPDEST MUL OR SWAP1 SSTORE POP PUSH1 0x0 SWAP2 POP PUSH1 0x6 SWAP1 POP DUP2 DUP13 DUP13 DUP6 DUP2 DUP2 LT PUSH2 0x11D7 JUMPI INVALID JUMPDEST PUSH1 0x1 PUSH1 0x1 PUSH1 0xA0 SHL SUB PUSH1 0x20 SWAP2 DUP3 MUL SWAP4 SWAP1 SWAP4 ADD CALLDATALOAD DUP4 AND DUP5 MSTORE DUP4 ADD SWAP4 SWAP1 SWAP4 MSTORE PUSH1 0x40 SWAP1 SWAP2 ADD PUSH1 0x0 KECCAK256 SLOAD AND SWAP2 SWAP1 SWAP2 EQ ISZERO SWAP1 POP PUSH2 0x1255 JUMPI PUSH1 0x40 DUP1 MLOAD PUSH3 0x461BCD PUSH1 0xE5 SHL DUP2 MSTORE PUSH1 0x20 PUSH1 0x4 DUP3 ADD MSTORE PUSH1 0x11 PUSH1 0x24 DUP3 ADD MSTORE PUSH32 0x7061796565206D75737420626520736574000000000000000000000000000000 PUSH1 0x44 DUP3 ADD MSTORE SWAP1 MLOAD SWAP1 DUP2 SWAP1 SUB PUSH1 0x64 ADD SWAP1 REVERT JUMPDEST PUSH1 0x0 PUSH1 0x27 PUSH1 0x0 DUP13 DUP13 DUP6 DUP2 DUP2 LT PUSH2 0x1267 JUMPI INVALID JUMPDEST PUSH1 0x20 SWAP1 DUP2 MUL SWAP3 SWAP1 SWAP3 ADD CALLDATALOAD PUSH1 0x1 PUSH1 0x1 PUSH1 0xA0 SHL SUB AND DUP4 MSTORE POP DUP2 ADD SWAP2 SWAP1 SWAP2 MSTORE PUSH1 0x40 ADD PUSH1 0x0 KECCAK256 SLOAD PUSH2 0x100 SWAP1 DIV PUSH1 0xFF AND PUSH1 0x2 DUP2 GT ISZERO PUSH2 0x129D JUMPI INVALID JUMPDEST EQ PUSH2 0x12EF JUMPI PUSH1 0x40 DUP1 MLOAD PUSH3 0x461BCD PUSH1 0xE5 SHL DUP2 MSTORE PUSH1 0x20 PUSH1 0x4 DUP3 ADD MSTORE PUSH1 0x1C PUSH1 0x24 DUP3 ADD MSTORE PUSH32 0x7265706561746564207472616E736D6974746572206164647265737300000000 PUSH1 0x44 DUP3 ADD MSTORE SWAP1 MLOAD SWAP1 DUP2 SWAP1 SUB PUSH1 0x64 ADD SWAP1 REVERT JUMPDEST PUSH1 0x40 DUP1 MLOAD DUP1 DUP3 ADD SWAP1 SWAP2 MSTORE PUSH1 0xFF DUP3 AND DUP2 MSTORE PUSH1 0x2 PUSH1 0x20 DUP3 ADD MSTORE PUSH1 0x27 PUSH1 0x0 DUP13 DUP13 DUP6 DUP2 DUP2 LT PUSH2 0x1316 JUMPI INVALID JUMPDEST PUSH1 0x20 SWAP1 DUP2 MUL SWAP3 SWAP1 SWAP3 ADD CALLDATALOAD PUSH1 0x1 PUSH1 0x1 PUSH1 0xA0 SHL SUB AND DUP4 MSTORE POP DUP2 DUP2 ADD SWAP3 SWAP1 SWAP3 MSTORE PUSH1 0x40 ADD PUSH1 0x0 KECCAK256 DUP3 MLOAD DUP2 SLOAD PUSH1 0xFF NOT AND PUSH1 0xFF SWAP1 SWAP2 AND OR DUP1 DUP3 SSTORE SWAP2 DUP4 ADD MLOAD SWAP1 SWAP2 DUP3 SWAP1 PUSH2 0xFF00 NOT AND PUSH2 0x100 DUP4 PUSH1 0x2 DUP2 GT ISZERO PUSH2 0x1366 JUMPI INVALID JUMPDEST MUL OR SWAP1 SSTORE POP SWAP1 POP POP PUSH1 0x28 DUP13 DUP13 DUP4 DUP2 DUP2 LT PUSH2 0x137C JUMPI INVALID JUMPDEST DUP4 SLOAD PUSH1 0x1 DUP2 ADD DUP6 SSTORE PUSH1 0x0 SWAP5 DUP6 MSTORE PUSH1 0x20 SWAP5 DUP6 SWAP1 KECCAK256 ADD DUP1 SLOAD PUSH1 0x1 PUSH1 0x1 PUSH1 0xA0 SHL SUB NOT AND PUSH1 0x1 PUSH1 0x1 PUSH1 0xA0 SHL SUB SWAP6 SWAP1 SWAP3 MUL SWAP4 SWAP1 SWAP4 ADD CALLDATALOAD SWAP4 SWAP1 SWAP4 AND SWAP3 SWAP1 SWAP3 OR SWAP1 SSTORE POP PUSH1 0x29 DUP11 DUP11 DUP4 DUP2 DUP2 LT PUSH2 0x13C6 JUMPI INVALID JUMPDEST DUP4 SLOAD PUSH1 0x1 DUP2 DUP2 ADD DUP7 SSTORE PUSH1 0x0 SWAP6 DUP7 MSTORE PUSH1 0x20 SWAP6 DUP7 SWAP1 KECCAK256 SWAP1 SWAP2 ADD DUP1 SLOAD PUSH1 0x1 PUSH1 0x1 PUSH1 0xA0 SHL SUB NOT AND PUSH1 0x1 PUSH1 0x1 PUSH1 0xA0 SHL SUB SWAP7 SWAP1 SWAP4 MUL SWAP5 SWAP1 SWAP5 ADD CALLDATALOAD SWAP5 SWAP1 SWAP5 AND OR SWAP1 SWAP2 SSTORE POP ADD PUSH2 0x10A4 JUMP JUMPDEST POP PUSH1 0x2A DUP1 SLOAD PUSH1 0xFF DUP10 AND PUSH1 0x1 PUSH1 0xA8 SHL MUL PUSH1 0xFF PUSH1 0xA8 SHL NOT SWAP1 SWAP2 AND OR SWAP1 SSTORE PUSH1 0x2C DUP1 SLOAD NUMBER PUSH4 0xFFFFFFFF SWAP1 DUP2 AND PUSH5 0x100000000 SWAP1 DUP2 MUL PUSH8 0xFFFFFFFF00000000 NOT DUP5 AND OR DUP1 DUP4 AND PUSH1 0x1 ADD DUP4 AND PUSH4 0xFFFFFFFF NOT SWAP1 SWAP2 AND OR SWAP4 DUP5 SWAP1 SSTORE SWAP1 SWAP2 DIV DUP2 AND SWAP2 AND PUSH2 0x1476 ADDRESS DUP3 DUP16 DUP16 DUP16 DUP16 DUP16 DUP16 DUP16 DUP16 PUSH2 0x394A JUMP JUMPDEST PUSH1 0x2A PUSH1 0x0 ADD PUSH1 0x0 PUSH2 0x100 EXP DUP2 SLOAD DUP2 PUSH16 0xFFFFFFFFFFFFFFFFFFFFFFFFFFFFFFFF MUL NOT AND SWAP1 DUP4 PUSH1 0x80 SHR MUL OR SWAP1 SSTORE POP PUSH1 0x0 PUSH1 0x2A PUSH1 0x0 ADD PUSH1 0x10 PUSH2 0x100 EXP DUP2 SLOAD DUP2 PUSH5 0xFFFFFFFFFF MUL NOT AND SWAP1 DUP4 PUSH5 0xFFFFFFFFFF AND MUL OR SWAP1 SSTORE POP PUSH32 0x25D719D88A4512DD76C7442B910A83360845505894EB444EF299409E180F8FB9 DUP3 DUP3 DUP16 DUP16 DUP16 DUP16 DUP16 DUP16 DUP16 DUP16 PUSH1 0x40 MLOAD DUP1 DUP12 PUSH4 0xFFFFFFFF AND DUP2 MSTORE PUSH1 0x20 ADD DUP11 PUSH8 0xFFFFFFFFFFFFFFFF AND DUP2 MSTORE PUSH1 0x20 ADD DUP1 PUSH1 0x20 ADD DUP1 PUSH1 0x20 ADD DUP8 PUSH1 0xFF AND DUP2 MSTORE PUSH1 0x20 ADD DUP7 PUSH8 0xFFFFFFFFFFFFFFFF AND DUP2 MSTORE PUSH1 0x20 ADD DUP1 PUSH1 0x20 ADD DUP5 DUP2 SUB DUP5 MSTORE DUP13 DUP13 DUP3 DUP2 DUP2 MSTORE PUSH1 0x20 ADD SWAP3 POP PUSH1 0x20 MUL DUP1 DUP3 DUP5 CALLDATACOPY PUSH1 0x0 DUP4 DUP3 ADD MSTORE PUSH1 0x1F ADD PUSH1 0x1F NOT AND SWAP1 SWAP2 ADD DUP6 DUP2 SUB DUP5 MSTORE DUP11 DUP2 MSTORE PUSH1 0x20 SWAP1 DUP2 ADD SWAP2 POP DUP12 SWAP1 DUP12 MUL DUP1 DUP3 DUP5 CALLDATACOPY PUSH1 0x0 DUP4 DUP3 ADD MSTORE PUSH1 0x1F ADD PUSH1 0x1F NOT AND SWAP1 SWAP2 ADD DUP6 DUP2 SUB DUP4 MSTORE DUP7 DUP2 MSTORE PUSH1 0x20 ADD SWAP1 POP DUP7 DUP7 DUP1 DUP3 DUP5 CALLDATACOPY PUSH1 0x0 DUP4 DUP3 ADD MSTORE PUSH1 0x40 MLOAD PUSH1 0x1F SWAP1 SWAP2 ADD PUSH1 0x1F NOT AND SWAP1 SWAP3 ADD DUP3 SWAP1 SUB SWAP16 POP SWAP1 SWAP14 POP POP POP POP POP POP POP POP POP POP POP POP POP POP LOG1 POP POP POP POP POP POP POP POP POP POP POP POP POP JUMP JUMPDEST PUSH1 0x2A SLOAD PUSH1 0x1 PUSH1 0xB0 SHL SWAP1 DIV PUSH4 0xFFFFFFFF AND SWAP1 JUMP JUMPDEST PUSH32 0x0 DUP2 JUMP JUMPDEST PUSH1 0x2D SLOAD PUSH1 0x1 PUSH1 0x1 PUSH1 0xA0 SHL SUB AND SWAP1 JUMP JUMPDEST PUSH1 0x2E DUP1 SLOAD PUSH1 0x40 DUP1 MLOAD PUSH1 0x20 PUSH1 0x1F PUSH1 0x2 PUSH1 0x0 NOT PUSH2 0x100 PUSH1 0x1 DUP9 AND ISZERO MUL ADD SWAP1 SWAP6 AND SWAP5 SWAP1 SWAP5 DIV SWAP4 DUP5 ADD DUP2 SWAP1 DIV DUP2 MUL DUP3 ADD DUP2 ADD SWAP1 SWAP3 MSTORE DUP3 DUP2 MSTORE PUSH1 0x60 SWAP4 SWAP1 SWAP3 SWAP1 SWAP2 DUP4 ADD DUP3 DUP3 DUP1 ISZERO PUSH2 0x16A6 JUMPI DUP1 PUSH1 0x1F LT PUSH2 0x167B JUMPI PUSH2 0x100 DUP1 DUP4 SLOAD DIV MUL DUP4 MSTORE SWAP2 PUSH1 0x20 ADD SWAP2 PUSH2 0x16A6 JUMP JUMPDEST DUP3 ADD SWAP2 SWAP1 PUSH1 0x0 MSTORE PUSH1 0x20 PUSH1 0x0 KECCAK256 SWAP1 JUMPDEST DUP2 SLOAD DUP2 MSTORE SWAP1 PUSH1 0x1 ADD SWAP1 PUSH1 0x20 ADD DUP1 DUP4 GT PUSH2 0x1689 JUMPI DUP3 SWAP1 SUB PUSH1 0x1F AND DUP3 ADD SWAP2 JUMPDEST POP POP POP POP POP SWAP1 POP SWAP1 JUMP JUMPDEST PUSH1 0x1 SLOAD PUSH1 0x1 PUSH1 0x1 PUSH1 0xA0 SHL SUB AND CALLER EQ PUSH2 0x170F JUMPI PUSH1 0x40 DUP1 MLOAD PUSH3 0x461BCD PUSH1 0xE5 SHL DUP2 MSTORE PUSH1 0x20 PUSH1 0x4 DUP3 ADD MSTORE PUSH1 0x16 PUSH1 0x24 DUP3 ADD MSTORE PUSH32 0x4D7573742062652070726F706F736564206F776E657200000000000000000000 PUSH1 0x44 DUP3 ADD MSTORE SWAP1 MLOAD SWAP1 DUP2 SWAP1 SUB PUSH1 0x64 ADD SWAP1 REVERT JUMPDEST PUSH1 0x0 DUP1 SLOAD CALLER PUSH1 0x1 PUSH1 0x1 PUSH1 0xA0 SHL SUB NOT DUP1 DUP4 AND DUP3 OR DUP5 SSTORE PUSH1 0x1 DUP1 SLOAD SWAP1 SWAP2 AND SWAP1 SSTORE PUSH1 0x40 MLOAD PUSH1 0x1 PUSH1 0x1 PUSH1 0xA0 SHL SUB SWAP1 SWAP3 AND SWAP3 SWAP1 SWAP2 DUP4 SWAP2 PUSH32 0x8BE0079C531659141344CD1FD0A4F28419497F9722A3DAAFE3B4186F6B6457E0 SWAP2 LOG3 POP JUMP JUMPDEST PUSH1 0x60 PUSH1 0x29 DUP1 SLOAD DUP1 PUSH1 0x20 MUL PUSH1 0x20 ADD PUSH1 0x40 MLOAD SWAP1 DUP2 ADD PUSH1 0x40 MSTORE DUP1 SWAP3 SWAP2 SWAP1 DUP2 DUP2 MSTORE PUSH1 0x20 ADD DUP3 DUP1 SLOAD DUP1 ISZERO PUSH2 0x16A6 JUMPI PUSH1 0x20 MUL DUP3 ADD SWAP2 SWAP1 PUSH1 0x0 MSTORE PUSH1 0x20 PUSH1 0x0 KECCAK256 SWAP1 JUMPDEST DUP2 SLOAD PUSH1 0x1 PUSH1 0x1 PUSH1 0xA0 SHL SUB AND DUP2 MSTORE PUSH1 0x1 SWAP1 SWAP2 ADD SWAP1 PUSH1 0x20 ADD DUP1 DUP4 GT PUSH2 0x17A0 JUMPI POP POP POP POP POP SWAP1 POP SWAP1 JUMP JUMPDEST PUSH1 0x2C SLOAD PUSH1 0x2A SLOAD PUSH4 0xFFFFFFFF DUP1 DUP4 AND SWAP3 PUSH5 0x100000000 SWAP1 DIV AND SWAP1 PUSH1 0x80 SHL SWAP1 SWAP2 SWAP3 JUMP JUMPDEST PUSH1 0x2A SLOAD PUSH1 0x1 PUSH1 0xB0 SHL SWAP1 DIV PUSH4 0xFFFFFFFF AND PUSH1 0x0 SWAP1 DUP2 MSTORE PUSH1 0x2B PUSH1 0x20 MSTORE PUSH1 0x40 SWAP1 KECCAK256 SLOAD PUSH1 0x1 PUSH1 0xC0 SHL SWAP1 DIV PUSH8 0xFFFFFFFFFFFFFFFF AND SWAP1 JUMP JUMPDEST PUSH1 0x1 PUSH1 0x1 PUSH1 0xA0 SHL SUB DUP2 DUP2 AND PUSH1 0x0 SWAP1 DUP2 MSTORE PUSH1 0x6 PUSH1 0x20 MSTORE PUSH1 0x40 SWAP1 KECCAK256 SLOAD AND CALLER EQ PUSH2 0x1889 JUMPI PUSH1 0x40 DUP1 MLOAD PUSH3 0x461BCD PUSH1 0xE5 SHL DUP2 MSTORE PUSH1 0x20 PUSH1 0x4 DUP3 ADD MSTORE PUSH1 0x17 PUSH1 0x24 DUP3 ADD MSTORE PUSH32 0x4F6E6C792070617965652063616E207769746864726177000000000000000000 PUSH1 0x44 DUP3 ADD MSTORE SWAP1 MLOAD SWAP1 DUP2 SWAP1 SUB PUSH1 0x64 ADD SWAP1 REVERT JUMPDEST PUSH2 0x1892 DUP2 PUSH2 0x372B JUMP JUMPDEST POP JUMP JUMPDEST PUSH1 0x0 SLOAD PUSH1 0x1 PUSH1 0x1 PUSH1 0xA0 SHL SUB AND DUP2 JUMP JUMPDEST PUSH1 0x0 DUP1 SLOAD PUSH1 0x1 PUSH1 0x1 PUSH1 0xA0 SHL SUB AND CALLER EQ DUP1 PUSH2 0x1967 JUMPI POP PUSH1 0x2D SLOAD PUSH1 0x40 DUP1 MLOAD PUSH4 0xD629B5F PUSH1 0xE3 SHL DUP2 MSTORE CALLER PUSH1 0x4 DUP3 ADD DUP2 DUP2 MSTORE PUSH1 0x24 DUP4 ADD SWAP4 DUP5 MSTORE CALLDATASIZE PUSH1 0x44 DUP5 ADD DUP2 SWAP1 MSTORE PUSH1 0x1 PUSH1 0x1 PUSH1 0xA0 SHL SUB SWAP1 SWAP6 AND SWAP5 PUSH4 0x6B14DAF8 SWAP5 SWAP3 SWAP4 PUSH1 0x0 SWAP4 SWAP2 SWAP3 SWAP2 SWAP1 PUSH1 0x64 ADD DUP5 DUP5 DUP1 DUP3 DUP5 CALLDATACOPY PUSH1 0x0 DUP4 DUP3 ADD MSTORE PUSH1 0x40 MLOAD PUSH1 0x1F SWAP1 SWAP2 ADD PUSH1 0x1F NOT AND SWAP1 SWAP3 ADD SWAP7 POP PUSH1 0x20 SWAP6 POP SWAP1 SWAP4 POP POP POP DUP2 DUP5 SUB SWAP1 POP DUP2 DUP7 DUP1 EXTCODESIZE ISZERO DUP1 ISZERO PUSH2 0x193A JUMPI PUSH1 0x0 DUP1 REVERT JUMPDEST POP GAS STATICCALL ISZERO DUP1 ISZERO PUSH2 0x194E JUMPI RETURNDATASIZE PUSH1 0x0 DUP1 RETURNDATACOPY RETURNDATASIZE PUSH1 0x0 REVERT JUMPDEST POP POP POP POP PUSH1 0x40 MLOAD RETURNDATASIZE PUSH1 0x20 DUP2 LT ISZERO PUSH2 0x1964 JUMPI PUSH1 0x0 DUP1 REVERT JUMPDEST POP MLOAD JUMPDEST PUSH2 0x19B8 JUMPI PUSH1 0x40 DUP1 MLOAD PUSH3 0x461BCD PUSH1 0xE5 SHL DUP2 MSTORE PUSH1 0x20 PUSH1 0x4 DUP3 ADD MSTORE PUSH1 0x1D PUSH1 0x24 DUP3 ADD MSTORE PUSH32 0x4F6E6C79206F776E6572267265717565737465722063616E2063616C6C000000 PUSH1 0x44 DUP3 ADD MSTORE SWAP1 MLOAD SWAP1 DUP2 SWAP1 SUB PUSH1 0x64 ADD SWAP1 REVERT JUMPDEST PUSH1 0x40 DUP1 MLOAD PUSH1 0x80 DUP1 DUP3 ADD DUP4 MSTORE PUSH1 0x2A SLOAD SWAP1 DUP2 SWAP1 SHL PUSH16 0xFFFFFFFFFFFFFFFFFFFFFFFFFFFFFFFF NOT AND DUP1 DUP4 MSTORE PUSH1 0x1 PUSH1 0x80 SHL DUP3 DIV PUSH5 0xFFFFFFFFFF DUP2 AND PUSH1 0x20 DUP1 DUP7 ADD SWAP2 SWAP1 SWAP2 MSTORE PUSH1 0x1 PUSH1 0xA8 SHL DUP5 DIV PUSH1 0xFF SWAP1 DUP2 AND DUP7 DUP9 ADD MSTORE PUSH1 0x1 PUSH1 0xB0 SHL SWAP1 SWAP5 DIV PUSH4 0xFFFFFFFF SWAP1 DUP2 AND PUSH1 0x60 DUP1 DUP9 ADD SWAP2 SWAP1 SWAP2 MSTORE DUP8 MLOAD SWAP5 DUP6 MSTORE PUSH1 0x8 DUP5 SWAP1 SHR SWAP1 SWAP2 AND SWAP2 DUP5 ADD SWAP2 SWAP1 SWAP2 MSTORE SWAP3 AND DUP2 DUP6 ADD MSTORE SWAP3 MLOAD SWAP2 SWAP3 CALLER SWAP3 PUSH32 0x3EA16A923FF4B1DF6526E854C9E3A995C43385D70E73359E10623C74F0B52037 SWAP3 SWAP2 DUP2 SWAP1 SUB SWAP1 SWAP2 ADD SWAP1 LOG2 DUP1 PUSH1 0x60 ADD MLOAD PUSH1 0x1 ADD PUSH4 0xFFFFFFFF AND SWAP2 POP POP SWAP1 JUMP JUMPDEST PUSH1 0x3 SLOAD PUSH1 0x1 PUSH1 0x1 PUSH1 0xA0 SHL SUB AND SWAP1 JUMP JUMPDEST PUSH1 0x0 DUP1 PUSH1 0x0 DUP1 PUSH1 0x0 PUSH4 0xFFFFFFFF DUP7 PUSH10 0xFFFFFFFFFFFFFFFFFFFF AND GT ISZERO PUSH1 0x40 MLOAD DUP1 PUSH1 0x40 ADD PUSH1 0x40 MSTORE DUP1 PUSH1 0xF DUP2 MSTORE PUSH1 0x20 ADD PUSH32 0x4E6F20646174612070726573656E740000000000000000000000000000000000 DUP2 MSTORE POP SWAP1 PUSH2 0x1B6A JUMPI PUSH1 0x40 MLOAD PUSH3 0x461BCD PUSH1 0xE5 SHL DUP2 MSTORE PUSH1 0x4 ADD DUP1 DUP1 PUSH1 0x20 ADD DUP3 DUP2 SUB DUP3 MSTORE DUP4 DUP2 DUP2 MLOAD DUP2 MSTORE PUSH1 0x20 ADD SWAP2 POP DUP1 MLOAD SWAP1 PUSH1 0x20 ADD SWAP1 DUP1 DUP4 DUP4 PUSH1 0x0 JUMPDEST DUP4 DUP2 LT ISZERO PUSH2 0x1B2F JUMPI DUP2 DUP2 ADD MLOAD DUP4 DUP3 ADD MSTORE PUSH1 0x20 ADD PUSH2 0x1B17 JUMP JUMPDEST POP POP POP POP SWAP1 POP SWAP1 DUP2 ADD SWAP1 PUSH1 0x1F AND DUP1 ISZERO PUSH2 0x1B5C JUMPI DUP1 DUP3 SUB DUP1 MLOAD PUSH1 0x1 DUP4 PUSH1 0x20 SUB PUSH2 0x100 EXP SUB NOT AND DUP2 MSTORE PUSH1 0x20 ADD SWAP2 POP JUMPDEST POP SWAP3 POP POP POP PUSH1 0x40 MLOAD DUP1 SWAP2 SUB SWAP1 REVERT JUMPDEST POP POP POP POP PUSH4 0xFFFFFFFF DUP4 AND PUSH1 0x0 SWAP1 DUP2 MSTORE PUSH1 0x2B PUSH1 0x20 SWAP1 DUP2 MSTORE PUSH1 0x40 SWAP2 DUP3 SWAP1 KECCAK256 DUP3 MLOAD DUP1 DUP5 ADD SWAP1 SWAP4 MSTORE SLOAD PUSH1 0x17 DUP2 DUP2 SIGNEXTEND DUP2 SIGNEXTEND DUP2 SIGNEXTEND DUP1 DUP6 MSTORE PUSH1 0x1 PUSH1 0xC0 SHL SWAP1 SWAP3 DIV PUSH8 0xFFFFFFFFFFFFFFFF AND SWAP4 SWAP1 SWAP3 ADD DUP4 SWAP1 MSTORE SWAP5 SWAP6 SWAP5 SWAP1 SIGNEXTEND SWAP4 SWAP1 SWAP3 POP DUP3 SWAP2 POP DUP5 SWAP1 JUMP JUMPDEST PUSH1 0x0 SLOAD PUSH1 0x1 PUSH1 0x1 PUSH1 0xA0 SHL SUB AND CALLER EQ PUSH2 0x1C1D JUMPI PUSH1 0x40 DUP1 MLOAD PUSH3 0x461BCD PUSH1 0xE5 SHL DUP2 MSTORE PUSH1 0x20 PUSH1 0x4 DUP3 ADD MSTORE PUSH1 0x16 PUSH1 0x24 DUP3 ADD MSTORE PUSH22 0x27B7363C9031B0B63630B1363290313C9037BBB732B9 PUSH1 0x51 SHL PUSH1 0x44 DUP3 ADD MSTORE SWAP1 MLOAD SWAP1 DUP2 SWAP1 SUB PUSH1 0x64 ADD SWAP1 REVERT JUMPDEST DUP3 DUP2 EQ PUSH2 0x1C71 JUMPI PUSH1 0x40 DUP1 MLOAD PUSH3 0x461BCD PUSH1 0xE5 SHL DUP2 MSTORE PUSH1 0x20 PUSH1 0x4 DUP3 ADD DUP2 SWAP1 MSTORE PUSH1 0x24 DUP3 ADD MSTORE PUSH32 0x7472616E736D6974746572732E73697A6520213D207061796565732E73697A65 PUSH1 0x44 DUP3 ADD MSTORE SWAP1 MLOAD SWAP1 DUP2 SWAP1 SUB PUSH1 0x64 ADD SWAP1 REVERT JUMPDEST PUSH1 0x0 JUMPDEST DUP4 DUP2 LT ISZERO PUSH2 0x1DD8 JUMPI PUSH1 0x0 DUP6 DUP6 DUP4 DUP2 DUP2 LT PUSH2 0x1C8A JUMPI INVALID JUMPDEST SWAP1 POP PUSH1 0x20 MUL ADD CALLDATALOAD PUSH1 0x1 PUSH1 0x1 PUSH1 0xA0 SHL SUB AND SWAP1 POP PUSH1 0x0 DUP5 DUP5 DUP5 DUP2 DUP2 LT PUSH2 0x1CAA JUMPI INVALID JUMPDEST PUSH1 0x1 PUSH1 0x1 PUSH1 0xA0 SHL SUB DUP6 DUP2 AND PUSH1 0x0 SWAP1 DUP2 MSTORE PUSH1 0x6 PUSH1 0x20 SWAP1 DUP2 MSTORE PUSH1 0x40 SWAP1 SWAP2 KECCAK256 SLOAD SWAP3 MUL SWAP4 SWAP1 SWAP4 ADD CALLDATALOAD DUP4 AND SWAP4 POP SWAP1 SWAP2 AND SWAP1 POP DUP1 ISZERO DUP1 DUP1 PUSH2 0x1CF6 JUMPI POP DUP3 PUSH1 0x1 PUSH1 0x1 PUSH1 0xA0 SHL SUB AND DUP3 PUSH1 0x1 PUSH1 0x1 PUSH1 0xA0 SHL SUB AND EQ JUMPDEST PUSH2 0x1D47 JUMPI PUSH1 0x40 DUP1 MLOAD PUSH3 0x461BCD PUSH1 0xE5 SHL DUP2 MSTORE PUSH1 0x20 PUSH1 0x4 DUP3 ADD MSTORE PUSH1 0x11 PUSH1 0x24 DUP3 ADD MSTORE PUSH32 0x706179656520616C726561647920736574000000000000000000000000000000 PUSH1 0x44 DUP3 ADD MSTORE SWAP1 MLOAD SWAP1 DUP2 SWAP1 SUB PUSH1 0x64 ADD SWAP1 REVERT JUMPDEST PUSH1 0x1 PUSH1 0x1 PUSH1 0xA0 SHL SUB DUP5 DUP2 AND PUSH1 0x0 SWAP1 DUP2 MSTORE PUSH1 0x6 PUSH1 0x20 MSTORE PUSH1 0x40 SWAP1 KECCAK256 DUP1 SLOAD PUSH1 0x1 PUSH1 0x1 PUSH1 0xA0 SHL SUB NOT AND DUP6 DUP4 AND SWAP1 DUP2 OR SWAP1 SWAP2 SSTORE SWAP1 DUP4 AND EQ PUSH2 0x1DC8 JUMPI DUP3 PUSH1 0x1 PUSH1 0x1 PUSH1 0xA0 SHL SUB AND DUP3 PUSH1 0x1 PUSH1 0x1 PUSH1 0xA0 SHL SUB AND DUP6 PUSH1 0x1 PUSH1 0x1 PUSH1 0xA0 SHL SUB AND PUSH32 0x78AF32EFDCAD432315431E9B03D27E6CD98FB79C405FDC5AF7C1714D9C0F75B3 PUSH1 0x40 MLOAD PUSH1 0x40 MLOAD DUP1 SWAP2 SUB SWAP1 LOG4 JUMPDEST POP POP PUSH1 0x1 SWAP1 SWAP3 ADD SWAP2 POP PUSH2 0x1C74 SWAP1 POP JUMP JUMPDEST POP POP POP POP POP JUMP JUMPDEST PUSH1 0x0 SLOAD PUSH1 0x1 PUSH1 0x1 PUSH1 0xA0 SHL SUB AND CALLER EQ PUSH2 0x1E37 JUMPI PUSH1 0x40 DUP1 MLOAD PUSH3 0x461BCD PUSH1 0xE5 SHL DUP2 MSTORE PUSH1 0x20 PUSH1 0x4 DUP3 ADD MSTORE PUSH1 0x16 PUSH1 0x24 DUP3 ADD MSTORE PUSH22 0x27B7363C9031B0B63630B1363290313C9037BBB732B9 PUSH1 0x51 SHL PUSH1 0x44 DUP3 ADD MSTORE SWAP1 MLOAD SWAP1 DUP2 SWAP1 SUB PUSH1 0x64 ADD SWAP1 REVERT JUMPDEST PUSH1 0x2D SLOAD PUSH1 0x1 PUSH1 0x1 PUSH1 0xA0 SHL SUB SWAP1 DUP2 AND SWAP1 DUP3 AND DUP2 EQ PUSH2 0xCF0 JUMPI PUSH1 0x2D DUP1 SLOAD PUSH1 0x1 PUSH1 0x1 PUSH1 0xA0 SHL SUB NOT AND PUSH1 0x1 PUSH1 0x1 PUSH1 0xA0 SHL SUB DUP5 DUP2 AND SWAP2 DUP3 OR SWAP1 SWAP3 SSTORE PUSH1 0x40 DUP1 MLOAD SWAP3 DUP5 AND DUP4 MSTORE PUSH1 0x20 DUP4 ADD SWAP2 SWAP1 SWAP2 MSTORE DUP1 MLOAD PUSH32 0x27B89AEDE8B560578BAAA25EE5CE3852C5EECAD1E114B941BBD89E1EB4BAE634 SWAP3 DUP2 SWAP1 SUB SWAP1 SWAP2 ADD SWAP1 LOG1 POP POP JUMP JUMPDEST PUSH1 0x1 PUSH1 0x1 PUSH1 0xA0 SHL SUB DUP2 DUP2 AND PUSH1 0x0 SWAP1 DUP2 MSTORE PUSH1 0x7 PUSH1 0x20 MSTORE PUSH1 0x40 SWAP1 KECCAK256 SLOAD AND CALLER EQ PUSH2 0x1F1C JUMPI PUSH1 0x40 DUP1 MLOAD PUSH3 0x461BCD PUSH1 0xE5 SHL DUP2 MSTORE PUSH1 0x20 PUSH1 0x4 DUP3 ADD MSTORE PUSH1 0x1F PUSH1 0x24 DUP3 ADD MSTORE PUSH32 0x6F6E6C792070726F706F736564207061796565732063616E2061636365707400 PUSH1 0x44 DUP3 ADD MSTORE SWAP1 MLOAD SWAP1 DUP2 SWAP1 SUB PUSH1 0x64 ADD SWAP1 REVERT JUMPDEST PUSH1 0x1 PUSH1 0x1 PUSH1 0xA0 SHL SUB DUP2 DUP2 AND PUSH1 0x0 DUP2 DUP2 MSTORE PUSH1 0x6 PUSH1 0x20 SWAP1 DUP2 MSTORE PUSH1 0x40 DUP1 DUP4 KECCAK256 DUP1 SLOAD CALLER PUSH1 0x1 PUSH1 0x1 PUSH1 0xA0 SHL SUB NOT DUP1 DUP4 AND DUP3 OR SWAP1 SWAP4 SSTORE PUSH1 0x7 SWAP1 SWAP5 MSTORE DUP3 DUP6 KECCAK256 DUP1 SLOAD SWAP1 SWAP3 AND SWAP1 SWAP2 SSTORE SWAP1 MLOAD SWAP5 AND SWAP4 SWAP1 SWAP3 DUP5 SWAP3 SWAP1 SWAP2 PUSH32 0x78AF32EFDCAD432315431E9B03D27E6CD98FB79C405FDC5AF7C1714D9C0F75B3 SWAP2 SWAP1 LOG4 POP POP JUMP JUMPDEST PUSH1 0x0 PUSH4 0xFFFFFFFF DUP3 GT ISZERO PUSH2 0x1FA5 JUMPI POP PUSH1 0x0 PUSH2 0xC07 JUMP JUMPDEST POP PUSH4 0xFFFFFFFF AND PUSH1 0x0 SWAP1 DUP2 MSTORE PUSH1 0x2B PUSH1 0x20 MSTORE PUSH1 0x40 SWAP1 KECCAK256 SLOAD PUSH1 0x17 SWAP1 DUP2 SIGNEXTEND SWAP1 SIGNEXTEND SWAP1 JUMP JUMPDEST PUSH1 0x0 PUSH4 0xFFFFFFFF DUP3 GT ISZERO PUSH2 0x1FDB JUMPI POP PUSH1 0x0 PUSH2 0xC07 JUMP JUMPDEST POP PUSH4 0xFFFFFFFF AND PUSH1 0x0 SWAP1 DUP2 MSTORE PUSH1 0x2B PUSH1 0x20 MSTORE PUSH1 0x40 SWAP1 KECCAK256 SLOAD PUSH1 0x1 PUSH1 0xC0 SHL SWAP1 DIV PUSH8 0xFFFFFFFFFFFFFFFF AND SWAP1 JUMP JUMPDEST PUSH1 0x3 SLOAD PUSH1 0x0 SLOAD PUSH1 0x1 PUSH1 0x1 PUSH1 0xA0 SHL SUB SWAP2 DUP3 AND SWAP2 AND CALLER EQ DUP1 PUSH2 0x20C6 JUMPI POP PUSH1 0x40 DUP1 MLOAD PUSH4 0xD629B5F PUSH1 0xE3 SHL DUP2 MSTORE CALLER PUSH1 0x4 DUP3 ADD DUP2 DUP2 MSTORE PUSH1 0x24 DUP4 ADD SWAP4 DUP5 MSTORE CALLDATASIZE PUSH1 0x44 DUP5 ADD DUP2 SWAP1 MSTORE PUSH1 0x1 PUSH1 0x1 PUSH1 0xA0 SHL SUB DUP7 AND SWAP5 PUSH4 0x6B14DAF8 SWAP5 PUSH1 0x0 SWAP4 SWAP2 SWAP1 PUSH1 0x64 ADD DUP5 DUP5 DUP1 DUP3 DUP5 CALLDATACOPY PUSH1 0x0 DUP4 DUP3 ADD MSTORE PUSH1 0x40 MLOAD PUSH1 0x1F SWAP1 SWAP2 ADD PUSH1 0x1F NOT AND SWAP1 SWAP3 ADD SWAP7 POP PUSH1 0x20 SWAP6 POP SWAP1 SWAP4 POP POP POP DUP2 DUP5 SUB SWAP1 POP DUP2 DUP7 DUP1 EXTCODESIZE ISZERO DUP1 ISZERO PUSH2 0x2099 JUMPI PUSH1 0x0 DUP1 REVERT JUMPDEST POP GAS STATICCALL ISZERO DUP1 ISZERO PUSH2 0x20AD JUMPI RETURNDATASIZE PUSH1 0x0 DUP1 RETURNDATACOPY RETURNDATASIZE PUSH1 0x0 REVERT JUMPDEST POP POP POP POP PUSH1 0x40 MLOAD RETURNDATASIZE PUSH1 0x20 DUP2 LT ISZERO PUSH2 0x20C3 JUMPI PUSH1 0x0 DUP1 REVERT JUMPDEST POP MLOAD JUMPDEST PUSH2 0x2117 JUMPI PUSH1 0x40 DUP1 MLOAD PUSH3 0x461BCD PUSH1 0xE5 SHL DUP2 MSTORE PUSH1 0x20 PUSH1 0x4 DUP3 ADD DUP2 SWAP1 MSTORE PUSH1 0x24 DUP3 ADD MSTORE PUSH32 0x4F6E6C79206F776E65722662696C6C696E6741646D696E2063616E2063616C6C PUSH1 0x44 DUP3 ADD MSTORE SWAP1 MLOAD SWAP1 DUP2 SWAP1 SUB PUSH1 0x64 ADD SWAP1 REVERT JUMPDEST PUSH2 0x211F PUSH2 0x3A4E JUMP JUMPDEST PUSH2 0x212C DUP7 DUP7 DUP7 DUP7 DUP7 PUSH2 0x3DED JUMP JUMPDEST POP POP POP POP POP POP JUMP JUMPDEST PUSH1 0x0 SLOAD PUSH1 0x1 PUSH1 0x1 PUSH1 0xA0 SHL SUB AND CALLER EQ DUP1 PUSH2 0x21F6 JUMPI POP PUSH1 0x3 SLOAD PUSH1 0x40 DUP1 MLOAD PUSH4 0xD629B5F PUSH1 0xE3 SHL DUP2 MSTORE CALLER PUSH1 0x4 DUP3 ADD DUP2 DUP2 MSTORE PUSH1 0x24 DUP4 ADD SWAP4 DUP5 MSTORE CALLDATASIZE PUSH1 0x44 DUP5 ADD DUP2 SWAP1 MSTORE PUSH1 0x1 PUSH1 0x1 PUSH1 0xA0 SHL SUB SWAP1 SWAP6 AND SWAP5 PUSH4 0x6B14DAF8 SWAP5 SWAP3 SWAP4 PUSH1 0x0 SWAP4 SWAP2 SWAP3 SWAP2 SWAP1 PUSH1 0x64 ADD DUP5 DUP5 DUP1 DUP3 DUP5 CALLDATACOPY PUSH1 0x0 DUP4 DUP3 ADD MSTORE PUSH1 0x40 MLOAD PUSH1 0x1F SWAP1 SWAP2 ADD PUSH1 0x1F NOT AND SWAP1 SWAP3 ADD SWAP7 POP PUSH1 0x20 SWAP6 POP SWAP1 SWAP4 POP POP POP DUP2 DUP5 SUB SWAP1 POP DUP2 DUP7 DUP1 EXTCODESIZE ISZERO DUP1 ISZERO PUSH2 0x21C9 JUMPI PUSH1 0x0 DUP1 REVERT JUMPDEST POP GAS STATICCALL ISZERO DUP1 ISZERO PUSH2 0x21DD JUMPI RETURNDATASIZE PUSH1 0x0 DUP1 RETURNDATACOPY RETURNDATASIZE PUSH1 0x0 REVERT JUMPDEST POP POP POP POP PUSH1 0x40 MLOAD RETURNDATASIZE PUSH1 0x20 DUP2 LT ISZERO PUSH2 0x21F3 JUMPI PUSH1 0x0 DUP1 REVERT JUMPDEST POP MLOAD JUMPDEST PUSH2 0x2247 JUMPI PUSH1 0x40 DUP1 MLOAD PUSH3 0x461BCD PUSH1 0xE5 SHL DUP2 MSTORE PUSH1 0x20 PUSH1 0x4 DUP3 ADD DUP2 SWAP1 MSTORE PUSH1 0x24 DUP3 ADD MSTORE PUSH32 0x4F6E6C79206F776E65722662696C6C696E6741646D696E2063616E2063616C6C PUSH1 0x44 DUP3 ADD MSTORE SWAP1 MLOAD SWAP1 DUP2 SWAP1 SUB PUSH1 0x64 ADD SWAP1 REVERT JUMPDEST PUSH1 0x0 PUSH2 0x2251 PUSH2 0x3F07 JUMP JUMPDEST SWAP1 POP PUSH1 0x0 PUSH32 0x0 PUSH1 0x1 PUSH1 0x1 PUSH1 0xA0 SHL SUB AND PUSH4 0x70A08231 ADDRESS PUSH1 0x40 MLOAD DUP3 PUSH4 0xFFFFFFFF AND PUSH1 0xE0 SHL DUP2 MSTORE PUSH1 0x4 ADD DUP1 DUP3 PUSH1 0x1 PUSH1 0x1 PUSH1 0xA0 SHL SUB AND DUP2 MSTORE PUSH1 0x20 ADD SWAP2 POP POP PUSH1 0x20 PUSH1 0x40 MLOAD DUP1 DUP4 SUB DUP2 DUP7 DUP1 EXTCODESIZE ISZERO DUP1 ISZERO PUSH2 0x22C2 JUMPI PUSH1 0x0 DUP1 REVERT JUMPDEST POP GAS STATICCALL ISZERO DUP1 ISZERO PUSH2 0x22D6 JUMPI RETURNDATASIZE PUSH1 0x0 DUP1 RETURNDATACOPY RETURNDATASIZE PUSH1 0x0 REVERT JUMPDEST POP POP POP POP PUSH1 0x40 MLOAD RETURNDATASIZE PUSH1 0x20 DUP2 LT ISZERO PUSH2 0x22EC JUMPI PUSH1 0x0 DUP1 REVERT JUMPDEST POP MLOAD SWAP1 POP DUP2 DUP2 LT ISZERO PUSH2 0x2345 JUMPI PUSH1 0x40 DUP1 MLOAD PUSH3 0x461BCD PUSH1 0xE5 SHL DUP2 MSTORE PUSH1 0x20 PUSH1 0x4 DUP3 ADD MSTORE PUSH1 0x14 PUSH1 0x24 DUP3 ADD MSTORE PUSH32 0x696E73756666696369656E742062616C616E6365000000000000000000000000 PUSH1 0x44 DUP3 ADD MSTORE SWAP1 MLOAD SWAP1 DUP2 SWAP1 SUB PUSH1 0x64 ADD SWAP1 REVERT JUMPDEST PUSH32 0x0 PUSH1 0x1 PUSH1 0x1 PUSH1 0xA0 SHL SUB AND PUSH4 0xA9059CBB DUP6 PUSH2 0x2381 DUP6 DUP6 SUB DUP8 PUSH2 0x40BC JUMP JUMPDEST PUSH1 0x40 MLOAD DUP4 PUSH4 0xFFFFFFFF AND PUSH1 0xE0 SHL DUP2 MSTORE PUSH1 0x4 ADD DUP1 DUP4 PUSH1 0x1 PUSH1 0x1 PUSH1 0xA0 SHL SUB AND DUP2 MSTORE PUSH1 0x20 ADD DUP3 DUP2 MSTORE PUSH1 0x20 ADD SWAP3 POP POP POP PUSH1 0x20 PUSH1 0x40 MLOAD DUP1 DUP4 SUB DUP2 PUSH1 0x0 DUP8 DUP1 EXTCODESIZE ISZERO DUP1 ISZERO PUSH2 0x23C7 JUMPI PUSH1 0x0 DUP1 REVERT JUMPDEST POP GAS CALL ISZERO DUP1 ISZERO PUSH2 0x23DB JUMPI RETURNDATASIZE PUSH1 0x0 DUP1 RETURNDATACOPY RETURNDATASIZE PUSH1 0x0 REVERT JUMPDEST POP POP POP POP PUSH1 0x40 MLOAD RETURNDATASIZE PUSH1 0x20 DUP2 LT ISZERO PUSH2 0x23F1 JUMPI PUSH1 0x0 DUP1 REVERT JUMPDEST POP MLOAD PUSH2 0x2439 JUMPI PUSH1 0x40 DUP1 MLOAD PUSH3 0x461BCD PUSH1 0xE5 SHL DUP2 MSTORE PUSH1 0x20 PUSH1 0x4 DUP3 ADD MSTORE PUSH1 0x12 PUSH1 0x24 DUP3 ADD MSTORE PUSH18 0x696E73756666696369656E742066756E6473 PUSH1 0x70 SHL PUSH1 0x44 DUP3 ADD MSTORE SWAP1 MLOAD SWAP1 DUP2 SWAP1 SUB PUSH1 0x64 ADD SWAP1 REVERT JUMPDEST POP POP POP POP JUMP JUMPDEST PUSH1 0x0 GAS SWAP1 POP PUSH2 0x2452 DUP9 DUP9 DUP9 DUP9 DUP9 DUP9 PUSH2 0x40D6 JUMP JUMPDEST CALLDATASIZE EQ PUSH2 0x24A5 JUMPI PUSH1 0x40 DUP1 MLOAD PUSH3 0x461BCD PUSH1 0xE5 SHL DUP2 MSTORE PUSH1 0x20 PUSH1 0x4 DUP3 ADD MSTORE PUSH1 0x19 PUSH1 0x24 DUP3 ADD MSTORE PUSH32 0x7472616E736D6974206D65737361676520746F6F206C6F6E6700000000000000 PUSH1 0x44 DUP3 ADD MSTORE SWAP1 MLOAD SWAP1 DUP2 SWAP1 SUB PUSH1 0x64 ADD SWAP1 REVERT JUMPDEST PUSH2 0x24AD PUSH2 0x45CB JUMP JUMPDEST PUSH1 0x40 DUP1 MLOAD PUSH1 0x80 DUP1 DUP3 ADD DUP4 MSTORE PUSH1 0x2A SLOAD SWAP1 DUP2 SWAP1 SHL PUSH16 0xFFFFFFFFFFFFFFFFFFFFFFFFFFFFFFFF NOT AND DUP3 MSTORE PUSH1 0x1 PUSH1 0x80 SHL DUP2 DIV PUSH5 0xFFFFFFFFFF AND PUSH1 0x20 DUP4 ADD MSTORE PUSH1 0x1 PUSH1 0xA8 SHL DUP2 DIV PUSH1 0xFF AND SWAP3 DUP3 ADD SWAP3 SWAP1 SWAP3 MSTORE PUSH1 0x1 PUSH1 0xB0 SHL SWAP1 SWAP2 DIV PUSH4 0xFFFFFFFF AND PUSH1 0x60 DUP1 DUP4 ADD SWAP2 SWAP1 SWAP2 MSTORE SWAP1 DUP3 MSTORE PUSH1 0x0 SWAP1 DUP11 SWAP1 DUP11 SWAP1 DUP2 LT ISZERO PUSH2 0x2525 JUMPI PUSH1 0x0 DUP1 REVERT JUMPDEST DUP2 CALLDATALOAD SWAP2 PUSH1 0x20 DUP2 ADD CALLDATALOAD SWAP2 DUP2 ADD SWAP1 PUSH1 0x60 DUP2 ADD PUSH1 0x40 DUP3 ADD CALLDATALOAD PUSH5 0x100000000 DUP2 GT ISZERO PUSH2 0x254C JUMPI PUSH1 0x0 DUP1 REVERT JUMPDEST DUP3 ADD DUP4 PUSH1 0x20 DUP3 ADD GT ISZERO PUSH2 0x255E JUMPI PUSH1 0x0 DUP1 REVERT JUMPDEST DUP1 CALLDATALOAD SWAP1 PUSH1 0x20 ADD SWAP2 DUP5 PUSH1 0x20 DUP4 MUL DUP5 ADD GT PUSH5 0x100000000 DUP4 GT OR ISZERO PUSH2 0x2580 JUMPI PUSH1 0x0 DUP1 REVERT JUMPDEST SWAP2 SWAP1 DUP1 DUP1 PUSH1 0x20 MUL PUSH1 0x20 ADD PUSH1 0x40 MLOAD SWAP1 DUP2 ADD PUSH1 0x40 MSTORE DUP1 SWAP4 SWAP3 SWAP2 SWAP1 DUP2 DUP2 MSTORE PUSH1 0x20 ADD DUP4 DUP4 PUSH1 0x20 MUL DUP1 DUP3 DUP5 CALLDATACOPY PUSH1 0x0 SWAP3 ADD SWAP2 SWAP1 SWAP2 MSTORE POP POP POP POP PUSH1 0x40 DUP9 ADD MSTORE POP POP POP PUSH1 0x80 DUP5 ADD DUP3 SWAP1 MSTORE DUP4 MLOAD MLOAD SWAP1 SWAP3 POP PUSH1 0x58 SWAP2 SWAP1 SWAP2 SHL SWAP1 PUSH16 0xFFFFFFFFFFFFFFFFFFFFFFFFFFFFFFFF NOT DUP1 DUP4 AND SWAP2 AND EQ PUSH2 0x2638 JUMPI PUSH1 0x40 DUP1 MLOAD PUSH3 0x461BCD PUSH1 0xE5 SHL DUP2 MSTORE PUSH1 0x20 PUSH1 0x4 DUP3 ADD MSTORE PUSH1 0x15 PUSH1 0x24 DUP3 ADD MSTORE PUSH32 0x636F6E666967446967657374206D69736D617463680000000000000000000000 PUSH1 0x44 DUP3 ADD MSTORE SWAP1 MLOAD SWAP1 DUP2 SWAP1 SUB PUSH1 0x64 ADD SWAP1 REVERT JUMPDEST PUSH1 0x80 DUP4 ADD MLOAD DUP4 MLOAD PUSH1 0x20 ADD MLOAD PUSH5 0xFFFFFFFFFF DUP1 DUP4 AND SWAP2 AND LT PUSH2 0x26A0 JUMPI PUSH1 0x40 DUP1 MLOAD PUSH3 0x461BCD PUSH1 0xE5 SHL DUP2 MSTORE PUSH1 0x20 PUSH1 0x4 DUP3 ADD MSTORE PUSH1 0xC PUSH1 0x24 DUP3 ADD MSTORE PUSH32 0x7374616C65207265706F72740000000000000000000000000000000000000000 PUSH1 0x44 DUP3 ADD MSTORE SWAP1 MLOAD SWAP1 DUP2 SWAP1 SUB PUSH1 0x64 ADD SWAP1 REVERT JUMPDEST DUP4 MLOAD PUSH1 0x40 ADD MLOAD PUSH1 0xFF AND DUP10 GT PUSH2 0x26FC JUMPI PUSH1 0x40 DUP1 MLOAD PUSH3 0x461BCD PUSH1 0xE5 SHL DUP2 MSTORE PUSH1 0x20 PUSH1 0x4 DUP3 ADD MSTORE PUSH1 0x15 PUSH1 0x24 DUP3 ADD MSTORE PUSH32 0x6E6F7420656E6F756768207369676E6174757265730000000000000000000000 PUSH1 0x44 DUP3 ADD MSTORE SWAP1 MLOAD SWAP1 DUP2 SWAP1 SUB PUSH1 0x64 ADD SWAP1 REVERT JUMPDEST PUSH1 0x1F DUP10 GT ISZERO PUSH2 0x2752 JUMPI PUSH1 0x40 DUP1 MLOAD PUSH3 0x461BCD PUSH1 0xE5 SHL DUP2 MSTORE PUSH1 0x20 PUSH1 0x4 DUP3 ADD MSTORE PUSH1 0x13 PUSH1 0x24 DUP3 ADD MSTORE PUSH32 0x746F6F206D616E79207369676E61747572657300000000000000000000000000 PUSH1 0x44 DUP3 ADD MSTORE SWAP1 MLOAD SWAP1 DUP2 SWAP1 SUB PUSH1 0x64 ADD SWAP1 REVERT JUMPDEST DUP7 DUP10 EQ PUSH2 0x27A6 JUMPI PUSH1 0x40 DUP1 MLOAD PUSH3 0x461BCD PUSH1 0xE5 SHL DUP2 MSTORE PUSH1 0x20 PUSH1 0x4 DUP3 ADD MSTORE PUSH1 0x1E PUSH1 0x24 DUP3 ADD MSTORE PUSH32 0x7369676E617475726573206F7574206F6620726567697374726174696F6E0000 PUSH1 0x44 DUP3 ADD MSTORE SWAP1 MLOAD SWAP1 DUP2 SWAP1 SUB PUSH1 0x64 ADD SWAP1 REVERT JUMPDEST PUSH1 0x1F DUP5 PUSH1 0x40 ADD MLOAD MLOAD GT ISZERO PUSH2 0x2801 JUMPI PUSH1 0x40 DUP1 MLOAD PUSH3 0x461BCD PUSH1 0xE5 SHL DUP2 MSTORE PUSH1 0x20 PUSH1 0x4 DUP3 ADD MSTORE PUSH1 0x1E PUSH1 0x24 DUP3 ADD MSTORE PUSH32 0x6E756D206F62736572766174696F6E73206F7574206F6620626F756E64730000 PUSH1 0x44 DUP3 ADD MSTORE SWAP1 MLOAD SWAP1 DUP2 SWAP1 SUB PUSH1 0x64 ADD SWAP1 REVERT JUMPDEST DUP4 PUSH1 0x0 ADD MLOAD PUSH1 0x40 ADD MLOAD PUSH1 0x2 MUL PUSH1 0xFF AND DUP5 PUSH1 0x40 ADD MLOAD MLOAD GT PUSH2 0x2868 JUMPI PUSH1 0x40 DUP1 MLOAD PUSH3 0x461BCD PUSH1 0xE5 SHL DUP2 MSTORE PUSH1 0x20 PUSH1 0x4 DUP3 ADD MSTORE PUSH1 0x1E PUSH1 0x24 DUP3 ADD MSTORE PUSH32 0x746F6F206665772076616C75657320746F207472757374206D656469616E0000 PUSH1 0x44 DUP3 ADD MSTORE SWAP1 MLOAD SWAP1 DUP2 SWAP1 SUB PUSH1 0x64 ADD SWAP1 REVERT JUMPDEST DUP9 PUSH8 0xFFFFFFFFFFFFFFFF DUP2 GT DUP1 ISZERO PUSH2 0x287F JUMPI PUSH1 0x0 DUP1 REVERT JUMPDEST POP PUSH1 0x40 MLOAD SWAP1 DUP1 DUP3 MSTORE DUP1 PUSH1 0x1F ADD PUSH1 0x1F NOT AND PUSH1 0x20 ADD DUP3 ADD PUSH1 0x40 MSTORE DUP1 ISZERO PUSH2 0x28AA JUMPI PUSH1 0x20 DUP3 ADD DUP2 DUP1 CALLDATASIZE DUP4 CALLDATACOPY ADD SWAP1 POP JUMPDEST POP PUSH1 0x60 DUP6 ADD MSTORE PUSH1 0x0 JUMPDEST PUSH1 0xFF DUP2 AND DUP11 GT ISZERO PUSH2 0x291B JUMPI DUP7 DUP2 PUSH1 0xFF AND PUSH1 0x20 DUP2 LT PUSH2 0x28CD JUMPI INVALID JUMPDEST BYTE PUSH1 0xF8 SHL DUP6 PUSH1 0x60 ADD MLOAD DUP3 PUSH1 0xFF AND DUP2 MLOAD DUP2 LT PUSH2 0x28E4 JUMPI INVALID JUMPDEST PUSH1 0x20 ADD ADD SWAP1 PUSH31 0xFFFFFFFFFFFFFFFFFFFFFFFFFFFFFFFFFFFFFFFFFFFFFFFFFFFFFFFFFFFFFF NOT AND SWAP1 DUP2 PUSH1 0x0 BYTE SWAP1 MSTORE8 POP PUSH1 0x1 ADD PUSH2 0x28B3 JUMP JUMPDEST POP DUP4 PUSH1 0x40 ADD MLOAD MLOAD PUSH8 0xFFFFFFFFFFFFFFFF DUP2 GT DUP1 ISZERO PUSH2 0x2938 JUMPI PUSH1 0x0 DUP1 REVERT JUMPDEST POP PUSH1 0x40 MLOAD SWAP1 DUP1 DUP3 MSTORE DUP1 PUSH1 0x1F ADD PUSH1 0x1F NOT AND PUSH1 0x20 ADD DUP3 ADD PUSH1 0x40 MSTORE DUP1 ISZERO PUSH2 0x2963 JUMPI PUSH1 0x20 DUP3 ADD DUP2 DUP1 CALLDATASIZE DUP4 CALLDATACOPY ADD SWAP1 POP JUMPDEST POP PUSH1 0x20 DUP6 ADD MSTORE PUSH2 0x2971 PUSH2 0x45FF JUMP JUMPDEST PUSH1 0x0 JUMPDEST DUP6 PUSH1 0x40 ADD MLOAD MLOAD DUP2 PUSH1 0xFF AND LT ISZERO PUSH2 0x2A77 JUMPI PUSH1 0x0 DUP6 DUP3 PUSH1 0xFF AND PUSH1 0x20 DUP2 LT PUSH2 0x2995 JUMPI INVALID JUMPDEST BYTE SWAP1 POP DUP3 DUP2 PUSH1 0x1F DUP2 LT PUSH2 0x29A4 JUMPI INVALID JUMPDEST PUSH1 0x20 MUL ADD MLOAD ISZERO PUSH2 0x29FB JUMPI PUSH1 0x40 DUP1 MLOAD PUSH3 0x461BCD PUSH1 0xE5 SHL DUP2 MSTORE PUSH1 0x20 PUSH1 0x4 DUP3 ADD MSTORE PUSH1 0x17 PUSH1 0x24 DUP3 ADD MSTORE PUSH32 0x6F6273657276657220696E646578207265706561746564000000000000000000 PUSH1 0x44 DUP3 ADD MSTORE SWAP1 MLOAD SWAP1 DUP2 SWAP1 SUB PUSH1 0x64 ADD SWAP1 REVERT JUMPDEST PUSH1 0x1 DUP4 DUP3 PUSH1 0xFF AND PUSH1 0x1F DUP2 LT PUSH2 0x2A0C JUMPI INVALID JUMPDEST SWAP2 ISZERO ISZERO PUSH1 0x20 SWAP3 DUP4 MUL SWAP2 SWAP1 SWAP2 ADD MSTORE DUP7 SWAP1 PUSH1 0xFF DUP5 AND SWAP1 DUP2 LT PUSH2 0x2A28 JUMPI INVALID JUMPDEST BYTE PUSH1 0xF8 SHL DUP8 PUSH1 0x20 ADD MLOAD DUP4 PUSH1 0xFF AND DUP2 MLOAD DUP2 LT PUSH2 0x2A3F JUMPI INVALID JUMPDEST PUSH1 0x20 ADD ADD SWAP1 PUSH31 0xFFFFFFFFFFFFFFFFFFFFFFFFFFFFFFFFFFFFFFFFFFFFFFFFFFFFFFFFFFFFFF NOT AND SWAP1 DUP2 PUSH1 0x0 BYTE SWAP1 MSTORE8 POP POP PUSH1 0x1 ADD PUSH2 0x2974 JUMP JUMPDEST POP CALLER PUSH1 0x0 SWAP1 DUP2 MSTORE PUSH1 0x27 PUSH1 0x20 SWAP1 DUP2 MSTORE PUSH1 0x40 DUP1 DUP4 KECCAK256 DUP2 MLOAD DUP1 DUP4 ADD SWAP1 SWAP3 MSTORE DUP1 SLOAD PUSH1 0xFF DUP1 DUP3 AND DUP5 MSTORE SWAP3 SWAP4 SWAP2 SWAP3 SWAP2 DUP5 ADD SWAP2 PUSH2 0x100 SWAP1 SWAP2 DIV AND PUSH1 0x2 DUP2 GT ISZERO PUSH2 0x2AB5 JUMPI INVALID JUMPDEST PUSH1 0x2 DUP2 GT ISZERO PUSH2 0x2AC0 JUMPI INVALID JUMPDEST SWAP1 MSTORE POP SWAP1 POP PUSH1 0x2 DUP2 PUSH1 0x20 ADD MLOAD PUSH1 0x2 DUP2 GT ISZERO PUSH2 0x2AD7 JUMPI INVALID JUMPDEST EQ DUP1 ISZERO PUSH2 0x2B0B JUMPI POP PUSH1 0x29 DUP2 PUSH1 0x0 ADD MLOAD PUSH1 0xFF AND DUP2 SLOAD DUP2 LT PUSH2 0x2AF3 JUMPI INVALID JUMPDEST PUSH1 0x0 SWAP2 DUP3 MSTORE PUSH1 0x20 SWAP1 SWAP2 KECCAK256 ADD SLOAD PUSH1 0x1 PUSH1 0x1 PUSH1 0xA0 SHL SUB AND CALLER EQ JUMPDEST PUSH2 0x2B5C JUMPI PUSH1 0x40 DUP1 MLOAD PUSH3 0x461BCD PUSH1 0xE5 SHL DUP2 MSTORE PUSH1 0x20 PUSH1 0x4 DUP3 ADD MSTORE PUSH1 0x18 PUSH1 0x24 DUP3 ADD MSTORE PUSH32 0x756E617574686F72697A6564207472616E736D69747465720000000000000000 PUSH1 0x44 DUP3 ADD MSTORE SWAP1 MLOAD SWAP1 DUP2 SWAP1 SUB PUSH1 0x64 ADD SWAP1 REVERT JUMPDEST POP POP DUP4 MLOAD PUSH5 0xFFFFFFFFFF SWAP1 SWAP2 AND PUSH1 0x20 SWAP1 SWAP2 ADD MSTORE POP POP PUSH1 0x40 MLOAD PUSH1 0x0 SWAP1 DUP11 SWAP1 DUP11 SWAP1 DUP1 DUP4 DUP4 DUP1 DUP3 DUP5 CALLDATACOPY PUSH1 0x40 MLOAD SWAP3 ADD DUP3 SWAP1 SUB SWAP1 SWAP2 KECCAK256 SWAP5 POP PUSH2 0x2B9D SWAP4 POP PUSH2 0x45FF SWAP3 POP POP POP JUMP JUMPDEST PUSH2 0x2BA5 PUSH2 0x461E JUMP JUMPDEST PUSH1 0x0 JUMPDEST DUP10 DUP2 LT ISZERO PUSH2 0x2D9E JUMPI PUSH1 0x0 PUSH1 0x1 DUP6 DUP8 PUSH1 0x60 ADD MLOAD DUP5 DUP2 MLOAD DUP2 LT PUSH2 0x2BC5 JUMPI INVALID JUMPDEST PUSH1 0x20 SWAP2 ADD ADD MLOAD PUSH1 0xF8 SHR PUSH1 0x1B ADD DUP15 DUP15 DUP7 DUP2 DUP2 LT PUSH2 0x2BDD JUMPI INVALID JUMPDEST SWAP1 POP PUSH1 0x20 MUL ADD CALLDATALOAD DUP14 DUP14 DUP8 DUP2 DUP2 LT PUSH2 0x2BF0 JUMPI INVALID JUMPDEST SWAP1 POP PUSH1 0x20 MUL ADD CALLDATALOAD PUSH1 0x40 MLOAD PUSH1 0x0 DUP2 MSTORE PUSH1 0x20 ADD PUSH1 0x40 MSTORE PUSH1 0x40 MLOAD DUP1 DUP6 DUP2 MSTORE PUSH1 0x20 ADD DUP5 PUSH1 0xFF AND DUP2 MSTORE PUSH1 0x20 ADD DUP4 DUP2 MSTORE PUSH1 0x20 ADD DUP3 DUP2 MSTORE PUSH1 0x20 ADD SWAP5 POP POP POP POP POP PUSH1 0x20 PUSH1 0x40 MLOAD PUSH1 0x20 DUP2 SUB SWAP1 DUP1 DUP5 SUB SWAP1 DUP6 GAS STATICCALL ISZERO DUP1 ISZERO PUSH2 0x2C4B JUMPI RETURNDATASIZE PUSH1 0x0 DUP1 RETURNDATACOPY RETURNDATASIZE PUSH1 0x0 REVERT JUMPDEST POP POP PUSH1 0x40 DUP1 MLOAD PUSH1 0x1F NOT DUP2 ADD MLOAD PUSH1 0x1 PUSH1 0x1 PUSH1 0xA0 SHL SUB DUP2 AND PUSH1 0x0 SWAP1 DUP2 MSTORE PUSH1 0x27 PUSH1 0x20 SWAP1 DUP2 MSTORE SWAP1 DUP5 SWAP1 KECCAK256 DUP4 DUP6 ADD SWAP1 SWAP5 MSTORE DUP4 SLOAD PUSH1 0xFF DUP1 DUP3 AND DUP6 MSTORE SWAP3 SWAP7 POP SWAP3 SWAP5 POP DUP5 ADD SWAP2 PUSH2 0x100 SWAP1 DIV AND PUSH1 0x2 DUP2 GT ISZERO PUSH2 0x2C9A JUMPI INVALID JUMPDEST PUSH1 0x2 DUP2 GT ISZERO PUSH2 0x2CA5 JUMPI INVALID JUMPDEST SWAP1 MSTORE POP SWAP3 POP PUSH1 0x1 DUP4 PUSH1 0x20 ADD MLOAD PUSH1 0x2 DUP2 GT ISZERO PUSH2 0x2CBC JUMPI INVALID JUMPDEST EQ PUSH2 0x2D0E JUMPI PUSH1 0x40 DUP1 MLOAD PUSH3 0x461BCD PUSH1 0xE5 SHL DUP2 MSTORE PUSH1 0x20 PUSH1 0x4 DUP3 ADD MSTORE PUSH1 0x1E PUSH1 0x24 DUP3 ADD MSTORE PUSH32 0x61646472657373206E6F7420617574686F72697A656420746F207369676E0000 PUSH1 0x44 DUP3 ADD MSTORE SWAP1 MLOAD SWAP1 DUP2 SWAP1 SUB PUSH1 0x64 ADD SWAP1 REVERT JUMPDEST DUP3 MLOAD DUP5 SWAP1 PUSH1 0xFF AND PUSH1 0x1F DUP2 LT PUSH2 0x2D1F JUMPI INVALID JUMPDEST PUSH1 0x20 MUL ADD MLOAD ISZERO PUSH2 0x2D76 JUMPI PUSH1 0x40 DUP1 MLOAD PUSH3 0x461BCD PUSH1 0xE5 SHL DUP2 MSTORE PUSH1 0x20 PUSH1 0x4 DUP3 ADD MSTORE PUSH1 0x14 PUSH1 0x24 DUP3 ADD MSTORE PUSH32 0x6E6F6E2D756E69717565207369676E6174757265000000000000000000000000 PUSH1 0x44 DUP3 ADD MSTORE SWAP1 MLOAD SWAP1 DUP2 SWAP1 SUB PUSH1 0x64 ADD SWAP1 REVERT JUMPDEST PUSH1 0x1 DUP5 DUP5 PUSH1 0x0 ADD MLOAD PUSH1 0xFF AND PUSH1 0x1F DUP2 LT PUSH2 0x2D8B JUMPI INVALID JUMPDEST SWAP2 ISZERO ISZERO PUSH1 0x20 SWAP1 SWAP3 MUL ADD MSTORE POP PUSH1 0x1 ADD PUSH2 0x2BA8 JUMP JUMPDEST POP POP POP POP PUSH1 0x0 JUMPDEST PUSH1 0x1 DUP3 PUSH1 0x40 ADD MLOAD MLOAD SUB DUP2 LT ISZERO PUSH2 0x2E4F JUMPI PUSH1 0x0 DUP3 PUSH1 0x40 ADD MLOAD DUP3 PUSH1 0x1 ADD DUP2 MLOAD DUP2 LT PUSH2 0x2DCA JUMPI INVALID JUMPDEST PUSH1 0x20 MUL PUSH1 0x20 ADD ADD MLOAD PUSH1 0x17 SIGNEXTEND DUP4 PUSH1 0x40 ADD MLOAD DUP4 DUP2 MLOAD DUP2 LT PUSH2 0x2DE5 JUMPI INVALID JUMPDEST PUSH1 0x20 MUL PUSH1 0x20 ADD ADD MLOAD PUSH1 0x17 SIGNEXTEND SGT ISZERO SWAP1 POP DUP1 PUSH2 0x2E46 JUMPI PUSH1 0x40 DUP1 MLOAD PUSH3 0x461BCD PUSH1 0xE5 SHL DUP2 MSTORE PUSH1 0x20 PUSH1 0x4 DUP3 ADD MSTORE PUSH1 0x17 PUSH1 0x24 DUP3 ADD MSTORE PUSH32 0x6F62736572766174696F6E73206E6F7420736F72746564000000000000000000 PUSH1 0x44 DUP3 ADD MSTORE SWAP1 MLOAD SWAP1 DUP2 SWAP1 SUB PUSH1 0x64 ADD SWAP1 REVERT JUMPDEST POP PUSH1 0x1 ADD PUSH2 0x2DA5 JUMP JUMPDEST POP PUSH1 0x40 DUP2 ADD MLOAD DUP1 MLOAD PUSH1 0x0 SWAP2 SWAP1 PUSH1 0x2 DUP2 DIV SWAP1 DUP2 LT PUSH2 0x2E68 JUMPI INVALID JUMPDEST PUSH1 0x20 MUL PUSH1 0x20 ADD ADD MLOAD SWAP1 POP DUP1 PUSH1 0x17 SIGNEXTEND PUSH32 0x0 PUSH1 0x17 SIGNEXTEND SGT ISZERO DUP1 ISZERO PUSH2 0x2ECE JUMPI POP PUSH32 0x0 PUSH1 0x17 SIGNEXTEND DUP2 PUSH1 0x17 SIGNEXTEND SGT ISZERO JUMPDEST PUSH2 0x2F1F JUMPI PUSH1 0x40 DUP1 MLOAD PUSH3 0x461BCD PUSH1 0xE5 SHL DUP2 MSTORE PUSH1 0x20 PUSH1 0x4 DUP3 ADD MSTORE PUSH1 0x1E PUSH1 0x24 DUP3 ADD MSTORE PUSH32 0x6D656469616E206973206F7574206F66206D696E2D6D61782072616E67650000 PUSH1 0x44 DUP3 ADD MSTORE SWAP1 MLOAD SWAP1 DUP2 SWAP1 SUB PUSH1 0x64 ADD SWAP1 REVERT JUMPDEST DUP2 MLOAD PUSH1 0x60 SWAP1 DUP2 ADD DUP1 MLOAD PUSH4 0xFFFFFFFF PUSH1 0x1 SWAP1 SWAP2 ADD DUP2 AND SWAP1 SWAP2 MSTORE PUSH1 0x40 DUP1 MLOAD DUP1 DUP3 ADD DUP3 MSTORE PUSH1 0x17 DUP6 DUP2 SIGNEXTEND DUP1 DUP4 MSTORE PUSH8 0xFFFFFFFFFFFFFFFF TIMESTAMP DUP2 AND PUSH1 0x20 DUP1 DUP7 ADD SWAP2 DUP3 MSTORE DUP11 MLOAD DUP10 ADD MLOAD DUP9 AND PUSH1 0x0 SWAP1 DUP2 MSTORE PUSH1 0x2B DUP3 MSTORE DUP8 DUP2 KECCAK256 SWAP7 MLOAD DUP8 SLOAD SWAP4 MLOAD SWAP1 SWAP5 AND PUSH1 0x1 PUSH1 0xC0 SHL MUL SWAP4 SWAP1 SWAP6 SIGNEXTEND PUSH24 0xFFFFFFFFFFFFFFFFFFFFFFFFFFFFFFFFFFFFFFFFFFFFFFFF SWAP1 DUP2 AND PUSH32 0xFFFFFFFFFFFFFFFF000000000000000000000000000000000000000000000000 SWAP1 SWAP4 AND SWAP3 SWAP1 SWAP3 OR SWAP1 SWAP2 AND SWAP2 SWAP1 SWAP2 OR SWAP1 SWAP4 SSTORE DUP8 MLOAD DUP7 ADD MLOAD DUP5 DUP10 ADD MLOAD DUP5 DUP11 ADD MLOAD PUSH1 0x80 DUP1 DUP13 ADD MLOAD DUP9 MLOAD SWAP6 DUP7 MSTORE CALLER DUP7 DUP10 ADD DUP2 SWAP1 MSTORE SWAP2 DUP7 ADD DUP2 SWAP1 MSTORE PUSH1 0xA0 SWAP9 DUP7 ADD DUP10 DUP2 MSTORE DUP5 MLOAD SWAP10 DUP8 ADD SWAP10 SWAP1 SWAP10 MSTORE DUP4 MLOAD SWAP5 SWAP1 SWAP10 AND SWAP10 PUSH32 0xF6A97944F31EA060DFDE0566E4167C1A1082551E64B60ECB14D599A9D023D451 SWAP10 DUP13 SWAP10 SWAP3 SWAP9 SWAP5 SWAP8 SWAP4 SWAP7 SWAP1 SWAP6 SWAP1 SWAP5 SWAP3 SWAP4 SWAP2 DUP6 ADD SWAP3 PUSH1 0xC0 DUP7 ADD SWAP3 DUP10 DUP3 ADD SWAP3 SWAP1 SWAP2 MUL SWAP1 DUP2 SWAP1 DUP5 SWAP1 DUP5 SWAP1 JUMPDEST DUP4 DUP2 LT ISZERO PUSH2 0x306D JUMPI DUP2 DUP2 ADD MLOAD DUP4 DUP3 ADD MSTORE PUSH1 0x20 ADD PUSH2 0x3055 JUMP JUMPDEST POP POP POP POP SWAP1 POP ADD DUP4 DUP2 SUB DUP3 MSTORE DUP6 DUP2 DUP2 MLOAD DUP2 MSTORE PUSH1 0x20 ADD SWAP2 POP DUP1 MLOAD SWAP1 PUSH1 0x20 ADD SWAP1 DUP1 DUP4 DUP4 PUSH1 0x0 JUMPDEST DUP4 DUP2 LT ISZERO PUSH2 0x30A9 JUMPI DUP2 DUP2 ADD MLOAD DUP4 DUP3 ADD MSTORE PUSH1 0x20 ADD PUSH2 0x3091 JUMP JUMPDEST POP POP POP POP SWAP1 POP SWAP1 DUP2 ADD SWAP1 PUSH1 0x1F AND DUP1 ISZERO PUSH2 0x30D6 JUMPI DUP1 DUP3 SUB DUP1 MLOAD PUSH1 0x1 DUP4 PUSH1 0x20 SUB PUSH2 0x100 EXP SUB NOT AND DUP2 MSTORE PUSH1 0x20 ADD SWAP2 POP JUMPDEST POP SWAP8 POP POP POP POP POP POP POP POP PUSH1 0x40 MLOAD DUP1 SWAP2 SUB SWAP1 LOG2 DUP2 MLOAD PUSH1 0x60 ADD MLOAD PUSH1 0x40 DUP1 MLOAD TIMESTAMP DUP2 MSTORE SWAP1 MLOAD PUSH1 0x0 SWAP3 PUSH4 0xFFFFFFFF AND SWAP2 PUSH32 0x109FC6F55CF40689F02FBAAD7AF7FE7BBAC8A3D2186600AFC7D3E10CAC60271 SWAP2 SWAP1 DUP2 SWAP1 SUB PUSH1 0x20 ADD SWAP1 LOG3 DUP2 PUSH1 0x0 ADD MLOAD PUSH1 0x60 ADD MLOAD PUSH4 0xFFFFFFFF AND DUP2 PUSH1 0x17 SIGNEXTEND PUSH32 0x559884FD3A460DB3073B7FC896CC77986F16E378210DED43186175BF646FC5F TIMESTAMP PUSH1 0x40 MLOAD DUP1 DUP3 DUP2 MSTORE PUSH1 0x20 ADD SWAP2 POP POP PUSH1 0x40 MLOAD DUP1 SWAP2 SUB SWAP1 LOG3 PUSH2 0x318B DUP3 PUSH1 0x0 ADD MLOAD PUSH1 0x60 ADD MLOAD DUP3 PUSH1 0x17 SIGNEXTEND PUSH2 0x40EE JUMP JUMPDEST POP DUP1 MLOAD DUP1 MLOAD PUSH1 0x2A DUP1 SLOAD PUSH1 0x20 DUP5 ADD MLOAD PUSH1 0x40 DUP6 ADD MLOAD PUSH1 0x60 SWAP1 SWAP6 ADD MLOAD PUSH16 0xFFFFFFFFFFFFFFFFFFFFFFFFFFFFFFFF NOT SWAP1 SWAP3 AND PUSH1 0x80 SWAP5 SWAP1 SWAP5 SHR SWAP4 SWAP1 SWAP4 OR PUSH32 0xFFFFFFFFFFFFFFFFFFFFFF0000000000FFFFFFFFFFFFFFFFFFFFFFFFFFFFFFFF AND PUSH1 0x1 PUSH1 0x80 SHL PUSH5 0xFFFFFFFFFF SWAP1 SWAP5 AND SWAP4 SWAP1 SWAP4 MUL SWAP3 SWAP1 SWAP3 OR PUSH1 0xFF PUSH1 0xA8 SHL NOT AND PUSH1 0x1 PUSH1 0xA8 SHL PUSH1 0xFF SWAP1 SWAP5 AND SWAP4 SWAP1 SWAP4 MUL SWAP3 SWAP1 SWAP3 OR PUSH32 0xFFFFFFFFFFFF00000000FFFFFFFFFFFFFFFFFFFFFFFFFFFFFFFFFFFFFFFFFFFF AND PUSH1 0x1 PUSH1 0xB0 SHL PUSH4 0xFFFFFFFF SWAP3 DUP4 AND MUL OR SWAP1 SWAP2 SSTORE DUP3 LT PUSH2 0x3250 JUMPI INVALID JUMPDEST PUSH2 0x325E DUP3 DUP3 PUSH1 0x20 ADD MLOAD PUSH2 0x41DC JUMP JUMPDEST POP POP POP POP POP POP POP POP POP JUMP JUMPDEST PUSH1 0x0 DUP1 PUSH32 0x0 PUSH1 0x1 PUSH1 0x1 PUSH1 0xA0 SHL SUB AND PUSH4 0x70A08231 ADDRESS PUSH1 0x40 MLOAD DUP3 PUSH4 0xFFFFFFFF AND PUSH1 0xE0 SHL DUP2 MSTORE PUSH1 0x4 ADD DUP1 DUP3 PUSH1 0x1 PUSH1 0x1 PUSH1 0xA0 SHL SUB AND DUP2 MSTORE PUSH1 0x20 ADD SWAP2 POP POP PUSH1 0x20 PUSH1 0x40 MLOAD DUP1 DUP4 SUB DUP2 DUP7 DUP1 EXTCODESIZE ISZERO DUP1 ISZERO PUSH2 0x32D9 JUMPI PUSH1 0x0 DUP1 REVERT JUMPDEST POP GAS STATICCALL ISZERO DUP1 ISZERO PUSH2 0x32ED JUMPI RETURNDATASIZE PUSH1 0x0 DUP1 RETURNDATACOPY RETURNDATASIZE PUSH1 0x0 REVERT JUMPDEST POP POP POP POP PUSH1 0x40 MLOAD RETURNDATASIZE PUSH1 0x20 DUP2 LT ISZERO PUSH2 0x3303 JUMPI PUSH1 0x0 DUP1 REVERT JUMPDEST POP MLOAD SWAP1 POP PUSH1 0x0 PUSH2 0x3311 PUSH2 0x3F07 JUMP JUMPDEST SWAP1 SWAP2 SUB SWAP2 POP POP SWAP1 JUMP JUMPDEST PUSH1 0x1 PUSH1 0x1 PUSH1 0xA0 SHL SUB DUP2 AND PUSH1 0x0 SWAP1 DUP2 MSTORE PUSH1 0x27 PUSH1 0x20 SWAP1 DUP2 MSTORE PUSH1 0x40 DUP1 DUP4 KECCAK256 DUP2 MLOAD DUP1 DUP4 ADD SWAP1 SWAP3 MSTORE DUP1 SLOAD PUSH1 0xFF DUP1 DUP3 AND DUP5 MSTORE DUP6 SWAP5 DUP5 ADD SWAP2 PUSH2 0x100 SWAP1 DIV AND PUSH1 0x2 DUP2 GT ISZERO PUSH2 0x335C JUMPI INVALID JUMPDEST PUSH1 0x2 DUP2 GT ISZERO PUSH2 0x3367 JUMPI INVALID JUMPDEST SWAP1 MSTORE POP SWAP1 POP PUSH1 0x0 DUP2 PUSH1 0x20 ADD MLOAD PUSH1 0x2 DUP2 GT ISZERO PUSH2 0x337E JUMPI INVALID JUMPDEST EQ ISZERO PUSH2 0x338E JUMPI PUSH1 0x0 SWAP2 POP POP PUSH2 0xC07 JUMP JUMPDEST PUSH1 0x1 PUSH1 0x4 DUP3 PUSH1 0x0 ADD MLOAD PUSH1 0xFF AND PUSH1 0x1F DUP2 LT PUSH2 0x33A4 JUMPI INVALID JUMPDEST PUSH1 0x10 SWAP2 DUP3 DUP3 DIV ADD SWAP2 SWAP1 MOD PUSH1 0x2 MUL SWAP1 SLOAD SWAP1 PUSH2 0x100 EXP SWAP1 DIV PUSH2 0xFFFF AND SUB SWAP2 POP POP SWAP2 SWAP1 POP JUMP JUMPDEST PUSH1 0x0 DUP1 DUP1 DUP1 DUP1 CALLER ORIGIN EQ PUSH2 0x3421 JUMPI PUSH1 0x40 DUP1 MLOAD PUSH3 0x461BCD PUSH1 0xE5 SHL DUP2 MSTORE PUSH1 0x20 PUSH1 0x4 DUP3 ADD MSTORE PUSH1 0x14 PUSH1 0x24 DUP3 ADD MSTORE PUSH32 0x4F6E6C792063616C6C61626C6520627920454F41000000000000000000000000 PUSH1 0x44 DUP3 ADD MSTORE SWAP1 MLOAD SWAP1 DUP2 SWAP1 SUB PUSH1 0x64 ADD SWAP1 REVERT JUMPDEST POP POP PUSH1 0x2A SLOAD PUSH4 0xFFFFFFFF PUSH1 0x1 PUSH1 0xB0 SHL DUP3 DIV DUP2 AND PUSH1 0x0 SWAP1 DUP2 MSTORE PUSH1 0x2B PUSH1 0x20 MSTORE PUSH1 0x40 SWAP1 KECCAK256 SLOAD PUSH1 0x80 DUP4 SWAP1 SHL SWAP7 PUSH1 0x1 PUSH1 0x80 SHL SWAP1 SWAP4 DIV PUSH1 0x8 DUP2 SWAP1 SHR SWAP1 SWAP3 AND SWAP6 POP PUSH5 0xFFFFFFFFFF SWAP1 SWAP2 AND SWAP4 POP PUSH1 0x17 DUP2 SWAP1 SIGNEXTEND SWAP3 POP PUSH1 0x1 PUSH1 0xC0 SHL SWAP1 DIV PUSH8 0xFFFFFFFFFFFFFFFF AND SWAP1 JUMP JUMPDEST PUSH1 0x1 PUSH1 0x1 PUSH1 0xA0 SHL SUB DUP3 DUP2 AND PUSH1 0x0 SWAP1 DUP2 MSTORE PUSH1 0x6 PUSH1 0x20 MSTORE PUSH1 0x40 SWAP1 KECCAK256 SLOAD AND CALLER EQ PUSH2 0x34EF JUMPI PUSH1 0x40 DUP1 MLOAD PUSH3 0x461BCD PUSH1 0xE5 SHL DUP2 MSTORE PUSH1 0x20 PUSH1 0x4 DUP3 ADD MSTORE PUSH1 0x1D PUSH1 0x24 DUP3 ADD MSTORE PUSH32 0x6F6E6C792063757272656E742070617965652063616E20757064617465000000 PUSH1 0x44 DUP3 ADD MSTORE SWAP1 MLOAD SWAP1 DUP2 SWAP1 SUB PUSH1 0x64 ADD SWAP1 REVERT JUMPDEST CALLER PUSH1 0x1 PUSH1 0x1 PUSH1 0xA0 SHL SUB DUP3 AND EQ ISZERO PUSH2 0x354D JUMPI PUSH1 0x40 DUP1 MLOAD PUSH3 0x461BCD PUSH1 0xE5 SHL DUP2 MSTORE PUSH1 0x20 PUSH1 0x4 DUP3 ADD MSTORE PUSH1 0x17 PUSH1 0x24 DUP3 ADD MSTORE PUSH32 0x63616E6E6F74207472616E7366657220746F2073656C66000000000000000000 PUSH1 0x44 DUP3 ADD MSTORE SWAP1 MLOAD SWAP1 DUP2 SWAP1 SUB PUSH1 0x64 ADD SWAP1 REVERT JUMPDEST PUSH1 0x1 PUSH1 0x1 PUSH1 0xA0 SHL SUB DUP1 DUP4 AND PUSH1 0x0 SWAP1 DUP2 MSTORE PUSH1 0x7 PUSH1 0x20 MSTORE PUSH1 0x40 SWAP1 KECCAK256 DUP1 SLOAD DUP4 DUP4 AND PUSH1 0x1 PUSH1 0x1 PUSH1 0xA0 SHL SUB NOT DUP3 AND DUP2 OR SWAP1 SWAP3 SSTORE SWAP1 SWAP2 AND SWAP1 DUP2 EQ PUSH2 0x35C0 JUMPI PUSH1 0x40 MLOAD PUSH1 0x1 PUSH1 0x1 PUSH1 0xA0 SHL SUB DUP1 DUP5 AND SWAP2 CALLER SWAP2 DUP7 AND SWAP1 PUSH32 0x84F7C7C80BB8ED2279B4AAB5F61CD05E6374073D38F46D7F32DE8C30E9E38367 SWAP1 PUSH1 0x0 SWAP1 LOG4 JUMPDEST POP POP POP JUMP JUMPDEST PUSH1 0x0 SLOAD PUSH1 0x1 PUSH1 0x1 PUSH1 0xA0 SHL SUB AND CALLER EQ PUSH2 0x361D JUMPI PUSH1 0x40 DUP1 MLOAD PUSH3 0x461BCD PUSH1 0xE5 SHL DUP2 MSTORE PUSH1 0x20 PUSH1 0x4 DUP3 ADD MSTORE PUSH1 0x16 PUSH1 0x24 DUP3 ADD MSTORE PUSH22 0x27B7363C9031B0B63630B1363290313C9037BBB732B9 PUSH1 0x51 SHL PUSH1 0x44 DUP3 ADD MSTORE SWAP1 MLOAD SWAP1 DUP2 SWAP1 SUB PUSH1 0x64 ADD SWAP1 REVERT JUMPDEST PUSH1 0x1 DUP1 SLOAD PUSH1 0x1 PUSH1 0x1 PUSH1 0xA0 SHL SUB NOT AND PUSH1 0x1 PUSH1 0x1 PUSH1 0xA0 SHL SUB DUP4 DUP2 AND SWAP2 DUP3 OR SWAP1 SWAP3 SSTORE PUSH1 0x0 DUP1 SLOAD PUSH1 0x40 MLOAD SWAP3 SWAP4 AND SWAP2 PUSH32 0xED8889F560326EB138920D842192F0EB3DD22B4F139C87A2C57538E05BAE1278 SWAP2 SWAP1 LOG3 POP JUMP JUMPDEST PUSH1 0x0 SLOAD PUSH1 0x1 PUSH1 0x1 PUSH1 0xA0 SHL SUB AND CALLER EQ PUSH2 0x36C6 JUMPI PUSH1 0x40 DUP1 MLOAD PUSH3 0x461BCD PUSH1 0xE5 SHL DUP2 MSTORE PUSH1 0x20 PUSH1 0x4 DUP3 ADD MSTORE PUSH1 0x16 PUSH1 0x24 DUP3 ADD MSTORE PUSH22 0x27B7363C9031B0B63630B1363290313C9037BBB732B9 PUSH1 0x51 SHL PUSH1 0x44 DUP3 ADD MSTORE SWAP1 MLOAD SWAP1 DUP2 SWAP1 SUB PUSH1 0x64 ADD SWAP1 REVERT JUMPDEST PUSH2 0x1892 DUP2 PUSH2 0x440E JUMP JUMPDEST PUSH1 0x2A SLOAD PUSH1 0x1 PUSH1 0xB0 SHL SWAP1 DIV PUSH4 0xFFFFFFFF AND PUSH1 0x0 DUP2 DUP2 MSTORE PUSH1 0x2B PUSH1 0x20 SWAP1 DUP2 MSTORE PUSH1 0x40 SWAP2 DUP3 SWAP1 KECCAK256 DUP3 MLOAD DUP1 DUP5 ADD SWAP1 SWAP4 MSTORE SLOAD PUSH1 0x17 DUP2 DUP2 SIGNEXTEND DUP2 SIGNEXTEND DUP2 SIGNEXTEND DUP1 DUP6 MSTORE PUSH1 0x1 PUSH1 0xC0 SHL SWAP1 SWAP3 DIV PUSH8 0xFFFFFFFFFFFFFFFF AND SWAP4 SWAP1 SWAP3 ADD DUP4 SWAP1 MSTORE SWAP3 SWAP4 SWAP3 SWAP1 SIGNEXTEND SWAP2 DUP2 SWAP1 DUP5 SWAP1 JUMP JUMPDEST PUSH1 0x1 PUSH1 0x1 PUSH1 0xA0 SHL SUB DUP2 AND PUSH1 0x0 SWAP1 DUP2 MSTORE PUSH1 0x27 PUSH1 0x20 SWAP1 DUP2 MSTORE PUSH1 0x40 DUP1 DUP4 KECCAK256 DUP2 MLOAD DUP1 DUP4 ADD SWAP1 SWAP3 MSTORE DUP1 SLOAD PUSH1 0xFF DUP1 DUP3 AND DUP5 MSTORE SWAP3 SWAP4 SWAP2 SWAP3 SWAP2 DUP5 ADD SWAP2 PUSH2 0x100 SWAP1 SWAP2 DIV AND PUSH1 0x2 DUP2 GT ISZERO PUSH2 0x3771 JUMPI INVALID JUMPDEST PUSH1 0x2 DUP2 GT ISZERO PUSH2 0x377C JUMPI INVALID JUMPDEST SWAP1 MSTORE POP SWAP1 POP PUSH1 0x0 PUSH2 0x378C DUP4 PUSH2 0xADC JUMP JUMPDEST SWAP1 POP DUP1 ISZERO PUSH2 0x35C0 JUMPI PUSH1 0x1 PUSH1 0x1 PUSH1 0xA0 SHL SUB DUP1 DUP5 AND PUSH1 0x0 SWAP1 DUP2 MSTORE PUSH1 0x6 PUSH1 0x20 SWAP1 DUP2 MSTORE PUSH1 0x40 DUP1 DUP4 KECCAK256 SLOAD DUP2 MLOAD PUSH32 0xA9059CBB00000000000000000000000000000000000000000000000000000000 DUP2 MSTORE SWAP1 DUP6 AND PUSH1 0x4 DUP3 ADD DUP2 SWAP1 MSTORE PUSH1 0x24 DUP3 ADD DUP8 SWAP1 MSTORE SWAP2 MLOAD SWAP2 SWAP5 PUSH32 0x0 AND SWAP4 PUSH4 0xA9059CBB SWAP4 PUSH1 0x44 DUP1 DUP5 ADD SWAP5 SWAP2 SWAP4 SWAP2 SWAP3 SWAP2 DUP4 SWAP1 SUB ADD SWAP1 DUP3 SWAP1 DUP8 DUP1 EXTCODESIZE ISZERO DUP1 ISZERO PUSH2 0x3835 JUMPI PUSH1 0x0 DUP1 REVERT JUMPDEST POP GAS CALL ISZERO DUP1 ISZERO PUSH2 0x3849 JUMPI RETURNDATASIZE PUSH1 0x0 DUP1 RETURNDATACOPY RETURNDATASIZE PUSH1 0x0 REVERT JUMPDEST POP POP POP POP PUSH1 0x40 MLOAD RETURNDATASIZE PUSH1 0x20 DUP2 LT ISZERO PUSH2 0x385F JUMPI PUSH1 0x0 DUP1 REVERT JUMPDEST POP MLOAD PUSH2 0x38A7 JUMPI PUSH1 0x40 DUP1 MLOAD PUSH3 0x461BCD PUSH1 0xE5 SHL DUP2 MSTORE PUSH1 0x20 PUSH1 0x4 DUP3 ADD MSTORE PUSH1 0x12 PUSH1 0x24 DUP3 ADD MSTORE PUSH18 0x696E73756666696369656E742066756E6473 PUSH1 0x70 SHL PUSH1 0x44 DUP3 ADD MSTORE SWAP1 MLOAD SWAP1 DUP2 SWAP1 SUB PUSH1 0x64 ADD SWAP1 REVERT JUMPDEST PUSH1 0x1 PUSH1 0x4 DUP5 PUSH1 0x0 ADD MLOAD PUSH1 0xFF AND PUSH1 0x1F DUP2 LT PUSH2 0x38BD JUMPI INVALID JUMPDEST PUSH1 0x10 SWAP2 DUP3 DUP3 DIV ADD SWAP2 SWAP1 MOD PUSH1 0x2 MUL PUSH2 0x100 EXP DUP2 SLOAD DUP2 PUSH2 0xFFFF MUL NOT AND SWAP1 DUP4 PUSH2 0xFFFF AND MUL OR SWAP1 SSTORE POP PUSH1 0x1 PUSH1 0x8 DUP5 PUSH1 0x0 ADD MLOAD PUSH1 0xFF AND PUSH1 0x1F DUP2 LT PUSH2 0x38F8 JUMPI INVALID JUMPDEST ADD SSTORE PUSH1 0x40 DUP1 MLOAD PUSH1 0x1 PUSH1 0x1 PUSH1 0xA0 SHL SUB DUP1 DUP8 AND DUP3 MSTORE DUP4 AND PUSH1 0x20 DUP3 ADD MSTORE DUP1 DUP3 ADD DUP5 SWAP1 MSTORE SWAP1 MLOAD PUSH32 0xE8EC50E5150AE28AE37E493FF389FFAB7FFAEC2DC4DCCFCA03F12A3DE29D12B2 SWAP2 DUP2 SWAP1 SUB PUSH1 0x60 ADD SWAP1 LOG1 POP POP POP POP JUMP JUMPDEST PUSH1 0x0 DUP11 DUP11 DUP11 DUP11 DUP11 DUP11 DUP11 DUP11 DUP11 DUP11 PUSH1 0x40 MLOAD PUSH1 0x20 ADD DUP1 DUP12 PUSH1 0x1 PUSH1 0x1 PUSH1 0xA0 SHL SUB AND DUP2 MSTORE PUSH1 0x20 ADD DUP11 PUSH8 0xFFFFFFFFFFFFFFFF AND DUP2 MSTORE PUSH1 0x20 ADD DUP1 PUSH1 0x20 ADD DUP1 PUSH1 0x20 ADD DUP8 PUSH1 0xFF AND DUP2 MSTORE PUSH1 0x20 ADD DUP7 PUSH8 0xFFFFFFFFFFFFFFFF AND DUP2 MSTORE PUSH1 0x20 ADD DUP1 PUSH1 0x20 ADD DUP5 DUP2 SUB DUP5 MSTORE DUP13 DUP13 DUP3 DUP2 DUP2 MSTORE PUSH1 0x20 ADD SWAP3 POP PUSH1 0x20 MUL DUP1 DUP3 DUP5 CALLDATACOPY PUSH1 0x0 DUP4 DUP3 ADD MSTORE PUSH1 0x1F ADD PUSH1 0x1F NOT AND SWAP1 SWAP2 ADD DUP6 DUP2 SUB DUP5 MSTORE DUP11 DUP2 MSTORE PUSH1 0x20 SWAP1 DUP2 ADD SWAP2 POP DUP12 SWAP1 DUP12 MUL DUP1 DUP3 DUP5 CALLDATACOPY PUSH1 0x0 DUP4 DUP3 ADD MSTORE PUSH1 0x1F ADD PUSH1 0x1F NOT AND SWAP1 SWAP2 ADD DUP6 DUP2 SUB DUP4 MSTORE DUP7 DUP2 MSTORE PUSH1 0x20 ADD SWAP1 POP DUP7 DUP7 DUP1 DUP3 DUP5 CALLDATACOPY PUSH1 0x0 DUP2 DUP5 ADD MSTORE PUSH1 0x1F NOT PUSH1 0x1F DUP3 ADD AND SWAP1 POP DUP1 DUP4 ADD SWAP3 POP POP POP SWAP14 POP POP POP POP POP POP POP POP POP POP POP POP POP POP PUSH1 0x40 MLOAD PUSH1 0x20 DUP2 DUP4 SUB SUB DUP2 MSTORE SWAP1 PUSH1 0x40 MSTORE DUP1 MLOAD SWAP1 PUSH1 0x20 ADD KECCAK256 SWAP1 POP SWAP11 SWAP10 POP POP POP POP POP POP POP POP POP POP JUMP JUMPDEST PUSH1 0x40 DUP1 MLOAD PUSH1 0xA0 DUP2 ADD DUP3 MSTORE PUSH1 0x2 SLOAD PUSH4 0xFFFFFFFF DUP1 DUP3 AND DUP4 MSTORE PUSH5 0x100000000 DUP3 DIV DUP2 AND PUSH1 0x20 DUP5 ADD MSTORE PUSH1 0x1 PUSH1 0x40 SHL DUP3 DIV DUP2 AND DUP4 DUP6 ADD MSTORE PUSH1 0x1 PUSH1 0x60 SHL DUP3 DIV DUP2 AND PUSH1 0x60 DUP5 ADD MSTORE PUSH1 0x1 PUSH1 0x80 SHL SWAP1 SWAP2 DIV AND PUSH1 0x80 DUP3 ADD MSTORE DUP2 MLOAD PUSH2 0x3E0 DUP2 ADD SWAP3 DUP4 SWAP1 MSTORE SWAP1 SWAP2 PUSH1 0x0 SWAP2 SWAP1 PUSH1 0x4 SWAP1 PUSH1 0x1F SWAP1 DUP3 DUP6 DUP6 JUMPDEST DUP3 DUP3 SWAP1 SLOAD SWAP1 PUSH2 0x100 EXP SWAP1 DIV PUSH2 0xFFFF AND PUSH2 0xFFFF AND DUP2 MSTORE PUSH1 0x20 ADD SWAP1 PUSH1 0x2 ADD SWAP1 PUSH1 0x20 DUP3 PUSH1 0x1 ADD DIV SWAP3 DUP4 ADD SWAP3 PUSH1 0x1 SUB DUP3 MUL SWAP2 POP DUP1 DUP5 GT PUSH2 0x3AB8 JUMPI POP POP PUSH1 0x40 DUP1 MLOAD PUSH2 0x3E0 DUP2 ADD SWAP2 DUP3 SWAP1 MSTORE SWAP6 SWAP7 POP PUSH1 0x0 SWAP6 SWAP5 POP PUSH1 0x8 SWAP4 POP PUSH1 0x1F SWAP3 POP SWAP1 POP DUP3 DUP5 JUMPDEST DUP2 SLOAD DUP2 MSTORE PUSH1 0x20 ADD SWAP1 PUSH1 0x1 ADD SWAP1 DUP1 DUP4 GT PUSH2 0x3B12 JUMPI POP POP POP POP POP SWAP1 POP PUSH1 0x0 PUSH1 0x29 DUP1 SLOAD DUP1 PUSH1 0x20 MUL PUSH1 0x20 ADD PUSH1 0x40 MLOAD SWAP1 DUP2 ADD PUSH1 0x40 MSTORE DUP1 SWAP3 SWAP2 SWAP1 DUP2 DUP2 MSTORE PUSH1 0x20 ADD DUP3 DUP1 SLOAD DUP1 ISZERO PUSH2 0x3B84 JUMPI PUSH1 0x20 MUL DUP3 ADD SWAP2 SWAP1 PUSH1 0x0 MSTORE PUSH1 0x20 PUSH1 0x0 KECCAK256 SWAP1 JUMPDEST DUP2 SLOAD PUSH1 0x1 PUSH1 0x1 PUSH1 0xA0 SHL SUB AND DUP2 MSTORE PUSH1 0x1 SWAP1 SWAP2 ADD SWAP1 PUSH1 0x20 ADD DUP1 DUP4 GT PUSH2 0x3B66 JUMPI JUMPDEST POP POP POP POP POP SWAP1 POP PUSH1 0x0 JUMPDEST DUP2 MLOAD DUP2 LT ISZERO PUSH2 0x3DD1 JUMPI PUSH1 0x0 PUSH1 0x1 DUP5 DUP4 PUSH1 0x1F DUP2 LT PUSH2 0x3BA7 JUMPI INVALID JUMPDEST PUSH1 0x20 MUL ADD MLOAD SUB SWAP1 POP PUSH1 0x0 PUSH1 0x1 DUP7 DUP5 PUSH1 0x1F DUP2 LT PUSH2 0x3BBF JUMPI INVALID JUMPDEST PUSH1 0x20 MUL ADD MLOAD SUB PUSH2 0xFFFF AND SWAP1 POP PUSH1 0x0 DUP3 DUP9 PUSH1 0x60 ADD MLOAD PUSH4 0xFFFFFFFF AND DUP4 MUL PUSH4 0x3B9ACA00 MUL ADD SWAP1 POP PUSH1 0x0 DUP2 GT ISZERO PUSH2 0x3DC6 JUMPI PUSH1 0x0 PUSH1 0x6 PUSH1 0x0 DUP8 DUP8 DUP2 MLOAD DUP2 LT PUSH2 0x3BFF JUMPI INVALID JUMPDEST PUSH1 0x20 MUL PUSH1 0x20 ADD ADD MLOAD PUSH1 0x1 PUSH1 0x1 PUSH1 0xA0 SHL SUB AND PUSH1 0x1 PUSH1 0x1 PUSH1 0xA0 SHL SUB AND DUP2 MSTORE PUSH1 0x20 ADD SWAP1 DUP2 MSTORE PUSH1 0x20 ADD PUSH1 0x0 KECCAK256 PUSH1 0x0 SWAP1 SLOAD SWAP1 PUSH2 0x100 EXP SWAP1 DIV PUSH1 0x1 PUSH1 0x1 PUSH1 0xA0 SHL SUB AND SWAP1 POP PUSH32 0x0 PUSH1 0x1 PUSH1 0x1 PUSH1 0xA0 SHL SUB AND PUSH4 0xA9059CBB DUP3 DUP5 PUSH1 0x40 MLOAD DUP4 PUSH4 0xFFFFFFFF AND PUSH1 0xE0 SHL DUP2 MSTORE PUSH1 0x4 ADD DUP1 DUP4 PUSH1 0x1 PUSH1 0x1 PUSH1 0xA0 SHL SUB AND DUP2 MSTORE PUSH1 0x20 ADD DUP3 DUP2 MSTORE PUSH1 0x20 ADD SWAP3 POP POP POP PUSH1 0x20 PUSH1 0x40 MLOAD DUP1 DUP4 SUB DUP2 PUSH1 0x0 DUP8 DUP1 EXTCODESIZE ISZERO DUP1 ISZERO PUSH2 0x3CB4 JUMPI PUSH1 0x0 DUP1 REVERT JUMPDEST POP GAS CALL ISZERO DUP1 ISZERO PUSH2 0x3CC8 JUMPI RETURNDATASIZE PUSH1 0x0 DUP1 RETURNDATACOPY RETURNDATASIZE PUSH1 0x0 REVERT JUMPDEST POP POP POP POP PUSH1 0x40 MLOAD RETURNDATASIZE PUSH1 0x20 DUP2 LT ISZERO PUSH2 0x3CDE JUMPI PUSH1 0x0 DUP1 REVERT JUMPDEST POP MLOAD PUSH2 0x3D26 JUMPI PUSH1 0x40 DUP1 MLOAD PUSH3 0x461BCD PUSH1 0xE5 SHL DUP2 MSTORE PUSH1 0x20 PUSH1 0x4 DUP3 ADD MSTORE PUSH1 0x12 PUSH1 0x24 DUP3 ADD MSTORE PUSH18 0x696E73756666696369656E742066756E6473 PUSH1 0x70 SHL PUSH1 0x44 DUP3 ADD MSTORE SWAP1 MLOAD SWAP1 DUP2 SWAP1 SUB PUSH1 0x64 ADD SWAP1 REVERT JUMPDEST PUSH1 0x1 DUP9 DUP7 PUSH1 0x1F DUP2 LT PUSH2 0x3D34 JUMPI INVALID JUMPDEST PUSH2 0xFFFF SWAP1 SWAP3 AND PUSH1 0x20 SWAP3 SWAP1 SWAP3 MUL ADD MSTORE PUSH1 0x1 DUP8 DUP7 PUSH1 0x1F DUP2 LT PUSH2 0x3D50 JUMPI INVALID JUMPDEST PUSH1 0x20 MUL ADD MSTORE DUP6 MLOAD PUSH32 0xE8EC50E5150AE28AE37E493FF389FFAB7FFAEC2DC4DCCFCA03F12A3DE29D12B2 SWAP1 DUP8 SWAP1 DUP8 SWAP1 DUP2 LT PUSH2 0x3D85 JUMPI INVALID JUMPDEST PUSH1 0x20 MUL PUSH1 0x20 ADD ADD MLOAD DUP3 DUP5 PUSH1 0x40 MLOAD DUP1 DUP5 PUSH1 0x1 PUSH1 0x1 PUSH1 0xA0 SHL SUB AND DUP2 MSTORE PUSH1 0x20 ADD DUP4 PUSH1 0x1 PUSH1 0x1 PUSH1 0xA0 SHL SUB AND DUP2 MSTORE PUSH1 0x20 ADD DUP3 DUP2 MSTORE PUSH1 0x20 ADD SWAP4 POP POP POP POP PUSH1 0x40 MLOAD DUP1 SWAP2 SUB SWAP1 LOG1 POP JUMPDEST POP POP POP PUSH1 0x1 ADD PUSH2 0x3B8E JUMP JUMPDEST POP PUSH2 0x3DDF PUSH1 0x4 DUP5 PUSH1 0x1F PUSH2 0x4635 JUMP JUMPDEST POP PUSH2 0x1DD8 PUSH1 0x8 DUP4 PUSH1 0x1F PUSH2 0x46CB JUMP JUMPDEST PUSH1 0x40 DUP1 MLOAD PUSH1 0xA0 DUP1 DUP3 ADD DUP4 MSTORE PUSH4 0xFFFFFFFF DUP9 DUP2 AND DUP1 DUP5 MSTORE DUP9 DUP3 AND PUSH1 0x20 DUP1 DUP7 ADD DUP3 SWAP1 MSTORE DUP10 DUP5 AND DUP7 DUP9 ADD DUP2 SWAP1 MSTORE DUP10 DUP6 AND PUSH1 0x60 DUP1 DUP10 ADD DUP3 SWAP1 MSTORE SWAP6 DUP11 AND PUSH1 0x80 SWAP9 DUP10 ADD DUP2 SWAP1 MSTORE PUSH1 0x2 DUP1 SLOAD PUSH4 0xFFFFFFFF NOT AND DUP8 OR PUSH8 0xFFFFFFFF00000000 NOT AND PUSH5 0x100000000 DUP8 MUL OR PUSH12 0xFFFFFFFF0000000000000000 NOT AND PUSH1 0x1 PUSH1 0x40 SHL DUP6 MUL OR PUSH32 0xFFFFFFFFFFFFFFFFFFFFFFFFFFFFFFFF00000000FFFFFFFFFFFFFFFFFFFFFFFF AND PUSH1 0x1 PUSH1 0x60 SHL DUP5 MUL OR PUSH32 0xFFFFFFFFFFFFFFFFFFFFFFFF00000000FFFFFFFFFFFFFFFFFFFFFFFFFFFFFFFF AND PUSH1 0x1 PUSH1 0x80 SHL DUP4 MUL OR SWAP1 SSTORE DUP10 MLOAD SWAP6 DUP7 MSTORE SWAP3 DUP6 ADD SWAP4 SWAP1 SWAP4 MSTORE DUP4 DUP9 ADD MSTORE SWAP3 DUP3 ADD MSTORE SWAP3 DUP4 ADD MSTORE SWAP2 MLOAD PUSH32 0xD0D9486A2C673E2A4B57FC82E4C8A556B3E2B82DD5DB07E2C04A920CA0F469B6 SWAP3 SWAP2 DUP2 SWAP1 SUB SWAP1 SWAP2 ADD SWAP1 LOG1 POP POP POP POP POP JUMP JUMPDEST PUSH1 0x40 DUP1 MLOAD PUSH2 0x3E0 DUP2 ADD SWAP2 DUP3 SWAP1 MSTORE PUSH1 0x0 SWAP2 DUP3 SWAP2 SWAP1 PUSH1 0x4 SWAP1 PUSH1 0x1F SWAP1 DUP3 DUP6 DUP6 JUMPDEST DUP3 DUP3 SWAP1 SLOAD SWAP1 PUSH2 0x100 EXP SWAP1 DIV PUSH2 0xFFFF AND PUSH2 0xFFFF AND DUP2 MSTORE PUSH1 0x20 ADD SWAP1 PUSH1 0x2 ADD SWAP1 PUSH1 0x20 DUP3 PUSH1 0x1 ADD DIV SWAP3 DUP4 ADD SWAP3 PUSH1 0x1 SUB DUP3 MUL SWAP2 POP DUP1 DUP5 GT PUSH2 0x3F24 JUMPI SWAP1 POP POP POP POP POP POP SWAP1 POP PUSH1 0x0 JUMPDEST PUSH1 0x1F DUP2 LT ISZERO PUSH2 0x3F94 JUMPI PUSH1 0x1 DUP3 DUP3 PUSH1 0x1F DUP2 LT PUSH2 0x3F7D JUMPI INVALID JUMPDEST PUSH1 0x20 MUL ADD MLOAD SUB PUSH2 0xFFFF AND SWAP3 SWAP1 SWAP3 ADD SWAP2 PUSH1 0x1 ADD PUSH2 0x3F66 JUMP JUMPDEST POP PUSH1 0x40 DUP1 MLOAD PUSH1 0xA0 DUP2 ADD DUP3 MSTORE PUSH1 0x2 SLOAD PUSH4 0xFFFFFFFF DUP1 DUP3 AND DUP4 MSTORE PUSH5 0x100000000 DUP3 DIV DUP2 AND PUSH1 0x20 DUP1 DUP6 ADD SWAP2 SWAP1 SWAP2 MSTORE PUSH1 0x1 PUSH1 0x40 SHL DUP4 DIV DUP3 AND DUP5 DUP7 ADD MSTORE PUSH1 0x1 PUSH1 0x60 SHL DUP4 DIV DUP3 AND PUSH1 0x60 DUP6 ADD DUP2 SWAP1 MSTORE PUSH1 0x1 PUSH1 0x80 SHL SWAP1 SWAP4 DIV SWAP1 SWAP2 AND PUSH1 0x80 DUP5 ADD MSTORE PUSH1 0x29 DUP1 SLOAD DUP6 MLOAD DUP2 DUP5 MUL DUP2 ADD DUP5 ADD SWAP1 SWAP7 MSTORE DUP1 DUP7 MSTORE SWAP7 SWAP1 SWAP3 MUL PUSH4 0x3B9ACA00 MUL SWAP6 SWAP3 SWAP4 PUSH1 0x0 SWAP4 SWAP1 SWAP3 SWAP2 DUP4 ADD DUP3 DUP3 DUP1 ISZERO PUSH2 0x404B JUMPI PUSH1 0x20 MUL DUP3 ADD SWAP2 SWAP1 PUSH1 0x0 MSTORE PUSH1 0x20 PUSH1 0x0 KECCAK256 SWAP1 JUMPDEST DUP2 SLOAD PUSH1 0x1 PUSH1 0x1 PUSH1 0xA0 SHL SUB AND DUP2 MSTORE PUSH1 0x1 SWAP1 SWAP2 ADD SWAP1 PUSH1 0x20 ADD DUP1 DUP4 GT PUSH2 0x402D JUMPI JUMPDEST POP POP PUSH1 0x40 DUP1 MLOAD PUSH2 0x3E0 DUP2 ADD SWAP2 DUP3 SWAP1 MSTORE SWAP5 SWAP6 POP PUSH1 0x0 SWAP5 SWAP4 POP PUSH1 0x8 SWAP3 POP PUSH1 0x1F SWAP2 POP DUP3 DUP5 JUMPDEST DUP2 SLOAD DUP2 MSTORE PUSH1 0x20 ADD SWAP1 PUSH1 0x1 ADD SWAP1 DUP1 DUP4 GT PUSH2 0x406D JUMPI POP POP POP POP POP SWAP1 POP PUSH1 0x0 JUMPDEST DUP3 MLOAD DUP2 LT ISZERO PUSH2 0x40B4 JUMPI PUSH1 0x1 DUP3 DUP3 PUSH1 0x1F DUP2 LT PUSH2 0x40A1 JUMPI INVALID JUMPDEST PUSH1 0x20 MUL ADD MLOAD SUB SWAP6 SWAP1 SWAP6 ADD SWAP5 PUSH1 0x1 ADD PUSH2 0x408A JUMP JUMPDEST POP POP POP POP POP SWAP1 JUMP JUMPDEST PUSH1 0x0 DUP2 DUP4 LT ISZERO PUSH2 0x40CD JUMPI POP DUP2 PUSH2 0x40D0 JUMP JUMPDEST POP DUP1 JUMPDEST SWAP3 SWAP2 POP POP JUMP JUMPDEST PUSH1 0x20 DUP4 DUP2 MUL DUP7 ADD SWAP1 DUP3 MUL ADD PUSH1 0xE4 ADD SWAP7 SWAP6 POP POP POP POP POP POP JUMP JUMPDEST PUSH1 0x2C SLOAD PUSH1 0x1 PUSH1 0x40 SHL SWAP1 DIV PUSH1 0x1 PUSH1 0x1 PUSH1 0xA0 SHL SUB AND DUP1 PUSH2 0x410C JUMPI POP PUSH2 0xCF0 JUMP JUMPDEST PUSH1 0x0 NOT DUP4 ADD PUSH4 0xFFFFFFFF DUP2 DUP2 AND PUSH1 0x0 DUP2 DUP2 MSTORE PUSH1 0x2B PUSH1 0x20 SWAP1 DUP2 MSTORE PUSH1 0x40 DUP1 DUP4 KECCAK256 SLOAD DUP2 MLOAD PUSH32 0xBEED9B5100000000000000000000000000000000000000000000000000000000 DUP2 MSTORE PUSH1 0x4 DUP2 ADD SWAP6 SWAP1 SWAP6 MSTORE PUSH1 0x17 SWAP1 DUP2 SIGNEXTEND SWAP1 SIGNEXTEND PUSH1 0x24 DUP6 ADD DUP2 SWAP1 MSTORE SWAP5 DUP10 AND PUSH1 0x44 DUP6 ADD MSTORE PUSH1 0x64 DUP5 ADD DUP9 SWAP1 MSTORE MLOAD PUSH1 0x1 PUSH1 0x1 PUSH1 0xA0 SHL SUB DUP8 AND SWAP4 PUSH4 0xBEED9B51 SWAP4 PUSH3 0x186A0 SWAP4 PUSH1 0x84 DUP1 DUP5 ADD SWAP5 SWAP2 SWAP4 SWAP2 SWAP3 SWAP2 DUP4 SWAP1 SUB ADD SWAP1 DUP3 SWAP1 DUP9 DUP1 EXTCODESIZE ISZERO DUP1 ISZERO PUSH2 0x41AD JUMPI PUSH1 0x0 DUP1 REVERT JUMPDEST POP DUP8 CALL SWAP4 POP POP POP POP DUP1 ISZERO PUSH2 0x41D3 JUMPI POP PUSH1 0x40 MLOAD RETURNDATASIZE PUSH1 0x20 DUP2 LT ISZERO PUSH2 0x41CE JUMPI PUSH1 0x0 DUP1 REVERT JUMPDEST POP MLOAD PUSH1 0x1 JUMPDEST PUSH2 0x212C JUMPI PUSH2 0x1DD8 JUMP JUMPDEST CALLER PUSH1 0x0 SWAP1 DUP2 MSTORE PUSH1 0x27 PUSH1 0x20 SWAP1 DUP2 MSTORE PUSH1 0x40 DUP1 DUP4 KECCAK256 DUP2 MLOAD DUP1 DUP4 ADD SWAP1 SWAP3 MSTORE DUP1 SLOAD PUSH1 0xFF DUP1 DUP3 AND DUP5 MSTORE SWAP3 SWAP4 SWAP2 SWAP3 SWAP2 DUP5 ADD SWAP2 PUSH2 0x100 SWAP1 SWAP2 DIV AND PUSH1 0x2 DUP2 GT ISZERO PUSH2 0x4219 JUMPI INVALID JUMPDEST PUSH1 0x2 DUP2 GT ISZERO PUSH2 0x4224 JUMPI INVALID JUMPDEST SWAP1 MSTORE POP PUSH1 0x40 DUP1 MLOAD PUSH1 0xA0 DUP2 ADD DUP3 MSTORE PUSH1 0x2 SLOAD PUSH4 0xFFFFFFFF DUP1 DUP3 AND DUP4 MSTORE PUSH5 0x100000000 DUP3 DIV DUP2 AND PUSH1 0x20 DUP5 ADD MSTORE PUSH1 0x1 PUSH1 0x40 SHL DUP3 DIV DUP2 AND DUP4 DUP6 ADD MSTORE PUSH1 0x1 PUSH1 0x60 SHL DUP3 DIV DUP2 AND PUSH1 0x60 DUP5 ADD MSTORE PUSH1 0x1 PUSH1 0x80 SHL SWAP1 SWAP2 DIV AND PUSH1 0x80 DUP3 ADD MSTORE DUP2 MLOAD PUSH2 0x3E0 DUP2 ADD SWAP3 DUP4 SWAP1 MSTORE SWAP3 SWAP4 POP SWAP2 PUSH2 0x42D9 SWAP2 DUP6 SWAP2 SWAP1 PUSH1 0x4 SWAP1 PUSH1 0x1F SWAP1 DUP3 PUSH1 0x0 DUP6 JUMPDEST DUP3 DUP3 SWAP1 SLOAD SWAP1 PUSH2 0x100 EXP SWAP1 DIV PUSH2 0xFFFF AND PUSH2 0xFFFF AND DUP2 MSTORE PUSH1 0x20 ADD SWAP1 PUSH1 0x2 ADD SWAP1 PUSH1 0x20 DUP3 PUSH1 0x1 ADD DIV SWAP3 DUP4 ADD SWAP3 PUSH1 0x1 SUB DUP3 MUL SWAP2 POP DUP1 DUP5 GT PUSH2 0x4297 JUMPI SWAP1 POP POP POP POP POP POP PUSH2 0x4485 JUMP JUMPDEST PUSH2 0x42E7 SWAP1 PUSH1 0x4 SWAP1 PUSH1 0x1F PUSH2 0x4635 JUMP JUMPDEST POP PUSH1 0x2 DUP3 PUSH1 0x20 ADD MLOAD PUSH1 0x2 DUP2 GT ISZERO PUSH2 0x42FA JUMPI INVALID JUMPDEST EQ PUSH2 0x434C JUMPI PUSH1 0x40 DUP1 MLOAD PUSH3 0x461BCD PUSH1 0xE5 SHL DUP2 MSTORE PUSH1 0x20 PUSH1 0x4 DUP3 ADD DUP2 SWAP1 MSTORE PUSH1 0x24 DUP3 ADD MSTORE PUSH32 0x73656E7420627920756E64657369676E61746564207472616E736D6974746572 PUSH1 0x44 DUP3 ADD MSTORE SWAP1 MLOAD SWAP1 DUP2 SWAP1 SUB PUSH1 0x64 ADD SWAP1 REVERT JUMPDEST PUSH1 0x0 PUSH2 0x4373 PUSH4 0x3B9ACA00 GASPRICE DIV DUP4 PUSH1 0x20 ADD MLOAD PUSH4 0xFFFFFFFF AND DUP5 PUSH1 0x0 ADD MLOAD PUSH4 0xFFFFFFFF AND PUSH2 0x44FA JUMP JUMPDEST SWAP1 POP PUSH1 0x10 CALLDATASIZE MUL PUSH1 0x0 GAS SWAP1 POP PUSH1 0x0 PUSH2 0x4392 DUP9 PUSH4 0xFFFFFFFF AND DUP6 DUP6 DUP6 PUSH2 0x4520 JUMP JUMPDEST PUSH16 0xFFFFFFFFFFFFFFFFFFFFFFFFFFFFFFFF AND SWAP1 POP PUSH1 0x0 PUSH3 0xF4240 DUP7 PUSH1 0x40 ADD MLOAD PUSH4 0xFFFFFFFF AND DUP4 MUL DUP2 PUSH2 0x43C0 JUMPI INVALID JUMPDEST DIV SWAP1 POP DUP6 PUSH1 0x80 ADD MLOAD PUSH4 0xFFFFFFFF AND PUSH4 0x3B9ACA00 MUL DUP2 PUSH1 0x8 DUP10 PUSH1 0x0 ADD MLOAD PUSH1 0xFF AND PUSH1 0x1F DUP2 LT PUSH2 0x43E9 JUMPI INVALID JUMPDEST ADD SLOAD ADD ADD PUSH1 0x8 DUP9 PUSH1 0x0 ADD MLOAD PUSH1 0xFF AND PUSH1 0x1F DUP2 LT PUSH2 0x4401 JUMPI INVALID JUMPDEST ADD SSTORE POP POP POP POP POP POP POP POP POP JUMP JUMPDEST PUSH1 0x3 SLOAD PUSH1 0x1 PUSH1 0x1 PUSH1 0xA0 SHL SUB SWAP1 DUP2 AND SWAP1 DUP3 AND DUP2 EQ PUSH2 0xCF0 JUMPI PUSH1 0x3 DUP1 SLOAD PUSH1 0x1 PUSH1 0x1 PUSH1 0xA0 SHL SUB NOT AND PUSH1 0x1 PUSH1 0x1 PUSH1 0xA0 SHL SUB DUP5 DUP2 AND SWAP2 DUP3 OR SWAP1 SWAP3 SSTORE PUSH1 0x40 DUP1 MLOAD SWAP3 DUP5 AND DUP4 MSTORE PUSH1 0x20 DUP4 ADD SWAP2 SWAP1 SWAP2 MSTORE DUP1 MLOAD PUSH32 0x793CB73064F3C8CDE7E187AE515511E6E56D1EE89BF08B82FA60FB70F8D48912 SWAP3 DUP2 SWAP1 SUB SWAP1 SWAP2 ADD SWAP1 LOG1 POP POP JUMP JUMPDEST PUSH2 0x448D PUSH2 0x45FF JUMP JUMPDEST PUSH1 0x0 JUMPDEST DUP4 MLOAD DUP2 LT ISZERO PUSH2 0x44F2 JUMPI PUSH1 0x0 DUP5 DUP3 DUP2 MLOAD DUP2 LT PUSH2 0x44A7 JUMPI INVALID JUMPDEST ADD PUSH1 0x20 ADD MLOAD PUSH1 0xF8 SHR SWAP1 POP PUSH2 0x44CC DUP5 DUP3 PUSH1 0x1F DUP2 LT PUSH2 0x44C0 JUMPI INVALID JUMPDEST PUSH1 0x20 MUL ADD MLOAD PUSH1 0x1 PUSH2 0x45AC JUMP JUMPDEST DUP5 DUP3 PUSH1 0xFF AND PUSH1 0x1F DUP2 LT PUSH2 0x44DB JUMPI INVALID JUMPDEST PUSH2 0xFFFF SWAP1 SWAP3 AND PUSH1 0x20 SWAP3 SWAP1 SWAP3 MUL ADD MSTORE POP PUSH1 0x1 ADD PUSH2 0x4490 JUMP JUMPDEST POP SWAP1 SWAP3 SWAP2 POP POP JUMP JUMPDEST PUSH1 0x0 DUP4 DUP4 DUP2 LT ISZERO PUSH2 0x450D JUMPI PUSH1 0x2 DUP6 DUP6 SUB DIV ADD JUMPDEST PUSH2 0x4517 DUP2 DUP5 PUSH2 0x40BC JUMP JUMPDEST SWAP6 SWAP5 POP POP POP POP POP JUMP JUMPDEST PUSH1 0x0 DUP2 DUP6 LT ISZERO PUSH2 0x4577 JUMPI PUSH1 0x40 DUP1 MLOAD PUSH3 0x461BCD PUSH1 0xE5 SHL DUP2 MSTORE PUSH1 0x20 PUSH1 0x4 DUP3 ADD DUP2 SWAP1 MSTORE PUSH1 0x24 DUP3 ADD MSTORE PUSH32 0x6761734C6566742063616E6E6F742065786365656420696E697469616C476173 PUSH1 0x44 DUP3 ADD MSTORE SWAP1 MLOAD SWAP1 DUP2 SWAP1 SUB PUSH1 0x64 ADD SWAP1 REVERT JUMPDEST DUP2 DUP6 SUB DUP4 ADD PUSH2 0x1793 ADD PUSH4 0x3B9ACA00 DUP6 DUP3 MUL MUL PUSH16 0xFFFFFFFFFFFFFFFFFFFFFFFFFFFFFFFF DUP2 LT PUSH2 0x45A2 JUMPI INVALID JUMPDEST SWAP7 SWAP6 POP POP POP POP POP POP JUMP JUMPDEST PUSH1 0x0 PUSH2 0x45C4 DUP3 PUSH2 0xFFFF AND DUP5 PUSH2 0xFFFF AND ADD PUSH2 0xFFFF PUSH2 0x40BC JUMP JUMPDEST SWAP4 SWAP3 POP POP POP JUMP JUMPDEST PUSH1 0x40 MLOAD DUP1 PUSH1 0xA0 ADD PUSH1 0x40 MSTORE DUP1 PUSH2 0x45DE PUSH2 0x46F9 JUMP JUMPDEST DUP2 MSTORE PUSH1 0x60 PUSH1 0x20 DUP3 ADD DUP2 SWAP1 MSTORE PUSH1 0x40 DUP3 ADD DUP2 SWAP1 MSTORE DUP1 DUP3 ADD MSTORE PUSH1 0x0 PUSH1 0x80 SWAP1 SWAP2 ADD MSTORE SWAP1 JUMP JUMPDEST PUSH1 0x40 MLOAD DUP1 PUSH2 0x3E0 ADD PUSH1 0x40 MSTORE DUP1 PUSH1 0x1F SWAP1 PUSH1 0x20 DUP3 MUL DUP1 CALLDATASIZE DUP4 CALLDATACOPY POP SWAP2 SWAP3 SWAP2 POP POP JUMP JUMPDEST PUSH1 0x40 DUP1 MLOAD DUP1 DUP3 ADD SWAP1 SWAP2 MSTORE PUSH1 0x0 DUP1 DUP3 MSTORE PUSH1 0x20 DUP3 ADD MSTORE SWAP1 JUMP JUMPDEST PUSH1 0x2 DUP4 ADD SWAP2 DUP4 SWAP1 DUP3 ISZERO PUSH2 0x46BB JUMPI SWAP2 PUSH1 0x20 MUL DUP3 ADD PUSH1 0x0 JUMPDEST DUP4 DUP3 GT ISZERO PUSH2 0x468B JUMPI DUP4 MLOAD DUP4 DUP3 PUSH2 0x100 EXP DUP2 SLOAD DUP2 PUSH2 0xFFFF MUL NOT AND SWAP1 DUP4 PUSH2 0xFFFF AND MUL OR SWAP1 SSTORE POP SWAP3 PUSH1 0x20 ADD SWAP3 PUSH1 0x2 ADD PUSH1 0x20 DUP2 PUSH1 0x1 ADD DIV SWAP3 DUP4 ADD SWAP3 PUSH1 0x1 SUB MUL PUSH2 0x464B JUMP JUMPDEST DUP1 ISZERO PUSH2 0x46B9 JUMPI DUP3 DUP2 PUSH2 0x100 EXP DUP2 SLOAD SWAP1 PUSH2 0xFFFF MUL NOT AND SWAP1 SSTORE PUSH1 0x2 ADD PUSH1 0x20 DUP2 PUSH1 0x1 ADD DIV SWAP3 DUP4 ADD SWAP3 PUSH1 0x1 SUB MUL PUSH2 0x468B JUMP JUMPDEST POP JUMPDEST POP PUSH2 0x46C7 SWAP3 SWAP2 POP PUSH2 0x4720 JUMP JUMPDEST POP SWAP1 JUMP JUMPDEST DUP3 PUSH1 0x1F DUP2 ADD SWAP3 DUP3 ISZERO PUSH2 0x46BB JUMPI SWAP2 PUSH1 0x20 MUL DUP3 ADD JUMPDEST DUP3 DUP2 GT ISZERO PUSH2 0x46BB JUMPI DUP3 MLOAD DUP3 SSTORE SWAP2 PUSH1 0x20 ADD SWAP2 SWAP1 PUSH1 0x1 ADD SWAP1 PUSH2 0x46DE JUMP JUMPDEST PUSH1 0x40 DUP1 MLOAD PUSH1 0x80 DUP2 ADD DUP3 MSTORE PUSH1 0x0 DUP1 DUP3 MSTORE PUSH1 0x20 DUP3 ADD DUP2 SWAP1 MSTORE SWAP2 DUP2 ADD DUP3 SWAP1 MSTORE PUSH1 0x60 DUP2 ADD SWAP2 SWAP1 SWAP2 MSTORE SWAP1 JUMP JUMPDEST JUMPDEST DUP1 DUP3 GT ISZERO PUSH2 0x46C7 JUMPI PUSH1 0x0 DUP2 SSTORE PUSH1 0x1 ADD PUSH2 0x4721 JUMP INVALID PUSH16 0x7261636C652061646472657373657320 PUSH16 0x7574206F662072656769737472617469 PUSH16 0x6EA2646970667358221220A1A8465652 0xB4 0x4D INVALID 0xC0 DUP5 STOP SWAP13 DUP4 KECCAK256 0xDD 0x2C 0xAB PUSH24 0x556276C98DA976877BA141D30C7264736F6C634300070600 CALLER "
        },
        "methodIdentifiers": {
          "LINK()": "1b6b6d23",
          "acceptOwnership()": "79ba5097",
          "acceptPayeeship(address)": "b121e147",
          "billingAccessController()": "996e8298",
          "decimals()": "313ce567",
          "description()": "7284e416",
          "getAnswer(uint256)": "b5ab58dc",
          "getBilling()": "29937268",
          "getRoundData(uint80)": "9a6fc8f5",
          "getTimestamp(uint256)": "b633620c",
          "latestAnswer()": "50d25bcd",
          "latestConfigDetails()": "81ff7048",
          "latestRound()": "668a0f02",
          "latestRoundData()": "feaf968c",
          "latestTimestamp()": "8205bf6a",
          "latestTransmissionDetails()": "e5fe4577",
          "linkAvailableForPayment()": "d09dc339",
          "maxAnswer()": "70da2f67",
          "minAnswer()": "22adbc78",
          "oracleObservationCount(address)": "e4902f82",
          "owedPayment(address)": "0eafb25b",
          "owner()": "8da5cb5b",
          "requestNewRound()": "98e5b12a",
          "requesterAccessController()": "70efdf2d",
          "setBilling(uint32,uint32,uint32,uint32,uint32)": "bd824706",
          "setBillingAccessController(address)": "fbffd2c1",
          "setConfig(address[],address[],uint8,uint64,bytes)": "585aa7de",
          "setPayees(address[],address[])": "9c849b30",
          "setRequesterAccessController(address)": "9e3ceeab",
          "setValidator(address)": "1327d3d8",
          "transferOwnership(address)": "f2fde38b",
          "transferPayeeship(address,address)": "eb5dcd6c",
          "transmit(bytes,bytes32[],bytes32[],bytes32)": "c9807539",
          "transmitters()": "81411834",
          "validator()": "3a5381b5",
          "version()": "54fd4d50",
          "withdrawFunds(address,uint256)": "c1075329",
          "withdrawPayment(address)": "8ac28d5a"
        }
      }
    }
  }
}