{
  "_format": "hh-sol-artifact-1",
  "contractName": "AccessControlledOffchainAggregator",
  "sourceName": "contracts/aggregator/AccessControlledOffchainAggregator.sol",
  "abi": [
    {
      "inputs": [
        {
          "internalType": "uint32",
          "name": "_maximumGasPrice",
          "type": "uint32"
        },
        {
          "internalType": "uint32",
          "name": "_reasonableGasPrice",
          "type": "uint32"
        },
        {
          "internalType": "uint32",
          "name": "_microLinkPerEth",
          "type": "uint32"
        },
        {
          "internalType": "uint32",
          "name": "_linkGweiPerObservation",
          "type": "uint32"
        },
        {
          "internalType": "uint32",
          "name": "_linkGweiPerTransmission",
          "type": "uint32"
        },
        {
          "internalType": "address",
          "name": "_link",
          "type": "address"
        },
        {
          "internalType": "address",
          "name": "_validator",
          "type": "address"
        },
        {
          "internalType": "int192",
          "name": "_minAnswer",
          "type": "int192"
        },
        {
          "internalType": "int192",
          "name": "_maxAnswer",
          "type": "int192"
        },
        {
          "internalType": "contract AccessControllerInterface",
          "name": "_billingAccessController",
          "type": "address"
        },
        {
          "internalType": "contract AccessControllerInterface",
          "name": "_requesterAccessController",
          "type": "address"
        },
        {
          "internalType": "uint8",
          "name": "_decimals",
          "type": "uint8"
        },
        {
          "internalType": "string",
          "name": "description",
          "type": "string"
        }
      ],
      "stateMutability": "nonpayable",
      "type": "constructor"
    },
    {
      "anonymous": false,
      "inputs": [
        {
          "indexed": false,
          "internalType": "address",
          "name": "user",
          "type": "address"
        }
      ],
      "name": "AddedAccess",
      "type": "event"
    },
    {
      "anonymous": false,
      "inputs": [
        {
          "indexed": true,
          "internalType": "int256",
          "name": "current",
          "type": "int256"
        },
        {
          "indexed": true,
          "internalType": "uint256",
          "name": "roundId",
          "type": "uint256"
        },
        {
          "indexed": false,
          "internalType": "uint256",
          "name": "updatedAt",
          "type": "uint256"
        }
      ],
      "name": "AnswerUpdated",
      "type": "event"
    },
    {
      "anonymous": false,
      "inputs": [
        {
          "indexed": false,
          "internalType": "contract AccessControllerInterface",
          "name": "old",
          "type": "address"
        },
        {
          "indexed": false,
          "internalType": "contract AccessControllerInterface",
          "name": "current",
          "type": "address"
        }
      ],
      "name": "BillingAccessControllerSet",
      "type": "event"
    },
    {
      "anonymous": false,
      "inputs": [
        {
          "indexed": false,
          "internalType": "uint32",
          "name": "maximumGasPrice",
          "type": "uint32"
        },
        {
          "indexed": false,
          "internalType": "uint32",
          "name": "reasonableGasPrice",
          "type": "uint32"
        },
        {
          "indexed": false,
          "internalType": "uint32",
          "name": "microLinkPerEth",
          "type": "uint32"
        },
        {
          "indexed": false,
          "internalType": "uint32",
          "name": "linkGweiPerObservation",
          "type": "uint32"
        },
        {
          "indexed": false,
          "internalType": "uint32",
          "name": "linkGweiPerTransmission",
          "type": "uint32"
        }
      ],
      "name": "BillingSet",
      "type": "event"
    },
    {
      "anonymous": false,
      "inputs": [],
      "name": "CheckAccessDisabled",
      "type": "event"
    },
    {
      "anonymous": false,
      "inputs": [],
      "name": "CheckAccessEnabled",
      "type": "event"
    },
    {
      "anonymous": false,
      "inputs": [
        {
          "indexed": false,
          "internalType": "uint32",
          "name": "previousConfigBlockNumber",
          "type": "uint32"
        },
        {
          "indexed": false,
          "internalType": "uint64",
          "name": "configCount",
          "type": "uint64"
        },
        {
          "indexed": false,
          "internalType": "address[]",
          "name": "signers",
          "type": "address[]"
        },
        {
          "indexed": false,
          "internalType": "address[]",
          "name": "transmitters",
          "type": "address[]"
        },
        {
          "indexed": false,
          "internalType": "uint8",
          "name": "threshold",
          "type": "uint8"
        },
        {
          "indexed": false,
          "internalType": "uint64",
          "name": "encodedConfigVersion",
          "type": "uint64"
        },
        {
          "indexed": false,
          "internalType": "bytes",
          "name": "encoded",
          "type": "bytes"
        }
      ],
      "name": "ConfigSet",
      "type": "event"
    },
    {
      "anonymous": false,
      "inputs": [
        {
          "indexed": true,
          "internalType": "uint256",
          "name": "roundId",
          "type": "uint256"
        },
        {
          "indexed": true,
          "internalType": "address",
          "name": "startedBy",
          "type": "address"
        },
        {
          "indexed": false,
          "internalType": "uint256",
          "name": "startedAt",
          "type": "uint256"
        }
      ],
      "name": "NewRound",
      "type": "event"
    },
    {
      "anonymous": false,
      "inputs": [
        {
          "indexed": true,
          "internalType": "uint32",
          "name": "aggregatorRoundId",
          "type": "uint32"
        },
        {
          "indexed": false,
          "internalType": "int192",
          "name": "answer",
          "type": "int192"
        },
        {
          "indexed": false,
          "internalType": "address",
          "name": "transmitter",
          "type": "address"
        },
        {
          "indexed": false,
          "internalType": "int192[]",
          "name": "observations",
          "type": "int192[]"
        },
        {
          "indexed": false,
          "internalType": "bytes",
          "name": "observers",
          "type": "bytes"
        },
        {
          "indexed": false,
          "internalType": "bytes32",
          "name": "rawReportContext",
          "type": "bytes32"
        }
      ],
      "name": "NewTransmission",
      "type": "event"
    },
    {
      "anonymous": false,
      "inputs": [
        {
          "indexed": false,
          "internalType": "address",
          "name": "transmitter",
          "type": "address"
        },
        {
          "indexed": false,
          "internalType": "address",
          "name": "payee",
          "type": "address"
        },
        {
          "indexed": false,
          "internalType": "uint256",
          "name": "amount",
          "type": "uint256"
        }
      ],
      "name": "OraclePaid",
      "type": "event"
    },
    {
      "anonymous": false,
      "inputs": [
        {
          "indexed": true,
          "internalType": "address",
          "name": "from",
          "type": "address"
        },
        {
          "indexed": true,
          "internalType": "address",
          "name": "to",
          "type": "address"
        }
      ],
      "name": "OwnershipTransferRequested",
      "type": "event"
    },
    {
      "anonymous": false,
      "inputs": [
        {
          "indexed": true,
          "internalType": "address",
          "name": "from",
          "type": "address"
        },
        {
          "indexed": true,
          "internalType": "address",
          "name": "to",
          "type": "address"
        }
      ],
      "name": "OwnershipTransferred",
      "type": "event"
    },
    {
      "anonymous": false,
      "inputs": [
        {
          "indexed": true,
          "internalType": "address",
          "name": "transmitter",
          "type": "address"
        },
        {
          "indexed": true,
          "internalType": "address",
          "name": "current",
          "type": "address"
        },
        {
          "indexed": true,
          "internalType": "address",
          "name": "proposed",
          "type": "address"
        }
      ],
      "name": "PayeeshipTransferRequested",
      "type": "event"
    },
    {
      "anonymous": false,
      "inputs": [
        {
          "indexed": true,
          "internalType": "address",
          "name": "transmitter",
          "type": "address"
        },
        {
          "indexed": true,
          "internalType": "address",
          "name": "previous",
          "type": "address"
        },
        {
          "indexed": true,
          "internalType": "address",
          "name": "current",
          "type": "address"
        }
      ],
      "name": "PayeeshipTransferred",
      "type": "event"
    },
    {
      "anonymous": false,
      "inputs": [
        {
          "indexed": false,
          "internalType": "address",
          "name": "user",
          "type": "address"
        }
      ],
      "name": "RemovedAccess",
      "type": "event"
    },
    {
      "anonymous": false,
      "inputs": [
        {
          "indexed": false,
          "internalType": "contract AccessControllerInterface",
          "name": "old",
          "type": "address"
        },
        {
          "indexed": false,
          "internalType": "contract AccessControllerInterface",
          "name": "current",
          "type": "address"
        }
      ],
      "name": "RequesterAccessControllerSet",
      "type": "event"
    },
    {
      "anonymous": false,
      "inputs": [
        {
          "indexed": true,
          "internalType": "address",
          "name": "requester",
          "type": "address"
        },
        {
          "indexed": false,
          "internalType": "bytes16",
          "name": "configDigest",
          "type": "bytes16"
        },
        {
          "indexed": false,
          "internalType": "uint32",
          "name": "epoch",
          "type": "uint32"
        },
        {
          "indexed": false,
          "internalType": "uint8",
          "name": "round",
          "type": "uint8"
        }
      ],
      "name": "RoundRequested",
      "type": "event"
    },
    {
      "anonymous": false,
      "inputs": [
        {
          "indexed": true,
          "internalType": "address",
          "name": "previous",
          "type": "address"
        },
        {
          "indexed": true,
          "internalType": "address",
          "name": "current",
          "type": "address"
        }
      ],
      "name": "ValidatorUpdated",
      "type": "event"
    },
    {
      "inputs": [],
      "name": "LINK",
      "outputs": [
        {
          "internalType": "contract LinkTokenInterface",
          "name": "",
          "type": "address"
        }
      ],
      "stateMutability": "view",
      "type": "function"
    },
    {
      "inputs": [],
      "name": "acceptOwnership",
      "outputs": [],
      "stateMutability": "nonpayable",
      "type": "function"
    },
    {
      "inputs": [
        {
          "internalType": "address",
          "name": "_transmitter",
          "type": "address"
        }
      ],
      "name": "acceptPayeeship",
      "outputs": [],
      "stateMutability": "nonpayable",
      "type": "function"
    },
    {
      "inputs": [
        {
          "internalType": "address",
          "name": "_user",
          "type": "address"
        }
      ],
      "name": "addAccess",
      "outputs": [],
      "stateMutability": "nonpayable",
      "type": "function"
    },
    {
      "inputs": [],
      "name": "billingAccessController",
      "outputs": [
        {
          "internalType": "contract AccessControllerInterface",
          "name": "",
          "type": "address"
        }
      ],
      "stateMutability": "view",
      "type": "function"
    },
    {
      "inputs": [],
      "name": "checkEnabled",
      "outputs": [
        {
          "internalType": "bool",
          "name": "",
          "type": "bool"
        }
      ],
      "stateMutability": "view",
      "type": "function"
    },
    {
      "inputs": [],
      "name": "decimals",
      "outputs": [
        {
          "internalType": "uint8",
          "name": "",
          "type": "uint8"
        }
      ],
      "stateMutability": "view",
      "type": "function"
    },
    {
      "inputs": [],
      "name": "description",
      "outputs": [
        {
          "internalType": "string",
          "name": "",
          "type": "string"
        }
      ],
      "stateMutability": "view",
      "type": "function"
    },
    {
      "inputs": [],
      "name": "disableAccessCheck",
      "outputs": [],
      "stateMutability": "nonpayable",
      "type": "function"
    },
    {
      "inputs": [],
      "name": "enableAccessCheck",
      "outputs": [],
      "stateMutability": "nonpayable",
      "type": "function"
    },
    {
      "inputs": [
        {
          "internalType": "uint256",
          "name": "_roundId",
          "type": "uint256"
        }
      ],
      "name": "getAnswer",
      "outputs": [
        {
          "internalType": "int256",
          "name": "",
          "type": "int256"
        }
      ],
      "stateMutability": "view",
      "type": "function"
    },
    {
      "inputs": [],
      "name": "getBilling",
      "outputs": [
        {
          "internalType": "uint32",
          "name": "maximumGasPrice",
          "type": "uint32"
        },
        {
          "internalType": "uint32",
          "name": "reasonableGasPrice",
          "type": "uint32"
        },
        {
          "internalType": "uint32",
          "name": "microLinkPerEth",
          "type": "uint32"
        },
        {
          "internalType": "uint32",
          "name": "linkGweiPerObservation",
          "type": "uint32"
        },
        {
          "internalType": "uint32",
          "name": "linkGweiPerTransmission",
          "type": "uint32"
        }
      ],
      "stateMutability": "view",
      "type": "function"
    },
    {
      "inputs": [
        {
          "internalType": "uint80",
          "name": "_roundId",
          "type": "uint80"
        }
      ],
      "name": "getRoundData",
      "outputs": [
        {
          "internalType": "uint80",
          "name": "roundId",
          "type": "uint80"
        },
        {
          "internalType": "int256",
          "name": "answer",
          "type": "int256"
        },
        {
          "internalType": "uint256",
          "name": "startedAt",
          "type": "uint256"
        },
        {
          "internalType": "uint256",
          "name": "updatedAt",
          "type": "uint256"
        },
        {
          "internalType": "uint80",
          "name": "answeredInRound",
          "type": "uint80"
        }
      ],
      "stateMutability": "view",
      "type": "function"
    },
    {
      "inputs": [
        {
          "internalType": "uint256",
          "name": "_roundId",
          "type": "uint256"
        }
      ],
      "name": "getTimestamp",
      "outputs": [
        {
          "internalType": "uint256",
          "name": "",
          "type": "uint256"
        }
      ],
      "stateMutability": "view",
      "type": "function"
    },
    {
      "inputs": [
        {
          "internalType": "address",
          "name": "_user",
          "type": "address"
        },
        {
          "internalType": "bytes",
          "name": "_calldata",
          "type": "bytes"
        }
      ],
      "name": "hasAccess",
      "outputs": [
        {
          "internalType": "bool",
          "name": "",
          "type": "bool"
        }
      ],
      "stateMutability": "view",
      "type": "function"
    },
    {
      "inputs": [],
      "name": "latestAnswer",
      "outputs": [
        {
          "internalType": "int256",
          "name": "",
          "type": "int256"
        }
      ],
      "stateMutability": "view",
      "type": "function"
    },
    {
      "inputs": [],
      "name": "latestConfigDetails",
      "outputs": [
        {
          "internalType": "uint32",
          "name": "configCount",
          "type": "uint32"
        },
        {
          "internalType": "uint32",
          "name": "blockNumber",
          "type": "uint32"
        },
        {
          "internalType": "bytes16",
          "name": "configDigest",
          "type": "bytes16"
        }
      ],
      "stateMutability": "view",
      "type": "function"
    },
    {
      "inputs": [],
      "name": "latestRound",
      "outputs": [
        {
          "internalType": "uint256",
          "name": "",
          "type": "uint256"
        }
      ],
      "stateMutability": "view",
      "type": "function"
    },
    {
      "inputs": [],
      "name": "latestRoundData",
      "outputs": [
        {
          "internalType": "uint80",
          "name": "roundId",
          "type": "uint80"
        },
        {
          "internalType": "int256",
          "name": "answer",
          "type": "int256"
        },
        {
          "internalType": "uint256",
          "name": "startedAt",
          "type": "uint256"
        },
        {
          "internalType": "uint256",
          "name": "updatedAt",
          "type": "uint256"
        },
        {
          "internalType": "uint80",
          "name": "answeredInRound",
          "type": "uint80"
        }
      ],
      "stateMutability": "view",
      "type": "function"
    },
    {
      "inputs": [],
      "name": "latestTimestamp",
      "outputs": [
        {
          "internalType": "uint256",
          "name": "",
          "type": "uint256"
        }
      ],
      "stateMutability": "view",
      "type": "function"
    },
    {
      "inputs": [],
      "name": "latestTransmissionDetails",
      "outputs": [
        {
          "internalType": "bytes16",
          "name": "configDigest",
          "type": "bytes16"
        },
        {
          "internalType": "uint32",
          "name": "epoch",
          "type": "uint32"
        },
        {
          "internalType": "uint8",
          "name": "round",
          "type": "uint8"
        },
        {
          "internalType": "int192",
          "name": "latestAnswer",
          "type": "int192"
        },
        {
          "internalType": "uint64",
          "name": "latestTimestamp",
          "type": "uint64"
        }
      ],
      "stateMutability": "view",
      "type": "function"
    },
    {
      "inputs": [],
      "name": "linkAvailableForPayment",
      "outputs": [
        {
          "internalType": "int256",
          "name": "availableBalance",
          "type": "int256"
        }
      ],
      "stateMutability": "view",
      "type": "function"
    },
    {
      "inputs": [],
      "name": "maxAnswer",
      "outputs": [
        {
          "internalType": "int192",
          "name": "",
          "type": "int192"
        }
      ],
      "stateMutability": "view",
      "type": "function"
    },
    {
      "inputs": [],
      "name": "minAnswer",
      "outputs": [
        {
          "internalType": "int192",
          "name": "",
          "type": "int192"
        }
      ],
      "stateMutability": "view",
      "type": "function"
    },
    {
      "inputs": [
        {
          "internalType": "address",
          "name": "_signerOrTransmitter",
          "type": "address"
        }
      ],
      "name": "oracleObservationCount",
      "outputs": [
        {
          "internalType": "uint16",
          "name": "",
          "type": "uint16"
        }
      ],
      "stateMutability": "view",
      "type": "function"
    },
    {
      "inputs": [
        {
          "internalType": "address",
          "name": "_transmitter",
          "type": "address"
        }
      ],
      "name": "owedPayment",
      "outputs": [
        {
          "internalType": "uint256",
          "name": "",
          "type": "uint256"
        }
      ],
      "stateMutability": "view",
      "type": "function"
    },
    {
      "inputs": [],
      "name": "owner",
      "outputs": [
        {
          "internalType": "address payable",
          "name": "",
          "type": "address"
        }
      ],
      "stateMutability": "view",
      "type": "function"
    },
    {
      "inputs": [
        {
          "internalType": "address",
          "name": "_user",
          "type": "address"
        }
      ],
      "name": "removeAccess",
      "outputs": [],
      "stateMutability": "nonpayable",
      "type": "function"
    },
    {
      "inputs": [],
      "name": "requestNewRound",
      "outputs": [
        {
          "internalType": "uint80",
          "name": "",
          "type": "uint80"
        }
      ],
      "stateMutability": "nonpayable",
      "type": "function"
    },
    {
      "inputs": [],
      "name": "requesterAccessController",
      "outputs": [
        {
          "internalType": "contract AccessControllerInterface",
          "name": "",
          "type": "address"
        }
      ],
      "stateMutability": "view",
      "type": "function"
    },
    {
      "inputs": [
        {
          "internalType": "uint32",
          "name": "_maximumGasPrice",
          "type": "uint32"
        },
        {
          "internalType": "uint32",
          "name": "_reasonableGasPrice",
          "type": "uint32"
        },
        {
          "internalType": "uint32",
          "name": "_microLinkPerEth",
          "type": "uint32"
        },
        {
          "internalType": "uint32",
          "name": "_linkGweiPerObservation",
          "type": "uint32"
        },
        {
          "internalType": "uint32",
          "name": "_linkGweiPerTransmission",
          "type": "uint32"
        }
      ],
      "name": "setBilling",
      "outputs": [],
      "stateMutability": "nonpayable",
      "type": "function"
    },
    {
      "inputs": [
        {
          "internalType": "contract AccessControllerInterface",
          "name": "_billingAccessController",
          "type": "address"
        }
      ],
      "name": "setBillingAccessController",
      "outputs": [],
      "stateMutability": "nonpayable",
      "type": "function"
    },
    {
      "inputs": [
        {
          "internalType": "address[]",
          "name": "_signers",
          "type": "address[]"
        },
        {
          "internalType": "address[]",
          "name": "_transmitters",
          "type": "address[]"
        },
        {
          "internalType": "uint8",
          "name": "_threshold",
          "type": "uint8"
        },
        {
          "internalType": "uint64",
          "name": "_encodedConfigVersion",
          "type": "uint64"
        },
        {
          "internalType": "bytes",
          "name": "_encoded",
          "type": "bytes"
        }
      ],
      "name": "setConfig",
      "outputs": [],
      "stateMutability": "nonpayable",
      "type": "function"
    },
    {
      "inputs": [
        {
          "internalType": "address[]",
          "name": "_transmitters",
          "type": "address[]"
        },
        {
          "internalType": "address[]",
          "name": "_payees",
          "type": "address[]"
        }
      ],
      "name": "setPayees",
      "outputs": [],
      "stateMutability": "nonpayable",
      "type": "function"
    },
    {
      "inputs": [
        {
          "internalType": "contract AccessControllerInterface",
          "name": "_requesterAccessController",
          "type": "address"
        }
      ],
      "name": "setRequesterAccessController",
      "outputs": [],
      "stateMutability": "nonpayable",
      "type": "function"
    },
    {
      "inputs": [
        {
          "internalType": "address",
          "name": "_newValidator",
          "type": "address"
        }
      ],
      "name": "setValidator",
      "outputs": [],
      "stateMutability": "nonpayable",
      "type": "function"
    },
    {
      "inputs": [
        {
          "internalType": "address",
          "name": "_to",
          "type": "address"
        }
      ],
      "name": "transferOwnership",
      "outputs": [],
      "stateMutability": "nonpayable",
      "type": "function"
    },
    {
      "inputs": [
        {
          "internalType": "address",
          "name": "_transmitter",
          "type": "address"
        },
        {
          "internalType": "address",
          "name": "_proposed",
          "type": "address"
        }
      ],
      "name": "transferPayeeship",
      "outputs": [],
      "stateMutability": "nonpayable",
      "type": "function"
    },
    {
      "inputs": [
        {
          "internalType": "bytes",
          "name": "_report",
          "type": "bytes"
        },
        {
          "internalType": "bytes32[]",
          "name": "_rs",
          "type": "bytes32[]"
        },
        {
          "internalType": "bytes32[]",
          "name": "_ss",
          "type": "bytes32[]"
        },
        {
          "internalType": "bytes32",
          "name": "_rawVs",
          "type": "bytes32"
        }
      ],
      "name": "transmit",
      "outputs": [],
      "stateMutability": "nonpayable",
      "type": "function"
    },
    {
      "inputs": [],
      "name": "transmitters",
      "outputs": [
        {
          "internalType": "address[]",
          "name": "",
          "type": "address[]"
        }
      ],
      "stateMutability": "view",
      "type": "function"
    },
    {
      "inputs": [],
      "name": "validator",
      "outputs": [
        {
          "internalType": "contract AggregatorValidatorInterface",
          "name": "",
          "type": "address"
        }
      ],
      "stateMutability": "view",
      "type": "function"
    },
    {
      "inputs": [],
      "name": "version",
      "outputs": [
        {
          "internalType": "uint256",
          "name": "",
          "type": "uint256"
        }
      ],
      "stateMutability": "view",
      "type": "function"
    },
    {
      "inputs": [
        {
          "internalType": "address",
          "name": "_recipient",
          "type": "address"
        },
        {
          "internalType": "uint256",
          "name": "_amount",
          "type": "uint256"
        }
      ],
      "name": "withdrawFunds",
      "outputs": [],
      "stateMutability": "nonpayable",
      "type": "function"
    },
    {
      "inputs": [
        {
          "internalType": "address",
          "name": "_transmitter",
          "type": "address"
        }
      ],
      "name": "withdrawPayment",
      "outputs": [],
      "stateMutability": "nonpayable",
      "type": "function"
    }
  ],
  "bytecode": "0x6101006040523480156200001257600080fd5b50604051620058b0380380620058b083398181016040526101a08110156200003957600080fd5b815160208301516040808501516060860151608087015160a088015160c089015160e08a01516101008b01516101208c01516101408d01516101608e01516101808f0180519b519d9f9c9e9a9d999c989b979a96999598949793969295919491939282019284640100000000821115620000b257600080fd5b908301906020820185811115620000c857600080fd5b8251640100000000811182820188101715620000e357600080fd5b82525081516020918201929091019080838360005b8381101562000112578181015183820152602001620000f8565b50505050905090810190601f168015620001405780820380516001836020036101000a031916815260200191505b506040525050600080546001600160a01b03191633179055508c8c8c8c8c8c8c8c8c8c8c8c8c8c8c8c8c8c8c896200017c8787878787620002da565b6200018781620003cc565b6001600160601b0319606083901b16608052620001a362000602565b620001ad62000602565b60005b601f8160ff161015620001fd576001838260ff16601f8110620001cf57fe5b61ffff909216602092909202015260018260ff8316601f8110620001ef57fe5b6020020152600101620001b0565b506200020d600483601f62000621565b506200021d600882601f620006be565b505050505060f887901b7fff000000000000000000000000000000000000000000000000000000000000001660e05250508351620002669350602e9250602085019150620006ef565b50620002728362000445565b6200027d876200051d565b8560170b60a08160170b60401b815250508460170b60c08160170b60401b81525050505050505050505050505050506001602f60006101000a81548160ff0219169083151502179055505050505050505050505050505062000788565b6040805160a0808201835263ffffffff88811680845288821660208086018290528984168688018190528985166060808901829052958a1660809889018190526002805463ffffffff1916871763ffffffff60201b191664010000000087021763ffffffff60401b19166801000000000000000085021763ffffffff60601b19166c0100000000000000000000000084021763ffffffff60801b1916600160801b830217905589519586529285019390935283880152928201529283015291517fd0d9486a2c673e2a4b57fc82e4c8a556b3e2b82dd5db07e2c04a920ca0f469b6929181900390910190a15050505050565b6003546001600160a01b0390811690821681146200044157600380546001600160a01b0319166001600160a01b03848116918217909255604080519284168352602083019190915280517f793cb73064f3c8cde7e187ae515511e6e56d1ee89bf08b82fa60fb70f8d489129281900390910190a15b5050565b6000546001600160a01b03163314620004a5576040805162461bcd60e51b815260206004820152601660248201527f4f6e6c792063616c6c61626c65206279206f776e657200000000000000000000604482015290519081900360640190fd5b602d546001600160a01b0390811690821681146200044157602d80546001600160a01b0319166001600160a01b03848116918217909255604080519284168352602083019190915280517f27b89aede8b560578baaa25ee5ce3852c5eecad1e114b941bbd89e1eb4bae6349281900390910190a15050565b6000546001600160a01b031633146200057d576040805162461bcd60e51b815260206004820152601660248201527f4f6e6c792063616c6c61626c65206279206f776e657200000000000000000000604482015290519081900360640190fd5b602c546001600160a01b0368010000000000000000909104811690821681146200044157602c8054600160401b600160e01b031916680100000000000000006001600160a01b0385811691820292909217909255604051908316907fcfac5dc75b8d9a7e074162f59d9adcd33da59f0fe8dfb21580db298fc0fdad0d90600090a35050565b604051806103e00160405280601f906020820280368337509192915050565b600283019183908215620006ac5791602002820160005b838211156200067a57835183826101000a81548161ffff021916908361ffff160217905550926020019260020160208160010104928301926001030262000638565b8015620006aa5782816101000a81549061ffff02191690556002016020816001010492830192600103026200067a565b505b50620006ba92915062000771565b5090565b82601f8101928215620006ac579160200282015b82811115620006ac578251825591602001919060010190620006d2565b828054600181600116156101000203166002900490600052602060002090601f016020900481019282620007275760008555620006ac565b82601f106200074257805160ff1916838001178555620006ac565b82800160010185558215620006ac5791820182811115620006ac578251825591602001919060010190620006d2565b5b80821115620006ba576000815560010162000772565b60805160601c60a05160401c60c05160401c60e05160f81c6150c3620007ed60003980610fc952508061191352806133e8525080610f4352806133bb525080610f1f528061279a528061288a52806137b15280613da5528061452152506150c36000f3fe608060405234801561001057600080fd5b50600436106102f45760003560e01c80638ac28d5a11610191578063bd824706116100e3578063e4902f8211610097578063f2fde38b11610071578063f2fde38b14610c18578063fbffd2c114610c3e578063feaf968c14610c64576102f4565b8063e4902f8214610b52578063e5fe457714610b8f578063eb5dcd6c14610bea576102f4565b8063c9807539116100c8578063c980753914610a2e578063d09dc33914610b42578063dc7f012414610b4a576102f4565b8063bd824706146109bd578063c107532914610a02576102f4565b80639c849b3011610145578063b121e1471161011f578063b121e1471461095d578063b5ab58dc14610983578063b633620c146109a0576102f4565b80639c849b301461084f5780639e3ceeab14610911578063a118f24914610937576102f4565b806398e5b12a1161017657806398e5b12a146107ad578063996e8298146107d45780639a6fc8f5146107dc576102f4565b80638ac28d5a1461077f5780638da5cb5b146107a5576102f4565b8063668a0f021161024a57806379ba5097116101fe57806381ff7048116101d857806381ff70481461070f5780638205bf6a146107515780638823da6c14610759576102f4565b806379ba5097146106a75780638038e4a1146106af57806381411834146106b7576102f4565b806370da2f671161022f57806370da2f671461061a57806370efdf2d146106225780637284e4161461062a576102f4565b8063668a0f02146105485780636b14daf814610550576102f4565b806329937268116102ac57806350d25bcd1161028657806350d25bcd1461040b57806354fd4d5014610413578063585aa7de1461041b576102f4565b806329937268146103a4578063313ce567146103e55780633a5381b514610403576102f4565b80631327d3d8116102dd5780631327d3d81461033b5780631b6b6d231461036157806322adbc7814610385576102f4565b80630a756983146102f95780630eafb25b14610303575b600080fd5b610301610c6c565b005b6103296004803603602081101561031957600080fd5b50356001600160a01b0316610d05565b60408051918252519081900360200190f35b6103016004803603602081101561035157600080fd5b50356001600160a01b0316610e35565b610369610f1d565b604080516001600160a01b039092168252519081900360200190f35b61038d610f41565b6040805160179290920b8252519081900360200190f35b6103ac610f65565b6040805163ffffffff96871681529486166020860152928516848401529084166060840152909216608082015290519081900360a00190f35b6103ed610fc7565b6040805160ff9092168252519081900360200190f35b610369610feb565b610329611001565b61032961108e565b610301600480360360a081101561043157600080fd5b81019060208101813564010000000081111561044c57600080fd5b82018360208201111561045e57600080fd5b8035906020019184602083028401116401000000008311171561048057600080fd5b91939092909160208101903564010000000081111561049e57600080fd5b8201836020820111156104b057600080fd5b803590602001918460208302840111640100000000831117156104d257600080fd5b9193909260ff8335169267ffffffffffffffff60208201351692919060608101906040013564010000000081111561050957600080fd5b82018360208201111561051b57600080fd5b8035906020019184600183028401116401000000008311171561053d57600080fd5b509092509050611093565b610329611861565b6106066004803603604081101561056657600080fd5b6001600160a01b03823516919081019060408101602082013564010000000081111561059157600080fd5b8201836020820111156105a357600080fd5b803590602001918460018302840111640100000000831117156105c557600080fd5b91908080601f0160208091040260200160405190810160405280939291908181526020018383808284376000920191909152509295506118e9945050505050565b604080519115158252519081900360200190f35b61038d611911565b610369611935565b610632611944565b6040805160208082528351818301528351919283929083019185019080838360005b8381101561066c578181015183820152602001610654565b50505050905090810190601f1680156106995780820380516001836020036101000a031916815260200191505b509250505060405180910390f35b6103016119cc565b610301611a82565b6106bf611b1c565b60408051602080825283518183015283519192839290830191858101910280838360005b838110156106fb5781810151838201526020016106e3565b505050509050019250505060405180910390f35b610717611b7e565b6040805163ffffffff94851681529290931660208301526fffffffffffffffffffffffffffffffff19168183015290519081900360600190f35b610329611b9f565b6103016004803603602081101561076f57600080fd5b50356001600160a01b0316611c27565b6103016004803603602081101561079557600080fd5b50356001600160a01b0316611cf9565b610369611d70565b6107b5611d7f565b6040805169ffffffffffffffffffff9092168252519081900360200190f35b610369611f5b565b610805600480360360208110156107f257600080fd5b503569ffffffffffffffffffff16611f6a565b604051808669ffffffffffffffffffff1681526020018581526020018481526020018381526020018269ffffffffffffffffffff1681526020019550505050505060405180910390f35b6103016004803603604081101561086557600080fd5b81019060208101813564010000000081111561088057600080fd5b82018360208201111561089257600080fd5b803590602001918460208302840111640100000000831117156108b457600080fd5b9193909290916020810190356401000000008111156108d257600080fd5b8201836020820111156108e457600080fd5b8035906020019184602083028401116401000000008311171561090657600080fd5b50909250905061200b565b6103016004803603602081101561092757600080fd5b50356001600160a01b0316612225565b6103016004803603602081101561094d57600080fd5b50356001600160a01b03166122f4565b6103016004803603602081101561097357600080fd5b50356001600160a01b0316612355565b6103296004803603602081101561099957600080fd5b5035612436565b610329600480360360208110156109b657600080fd5b50356124bf565b610301600480360360a08110156109d357600080fd5b5063ffffffff813581169160208101358216916040820135811691606081013582169160809091013516612548565b61030160048036036040811015610a1857600080fd5b506001600160a01b038135169060200135612677565b61030160048036036080811015610a4457600080fd5b810190602081018135640100000000811115610a5f57600080fd5b820183602082011115610a7157600080fd5b80359060200191846001830284011164010000000083111715610a9357600080fd5b919390929091602081019035640100000000811115610ab157600080fd5b820183602082011115610ac357600080fd5b80359060200191846020830284011164010000000083111715610ae557600080fd5b919390929091602081019035640100000000811115610b0357600080fd5b820183602082011115610b1557600080fd5b80359060200191846020830284011164010000000083111715610b3757600080fd5b919350915035612982565b6103296137ac565b61060661385d565b610b7860048036036020811015610b6857600080fd5b50356001600160a01b0316613866565b6040805161ffff9092168252519081900360200190f35b610b97613913565b604080516fffffffffffffffffffffffffffffffff19909616865263ffffffff909416602086015260ff9092168484015260170b606084015267ffffffffffffffff166080830152519081900360a00190f35b61030160048036036040811015610c0057600080fd5b506001600160a01b03813581169160200135166139cd565b61030160048036036020811015610c2e57600080fd5b50356001600160a01b0316613b11565b61030160048036036020811015610c5457600080fd5b50356001600160a01b0316613bba565b610805613c1b565b6000546001600160a01b03163314610cc4576040805162461bcd60e51b815260206004820152601660248201527527b7363c9031b0b63630b1363290313c9037bbb732b960511b604482015290519081900360640190fd5b602f5460ff1615610d0357602f805460ff191690556040517f3be8a977a014527b50ae38adda80b56911c267328965c98ddc385d248f53963890600090a15b565b6001600160a01b03811660009081526027602090815260408083208151808301909252805460ff808216845285948401916101009004166002811115610d4757fe5b6002811115610d5257fe5b9052509050600081602001516002811115610d6957fe5b1415610d79576000915050610e30565b6040805160a08101825260025463ffffffff8082168352640100000000820481166020840152600160401b8204811693830193909352600160601b8104831660608301819052600160801b90910490921660808201528251909160009160019060049060ff16601f8110610de957fe5b601091828204019190066002029054906101000a900461ffff160361ffff1602633b9aca0002905060016008846000015160ff16601f8110610e2757fe5b01540301925050505b919050565b6000546001600160a01b03163314610e8d576040805162461bcd60e51b815260206004820152601660248201527527b7363c9031b0b63630b1363290313c9037bbb732b960511b604482015290519081900360640190fd5b602c546001600160a01b03600160401b90910481169082168114610f1957602c80547fffffffff0000000000000000000000000000000000000000ffffffffffffffff16600160401b6001600160a01b0385811691820292909217909255604051908316907fcfac5dc75b8d9a7e074162f59d9adcd33da59f0fe8dfb21580db298fc0fdad0d90600090a35b5050565b7f000000000000000000000000000000000000000000000000000000000000000081565b7f000000000000000000000000000000000000000000000000000000000000000081565b6040805160a08101825260025463ffffffff8082168084526401000000008304821660208501819052600160401b84048316958501869052600160601b8404831660608601819052600160801b90940490921660809094018490529490939290565b7f000000000000000000000000000000000000000000000000000000000000000081565b602c54600160401b90046001600160a01b031690565b6000611044336000368080601f0160208091040260200160405190810160405280939291908181526020018383808284376000920191909152506118e992505050565b611081576040805162461bcd60e51b81526020600482015260096024820152684e6f2061636365737360b81b604482015290519081900360640190fd5b611089613cba565b905090565b600481565b868560ff8616601f8311156110ef576040805162461bcd60e51b815260206004820152601060248201527f746f6f206d616e79207369676e65727300000000000000000000000000000000604482015290519081900360640190fd5b60008111611144576040805162461bcd60e51b815260206004820152601a60248201527f7468726573686f6c64206d75737420626520706f736974697665000000000000604482015290519081900360640190fd5b8183146111825760405162461bcd60e51b815260040180806020018281038252602481526020018061506a6024913960400191505060405180910390fd5b8060030283116111d9576040805162461bcd60e51b815260206004820181905260248201527f6661756c74792d6f7261636c65207468726573686f6c6420746f6f2068696768604482015290519081900360640190fd5b6000546001600160a01b03163314611231576040805162461bcd60e51b815260206004820152601660248201527527b7363c9031b0b63630b1363290313c9037bbb732b960511b604482015290519081900360640190fd5b6028541561132e57602880546000198101916000918390811061125057fe5b6000918252602082200154602980546001600160a01b039092169350908490811061127757fe5b6000918252602090912001546001600160a01b0316905061129781613ce3565b6001600160a01b03808316600090815260276020526040808220805461ffff19908116909155928416825290208054909116905560288054806112d657fe5b600082815260209020810160001990810180546001600160a01b0319169055019055602980548061130357fe5b600082815260209020810160001990810180546001600160a01b031916905501905550611231915050565b60005b8a811015611696576000602760008e8e8581811061134b57fe5b602090810292909201356001600160a01b031683525081019190915260400160002054610100900460ff16600281111561138157fe5b146113d3576040805162461bcd60e51b815260206004820152601760248201527f7265706561746564207369676e65722061646472657373000000000000000000604482015290519081900360640190fd5b6040805180820190915260ff8216815260016020820152602760008e8e858181106113fa57fe5b602090810292909201356001600160a01b0316835250818101929092526040016000208251815460ff191660ff90911617808255918301519091829061ff00191661010083600281111561144a57fe5b02179055506000915060069050818c8c8581811061146457fe5b6001600160a01b03602091820293909301358316845283019390935260409091016000205416919091141590506114e2576040805162461bcd60e51b815260206004820152601160248201527f7061796565206d75737420626520736574000000000000000000000000000000604482015290519081900360640190fd5b6000602760008c8c858181106114f457fe5b602090810292909201356001600160a01b031683525081019190915260400160002054610100900460ff16600281111561152a57fe5b1461157c576040805162461bcd60e51b815260206004820152601c60248201527f7265706561746564207472616e736d6974746572206164647265737300000000604482015290519081900360640190fd5b6040805180820190915260ff8216815260026020820152602760008c8c858181106115a357fe5b602090810292909201356001600160a01b0316835250818101929092526040016000208251815460ff191660ff90911617808255918301519091829061ff0019166101008360028111156115f357fe5b021790555090505060288c8c8381811061160957fe5b835460018101855560009485526020948590200180546001600160a01b0319166001600160a01b03959092029390930135939093169290921790555060298a8a8381811061165357fe5b835460018181018655600095865260209586902090910180546001600160a01b0319166001600160a01b0396909302949094013594909416179091555001611331565b50602a805460ff8916600160a81b0260ff60a81b19909116179055602c80544363ffffffff90811664010000000090810267ffffffff0000000019841617808316600101831663ffffffff1990911617938490559091048116911661170330828f8f8f8f8f8f8f8f613f02565b602a60000160006101000a8154816fffffffffffffffffffffffffffffffff021916908360801c02179055506000602a60000160106101000a81548164ffffffffff021916908364ffffffffff1602179055507f25d719d88a4512dd76c7442b910a83360845505894eb444ef299409e180f8fb982828f8f8f8f8f8f8f8f604051808b63ffffffff1681526020018a67ffffffffffffffff16815260200180602001806020018760ff1681526020018667ffffffffffffffff1681526020018060200184810384528c8c82818152602001925060200280828437600083820152601f01601f191690910185810384528a8152602090810191508b908b0280828437600083820152601f01601f191690910185810383528681526020019050868680828437600083820152604051601f909101601f19169092018290039f50909d5050505050505050505050505050a150505050505050505050505050565b60006118a4336000368080601f0160208091040260200160405190810160405280939291908181526020018383808284376000920191909152506118e992505050565b6118e1576040805162461bcd60e51b81526020600482015260096024820152684e6f2061636365737360b81b604482015290519081900360640190fd5b611089614006565b60006118f58383614019565b8061190857506001600160a01b03831632145b90505b92915050565b7f000000000000000000000000000000000000000000000000000000000000000081565b602d546001600160a01b031690565b6060611987336000368080601f0160208091040260200160405190810160405280939291908181526020018383808284376000920191909152506118e992505050565b6119c4576040805162461bcd60e51b81526020600482015260096024820152684e6f2061636365737360b81b604482015290519081900360640190fd5b611089614049565b6001546001600160a01b03163314611a2b576040805162461bcd60e51b815260206004820152601660248201527f4d7573742062652070726f706f736564206f776e657200000000000000000000604482015290519081900360640190fd5b60008054336001600160a01b0319808316821784556001805490911690556040516001600160a01b0390921692909183917f8be0079c531659141344cd1fd0a4f28419497f9722a3daafe3b4186f6b6457e091a350565b6000546001600160a01b03163314611ada576040805162461bcd60e51b815260206004820152601660248201527527b7363c9031b0b63630b1363290313c9037bbb732b960511b604482015290519081900360640190fd5b602f5460ff16610d0357602f805460ff191660011790556040517faebf329500988c6488a0074e5a0a9ff304561fc5c6fc877aeb1d59c8282c348090600090a1565b60606029805480602002602001604051908101604052809291908181526020018280548015611b7457602002820191906000526020600020905b81546001600160a01b03168152600190910190602001808311611b56575b5050505050905090565b602c54602a5463ffffffff808316926401000000009004169060801b909192565b6000611be2336000368080601f0160208091040260200160405190810160405280939291908181526020018383808284376000920191909152506118e992505050565b611c1f576040805162461bcd60e51b81526020600482015260096024820152684e6f2061636365737360b81b604482015290519081900360640190fd5b6110896140d6565b6000546001600160a01b03163314611c7f576040805162461bcd60e51b815260206004820152601660248201527527b7363c9031b0b63630b1363290313c9037bbb732b960511b604482015290519081900360640190fd5b6001600160a01b03811660009081526030602052604090205460ff1615611cf6576001600160a01b038116600081815260306020908152604091829020805460ff19169055815192835290517f3d68a6fce901d20453d1a7aa06bf3950302a735948037deb182a8db66df2a0d19281900390910190a15b50565b6001600160a01b03818116600090815260066020526040902054163314611d67576040805162461bcd60e51b815260206004820152601760248201527f4f6e6c792070617965652063616e207769746864726177000000000000000000604482015290519081900360640190fd5b611cf681613ce3565b6000546001600160a01b031681565b600080546001600160a01b0316331480611e425750602d5460408051630d629b5f60e31b815233600482018181526024830193845236604484018190526001600160a01b0390951694636b14daf894929360009391929190606401848480828437600083820152604051601f909101601f1916909201965060209550909350505081840390508186803b158015611e1557600080fd5b505afa158015611e29573d6000803e3d6000fd5b505050506040513d6020811015611e3f57600080fd5b50515b611e93576040805162461bcd60e51b815260206004820152601d60248201527f4f6e6c79206f776e6572267265717565737465722063616e2063616c6c000000604482015290519081900360640190fd5b6040805160808082018352602a549081901b6fffffffffffffffffffffffffffffffff1916808352600160801b820464ffffffffff8116602080860191909152600160a81b840460ff90811686880152600160b01b90940463ffffffff9081166060808801919091528751948552600884901c909116918401919091529216818501529251919233927f3ea16a923ff4b1df6526e854c9e3a995c43385d70e73359e10623c74f0b52037929181900390910190a2806060015160010163ffffffff1691505090565b6003546001600160a01b031690565b6000806000806000611fb3336000368080601f0160208091040260200160405190810160405280939291908181526020018383808284376000920191909152506118e992505050565b611ff0576040805162461bcd60e51b81526020600482015260096024820152684e6f2061636365737360b81b604482015290519081900360640190fd5b611ff986614109565b939a9299509097509550909350915050565b6000546001600160a01b03163314612063576040805162461bcd60e51b815260206004820152601660248201527527b7363c9031b0b63630b1363290313c9037bbb732b960511b604482015290519081900360640190fd5b8281146120b7576040805162461bcd60e51b815260206004820181905260248201527f7472616e736d6974746572732e73697a6520213d207061796565732e73697a65604482015290519081900360640190fd5b60005b8381101561221e5760008585838181106120d057fe5b905060200201356001600160a01b0316905060008484848181106120f057fe5b6001600160a01b03858116600090815260066020908152604090912054920293909301358316935090911690508015808061213c5750826001600160a01b0316826001600160a01b0316145b61218d576040805162461bcd60e51b815260206004820152601160248201527f706179656520616c726561647920736574000000000000000000000000000000604482015290519081900360640190fd5b6001600160a01b03848116600090815260066020526040902080546001600160a01b0319168583169081179091559083161461220e57826001600160a01b0316826001600160a01b0316856001600160a01b03167f78af32efdcad432315431e9b03d27e6cd98fb79c405fdc5af7c1714d9c0f75b360405160405180910390a45b5050600190920191506120ba9050565b5050505050565b6000546001600160a01b0316331461227d576040805162461bcd60e51b815260206004820152601660248201527527b7363c9031b0b63630b1363290313c9037bbb732b960511b604482015290519081900360640190fd5b602d546001600160a01b039081169082168114610f1957602d80546001600160a01b0319166001600160a01b03848116918217909255604080519284168352602083019190915280517f27b89aede8b560578baaa25ee5ce3852c5eecad1e114b941bbd89e1eb4bae6349281900390910190a15050565b6000546001600160a01b0316331461234c576040805162461bcd60e51b815260206004820152601660248201527527b7363c9031b0b63630b1363290313c9037bbb732b960511b604482015290519081900360640190fd5b611cf68161423f565b6001600160a01b038181166000908152600760205260409020541633146123c3576040805162461bcd60e51b815260206004820152601f60248201527f6f6e6c792070726f706f736564207061796565732063616e2061636365707400604482015290519081900360640190fd5b6001600160a01b0381811660008181526006602090815260408083208054336001600160a01b031980831682179093556007909452828520805490921690915590519416939092849290917f78af32efdcad432315431e9b03d27e6cd98fb79c405fdc5af7c1714d9c0f75b39190a45050565b6000612479336000368080601f0160208091040260200160405190810160405280939291908181526020018383808284376000920191909152506118e992505050565b6124b6576040805162461bcd60e51b81526020600482015260096024820152684e6f2061636365737360b81b604482015290519081900360640190fd5b61190b826142ba565b6000612502336000368080601f0160208091040260200160405190810160405280939291908181526020018383808284376000920191909152506118e992505050565b61253f576040805162461bcd60e51b81526020600482015260096024820152684e6f2061636365737360b81b604482015290519081900360640190fd5b61190b826142f0565b6003546000546001600160a01b039182169116331480612609575060408051630d629b5f60e31b815233600482018181526024830193845236604484018190526001600160a01b03861694636b14daf8946000939190606401848480828437600083820152604051601f909101601f1916909201965060209550909350505081840390508186803b1580156125dc57600080fd5b505afa1580156125f0573d6000803e3d6000fd5b505050506040513d602081101561260657600080fd5b50515b61265a576040805162461bcd60e51b815260206004820181905260248201527f4f6e6c79206f776e65722662696c6c696e6741646d696e2063616e2063616c6c604482015290519081900360640190fd5b612662614330565b61266f86868686866146cf565b505050505050565b6000546001600160a01b0316331480612739575060035460408051630d629b5f60e31b815233600482018181526024830193845236604484018190526001600160a01b0390951694636b14daf894929360009391929190606401848480828437600083820152604051601f909101601f1916909201965060209550909350505081840390508186803b15801561270c57600080fd5b505afa158015612720573d6000803e3d6000fd5b505050506040513d602081101561273657600080fd5b50515b61278a576040805162461bcd60e51b815260206004820181905260248201527f4f6e6c79206f776e65722662696c6c696e6741646d696e2063616e2063616c6c604482015290519081900360640190fd5b60006127946147e9565b905060007f00000000000000000000000000000000000000000000000000000000000000006001600160a01b03166370a08231306040518263ffffffff1660e01b815260040180826001600160a01b0316815260200191505060206040518083038186803b15801561280557600080fd5b505afa158015612819573d6000803e3d6000fd5b505050506040513d602081101561282f57600080fd5b5051905081811015612888576040805162461bcd60e51b815260206004820152601460248201527f696e73756666696369656e742062616c616e6365000000000000000000000000604482015290519081900360640190fd5b7f00000000000000000000000000000000000000000000000000000000000000006001600160a01b031663a9059cbb856128c48585038761499e565b6040518363ffffffff1660e01b815260040180836001600160a01b0316815260200182815260200192505050602060405180830381600087803b15801561290a57600080fd5b505af115801561291e573d6000803e3d6000fd5b505050506040513d602081101561293457600080fd5b505161297c576040805162461bcd60e51b8152602060048201526012602482015271696e73756666696369656e742066756e647360701b604482015290519081900360640190fd5b50505050565b60005a90506129958888888888886149b5565b36146129e8576040805162461bcd60e51b815260206004820152601960248201527f7472616e736d6974206d65737361676520746f6f206c6f6e6700000000000000604482015290519081900360640190fd5b6129f0614eff565b6040805160808082018352602a549081901b6fffffffffffffffffffffffffffffffff19168252600160801b810464ffffffffff166020830152600160a81b810460ff1692820192909252600160b01b90910463ffffffff166060808301919091529082526000908a908a90811015612a6857600080fd5b813591602081013591810190606081016040820135640100000000811115612a8f57600080fd5b820183602082011115612aa157600080fd5b80359060200191846020830284011164010000000083111715612ac357600080fd5b91908080602002602001604051908101604052809392919081815260200183836020028082843760009201919091525050505060408801525050506080840182905283515190925060589190911b906fffffffffffffffffffffffffffffffff19808316911614612b7b576040805162461bcd60e51b815260206004820152601560248201527f636f6e666967446967657374206d69736d617463680000000000000000000000604482015290519081900360640190fd5b608083015183516020015164ffffffffff808316911610612be3576040805162461bcd60e51b815260206004820152600c60248201527f7374616c65207265706f72740000000000000000000000000000000000000000604482015290519081900360640190fd5b83516040015160ff168911612c3f576040805162461bcd60e51b815260206004820152601560248201527f6e6f7420656e6f756768207369676e6174757265730000000000000000000000604482015290519081900360640190fd5b601f891115612c95576040805162461bcd60e51b815260206004820152601360248201527f746f6f206d616e79207369676e61747572657300000000000000000000000000604482015290519081900360640190fd5b868914612ce9576040805162461bcd60e51b815260206004820152601e60248201527f7369676e617475726573206f7574206f6620726567697374726174696f6e0000604482015290519081900360640190fd5b601f8460400151511115612d44576040805162461bcd60e51b815260206004820152601e60248201527f6e756d206f62736572766174696f6e73206f7574206f6620626f756e64730000604482015290519081900360640190fd5b83600001516040015160020260ff1684604001515111612dab576040805162461bcd60e51b815260206004820152601e60248201527f746f6f206665772076616c75657320746f207472757374206d656469616e0000604482015290519081900360640190fd5b8867ffffffffffffffff81118015612dc257600080fd5b506040519080825280601f01601f191660200182016040528015612ded576020820181803683370190505b50606085015260005b60ff81168a1115612e5e57868160ff1660208110612e1057fe5b1a60f81b85606001518260ff1681518110612e2757fe5b60200101907effffffffffffffffffffffffffffffffffffffffffffffffffffffffffffff1916908160001a905350600101612df6565b5083604001515167ffffffffffffffff81118015612e7b57600080fd5b506040519080825280601f01601f191660200182016040528015612ea6576020820181803683370190505b506020850152612eb4614f33565b60005b8560400151518160ff161015612fba576000858260ff1660208110612ed857fe5b1a90508281601f8110612ee757fe5b602002015115612f3e576040805162461bcd60e51b815260206004820152601760248201527f6f6273657276657220696e646578207265706561746564000000000000000000604482015290519081900360640190fd5b6001838260ff16601f8110612f4f57fe5b91151560209283029190910152869060ff8416908110612f6b57fe5b1a60f81b87602001518360ff1681518110612f8257fe5b60200101907effffffffffffffffffffffffffffffffffffffffffffffffffffffffffffff1916908160001a90535050600101612eb7565b503360009081526027602090815260408083208151808301909252805460ff80821684529293919291840191610100909104166002811115612ff857fe5b600281111561300357fe5b905250905060028160200151600281111561301a57fe5b14801561304e57506029816000015160ff168154811061303657fe5b6000918252602090912001546001600160a01b031633145b61309f576040805162461bcd60e51b815260206004820152601860248201527f756e617574686f72697a6564207472616e736d69747465720000000000000000604482015290519081900360640190fd5b5050835164ffffffffff90911660209091015250506040516000908a908a9080838380828437604051920182900390912094506130e09350614f3392505050565b6130e8614f52565b60005b898110156132e15760006001858760600151848151811061310857fe5b60209101015160f81c601b018e8e8681811061312057fe5b905060200201358d8d8781811061313357fe5b9050602002013560405160008152602001604052604051808581526020018460ff1681526020018381526020018281526020019450505050506020604051602081039080840390855afa15801561318e573d6000803e3d6000fd5b505060408051601f198101516001600160a01b03811660009081526027602090815290849020838501909452835460ff808216855292965092945084019161010090041660028111156131dd57fe5b60028111156131e857fe5b90525092506001836020015160028111156131ff57fe5b14613251576040805162461bcd60e51b815260206004820152601e60248201527f61646472657373206e6f7420617574686f72697a656420746f207369676e0000604482015290519081900360640190fd5b8251849060ff16601f811061326257fe5b6020020151156132b9576040805162461bcd60e51b815260206004820152601460248201527f6e6f6e2d756e69717565207369676e6174757265000000000000000000000000604482015290519081900360640190fd5b600184846000015160ff16601f81106132ce57fe5b91151560209092020152506001016130eb565b5050505060005b6001826040015151038110156133925760008260400151826001018151811061330d57fe5b602002602001015160170b8360400151838151811061332857fe5b602002602001015160170b1315905080613389576040805162461bcd60e51b815260206004820152601760248201527f6f62736572766174696f6e73206e6f7420736f72746564000000000000000000604482015290519081900360640190fd5b506001016132e8565b506040810151805160009190600281049081106133ab57fe5b602002602001015190508060170b7f000000000000000000000000000000000000000000000000000000000000000060170b1315801561341157507f000000000000000000000000000000000000000000000000000000000000000060170b8160170b13155b613462576040805162461bcd60e51b815260206004820152601e60248201527f6d656469616e206973206f7574206f66206d696e2d6d61782072616e67650000604482015290519081900360640190fd5b81516060908101805163ffffffff60019091018116909152604080518082018252601785810b80835267ffffffffffffffff42811660208086019182528a5189015188166000908152602b8252878120965187549351909416600160c01b029390950b77ffffffffffffffffffffffffffffffffffffffffffffffff9081167fffffffffffffffff0000000000000000000000000000000000000000000000009093169290921790911691909117909355875186015184890151848a01516080808c015188519586523386890181905291860181905260a0988601898152845199870199909952835194909916997ff6a97944f31ea060dfde0566e4167c1a1082551e64b60ecb14d599a9d023d451998c999298949793969095909492939185019260c086019289820192909102908190849084905b838110156135b0578181015183820152602001613598565b50505050905001838103825285818151815260200191508051906020019080838360005b838110156135ec5781810151838201526020016135d4565b50505050905090810190601f1680156136195780820380516001836020036101000a031916815260200191505b5097505050505050505060405180910390a281516060015160408051428152905160009263ffffffff16917f0109fc6f55cf40689f02fbaad7af7fe7bbac8a3d2186600afc7d3e10cac60271919081900360200190a381600001516060015163ffffffff168160170b7f0559884fd3a460db3073b7fc896cc77986f16e378210ded43186175bf646fc5f426040518082815260200191505060405180910390a36136ce8260000151606001518260170b6149cd565b5080518051602a8054602084015160408501516060909501516fffffffffffffffffffffffffffffffff1990921660809490941c939093177fffffffffffffffffffffff0000000000ffffffffffffffffffffffffffffffff16600160801b64ffffffffff909416939093029290921760ff60a81b1916600160a81b60ff90941693909302929092177fffffffffffff00000000ffffffffffffffffffffffffffffffffffffffffffff16600160b01b63ffffffff9283160217909155821061379357fe5b6137a1828260200151614abb565b505050505050505050565b6000807f00000000000000000000000000000000000000000000000000000000000000006001600160a01b03166370a08231306040518263ffffffff1660e01b815260040180826001600160a01b0316815260200191505060206040518083038186803b15801561381c57600080fd5b505afa158015613830573d6000803e3d6000fd5b505050506040513d602081101561384657600080fd5b5051905060006138546147e9565b90910391505090565b602f5460ff1681565b6001600160a01b03811660009081526027602090815260408083208151808301909252805460ff8082168452859484019161010090041660028111156138a857fe5b60028111156138b357fe5b90525090506000816020015160028111156138ca57fe5b14156138da576000915050610e30565b60016004826000015160ff16601f81106138f057fe5b601091828204019190066002029054906101000a900461ffff1603915050919050565b60008080808033321461396d576040805162461bcd60e51b815260206004820152601460248201527f4f6e6c792063616c6c61626c6520627920454f41000000000000000000000000604482015290519081900360640190fd5b5050602a5463ffffffff600160b01b820481166000908152602b6020526040902054608083901b96600160801b909304600881901c909216955064ffffffffff9091169350601781900b9250600160c01b900467ffffffffffffffff1690565b6001600160a01b03828116600090815260066020526040902054163314613a3b576040805162461bcd60e51b815260206004820152601d60248201527f6f6e6c792063757272656e742070617965652063616e20757064617465000000604482015290519081900360640190fd5b336001600160a01b0382161415613a99576040805162461bcd60e51b815260206004820152601760248201527f63616e6e6f74207472616e7366657220746f2073656c66000000000000000000604482015290519081900360640190fd5b6001600160a01b03808316600090815260076020526040902080548383166001600160a01b031982168117909255909116908114613b0c576040516001600160a01b038084169133918616907f84f7c7c80bb8ed2279b4aab5f61cd05e6374073d38f46d7f32de8c30e9e3836790600090a45b505050565b6000546001600160a01b03163314613b69576040805162461bcd60e51b815260206004820152601660248201527527b7363c9031b0b63630b1363290313c9037bbb732b960511b604482015290519081900360640190fd5b600180546001600160a01b0319166001600160a01b0383811691821790925560008054604051929316917fed8889f560326eb138920d842192f0eb3dd22b4f139c87a2c57538e05bae12789190a350565b6000546001600160a01b03163314613c12576040805162461bcd60e51b815260206004820152601660248201527527b7363c9031b0b63630b1363290313c9037bbb732b960511b604482015290519081900360640190fd5b611cf681614ced565b6000806000806000613c64336000368080601f0160208091040260200160405190810160405280939291908181526020018383808284376000920191909152506118e992505050565b613ca1576040805162461bcd60e51b81526020600482015260096024820152684e6f2061636365737360b81b604482015290519081900360640190fd5b613ca9614d64565b945094509450945094509091929394565b602a54600160b01b900463ffffffff166000908152602b6020526040902054601790810b900b90565b6001600160a01b03811660009081526027602090815260408083208151808301909252805460ff80821684529293919291840191610100909104166002811115613d2957fe5b6002811115613d3457fe5b90525090506000613d4483610d05565b90508015613b0c576001600160a01b0380841660009081526006602090815260408083205481517fa9059cbb0000000000000000000000000000000000000000000000000000000081529085166004820181905260248201879052915191947f0000000000000000000000000000000000000000000000000000000000000000169363a9059cbb9360448084019491939192918390030190829087803b158015613ded57600080fd5b505af1158015613e01573d6000803e3d6000fd5b505050506040513d6020811015613e1757600080fd5b5051613e5f576040805162461bcd60e51b8152602060048201526012602482015271696e73756666696369656e742066756e647360701b604482015290519081900360640190fd5b60016004846000015160ff16601f8110613e7557fe5b601091828204019190066002026101000a81548161ffff021916908361ffff16021790555060016008846000015160ff16601f8110613eb057fe5b0155604080516001600160a01b0380871682528316602082015280820184905290517fe8ec50e5150ae28ae37e493ff389ffab7ffaec2dc4dccfca03f12a3de29d12b29181900360600190a150505050565b60008a8a8a8a8a8a8a8a8a8a604051602001808b6001600160a01b031681526020018a67ffffffffffffffff16815260200180602001806020018760ff1681526020018667ffffffffffffffff1681526020018060200184810384528c8c82818152602001925060200280828437600083820152601f01601f191690910185810384528a8152602090810191508b908b0280828437600083820152601f01601f191690910185810383528681526020019050868680828437600081840152601f19601f8201169050808301925050509d50505050505050505050505050506040516020818303038152906040528051906020012090509a9950505050505050505050565b602a54600160b01b900463ffffffff1690565b6001600160a01b03821660009081526030602052604081205460ff1680611908575050602f5460ff161592915050565b602e8054604080516020601f6002600019610100600188161502019095169490940493840181900481028201810190925282815260609390929091830182828015611b745780601f106140aa57610100808354040283529160200191611b74565b820191906000526020600020905b8154815290600101906020018083116140b857509395945050505050565b602a54600160b01b900463ffffffff166000908152602b6020526040902054600160c01b900467ffffffffffffffff1690565b600080600080600063ffffffff8669ffffffffffffffffffff1611156040518060400160405280600f81526020017f4e6f20646174612070726573656e740000000000000000000000000000000000815250906141e45760405162461bcd60e51b81526004018080602001828103825283818151815260200191508051906020019080838360005b838110156141a9578181015183820152602001614191565b50505050905090810190601f1680156141d65780820380516001836020036101000a031916815260200191505b509250505060405180910390fd5b5050505063ffffffff83166000908152602b6020908152604091829020825180840190935254601781810b810b810b808552600160c01b90920467ffffffffffffffff1693909201839052949594900b939092508291508490565b6001600160a01b03811660009081526030602052604090205460ff16611cf6576001600160a01b038116600081815260306020908152604091829020805460ff19166001179055815192835290517f87286ad1f399c8e82bf0c4ef4fcdc570ea2e1e92176e5c848b6413545b885db49281900390910190a150565b600063ffffffff8211156142d057506000610e30565b5063ffffffff166000908152602b6020526040902054601790810b900b90565b600063ffffffff82111561430657506000610e30565b5063ffffffff166000908152602b6020526040902054600160c01b900467ffffffffffffffff1690565b6040805160a08101825260025463ffffffff8082168352640100000000820481166020840152600160401b8204811683850152600160601b820481166060840152600160801b90910416608082015281516103e0810192839052909160009190600490601f908285855b82829054906101000a900461ffff1661ffff168152602001906002019060208260010104928301926001038202915080841161439a575050604080516103e0810191829052959650600095945060089350601f9250905082845b8154815260200190600101908083116143f457505050505090506000602980548060200260200160405190810160405280929190818152602001828054801561446657602002820191906000526020600020905b81546001600160a01b03168152600190910190602001808311614448575b5050505050905060005b81518110156146b357600060018483601f811061448957fe5b6020020151039050600060018684601f81106144a157fe5b60200201510361ffff169050600082886060015163ffffffff168302633b9aca000201905060008111156146a8576000600660008787815181106144e157fe5b60200260200101516001600160a01b03166001600160a01b0316815260200190815260200160002060009054906101000a90046001600160a01b031690507f00000000000000000000000000000000000000000000000000000000000000006001600160a01b031663a9059cbb82846040518363ffffffff1660e01b815260040180836001600160a01b0316815260200182815260200192505050602060405180830381600087803b15801561459657600080fd5b505af11580156145aa573d6000803e3d6000fd5b505050506040513d60208110156145c057600080fd5b5051614608576040805162461bcd60e51b8152602060048201526012602482015271696e73756666696369656e742066756e647360701b604482015290519081900360640190fd5b60018886601f811061461657fe5b61ffff909216602092909202015260018786601f811061463257fe5b602002015285517fe8ec50e5150ae28ae37e493ff389ffab7ffaec2dc4dccfca03f12a3de29d12b29087908790811061466757fe5b6020026020010151828460405180846001600160a01b03168152602001836001600160a01b03168152602001828152602001935050505060405180910390a1505b505050600101614470565b506146c1600484601f614f69565b5061221e600883601f614fff565b6040805160a0808201835263ffffffff88811680845288821660208086018290528984168688018190528985166060808901829052958a1660809889018190526002805463ffffffff1916871767ffffffff0000000019166401000000008702176bffffffff00000000000000001916600160401b8502177fffffffffffffffffffffffffffffffff00000000ffffffffffffffffffffffff16600160601b8402177fffffffffffffffffffffffff00000000ffffffffffffffffffffffffffffffff16600160801b830217905589519586529285019390935283880152928201529283015291517fd0d9486a2c673e2a4b57fc82e4c8a556b3e2b82dd5db07e2c04a920ca0f469b6929181900390910190a15050505050565b604080516103e0810191829052600091829190600490601f908285855b82829054906101000a900461ffff1661ffff16815260200190600201906020826001010492830192600103820291508084116148065790505050505050905060005b601f8110156148765760018282601f811061485f57fe5b60200201510361ffff169290920191600101614848565b506040805160a08101825260025463ffffffff808216835264010000000082048116602080850191909152600160401b8304821684860152600160601b8304821660608501819052600160801b90930490911660808401526029805485518184028101840190965280865296909202633b9aca000295929360009390929183018282801561492d57602002820191906000526020600020905b81546001600160a01b0316815260019091019060200180831161490f575b5050604080516103e0810191829052949550600094935060089250601f915082845b81548152602001906001019080831161494f575050505050905060005b82518110156149965760018282601f811061498357fe5b602002015103959095019460010161496c565b505050505090565b6000818310156149af57508161190b565b50919050565b602083810286019082020160e4019695505050505050565b602c54600160401b90046001600160a01b0316806149eb5750610f19565b600019830163ffffffff8181166000818152602b602090815260408083205481517fbeed9b510000000000000000000000000000000000000000000000000000000081526004810195909552601790810b900b60248501819052948916604485015260648401889052516001600160a01b0387169363beed9b5193620186a09360848084019491939192918390030190829088803b158015614a8c57600080fd5b5087f193505050508015614ab257506040513d6020811015614aad57600080fd5b505160015b61266f5761221e565b3360009081526027602090815260408083208151808301909252805460ff80821684529293919291840191610100909104166002811115614af857fe5b6002811115614b0357fe5b9052506040805160a08101825260025463ffffffff8082168352640100000000820481166020840152600160401b8204811683850152600160601b820481166060840152600160801b90910416608082015281516103e081019283905292935091614bb891859190600490601f90826000855b82829054906101000a900461ffff1661ffff1681526020019060020190602082600101049283019260010382029150808411614b765790505050505050614dc0565b614bc690600490601f614f69565b50600282602001516002811115614bd957fe5b14614c2b576040805162461bcd60e51b815260206004820181905260248201527f73656e7420627920756e64657369676e61746564207472616e736d6974746572604482015290519081900360640190fd5b6000614c52633b9aca003a04836020015163ffffffff16846000015163ffffffff16614e35565b90506010360260005a90506000614c718863ffffffff16858585614e5b565b6fffffffffffffffffffffffffffffffff1690506000620f4240866040015163ffffffff16830281614c9f57fe5b049050856080015163ffffffff16633b9aca0002816008896000015160ff16601f8110614cc857fe5b015401016008886000015160ff16601f8110614ce057fe5b0155505050505050505050565b6003546001600160a01b039081169082168114610f1957600380546001600160a01b0319166001600160a01b03848116918217909255604080519284168352602083019190915280517f793cb73064f3c8cde7e187ae515511e6e56d1ee89bf08b82fa60fb70f8d489129281900390910190a15050565b602a54600160b01b900463ffffffff166000818152602b6020908152604091829020825180840190935254601781810b810b810b808552600160c01b90920467ffffffffffffffff1693909201839052929392900b9181908490565b614dc8614f33565b60005b8351811015614e2d576000848281518110614de257fe5b016020015160f81c9050614e078482601f8110614dfb57fe5b60200201516001614ee7565b848260ff16601f8110614e1657fe5b61ffff909216602092909202015250600101614dcb565b509092915050565b60008383811015614e4857600285850304015b614e52818461499e565b95945050505050565b600081851015614eb2576040805162461bcd60e51b815260206004820181905260248201527f6761734c6566742063616e6e6f742065786365656420696e697469616c476173604482015290519081900360640190fd5b818503830161179301633b9aca00858202026fffffffffffffffffffffffffffffffff8110614edd57fe5b9695505050505050565b60006119088261ffff168461ffff160161ffff61499e565b6040518060a00160405280614f1261502d565b81526060602082018190526040820181905280820152600060809091015290565b604051806103e00160405280601f906020820280368337509192915050565b604080518082019091526000808252602082015290565b600283019183908215614fef5791602002820160005b83821115614fbf57835183826101000a81548161ffff021916908361ffff1602179055509260200192600201602081600101049283019260010302614f7f565b8015614fed5782816101000a81549061ffff0219169055600201602081600101049283019260010302614fbf565b505b50614ffb929150615054565b5090565b82601f8101928215614fef579160200282015b82811115614fef578251825591602001919060010190615012565b60408051608081018252600080825260208201819052918101829052606081019190915290565b5b80821115614ffb576000815560010161505556fe6f7261636c6520616464726573736573206f7574206f6620726567697374726174696f6ea2646970667358221220fb356846329de4bc450d532b8deb4f01acf15fdd6404b9a5f9ad48674c94756e64736f6c63430007060033",
  "linkReferences": {},
  "deployedLinkReferences": {}
}