{
  "_format": "hh-sol-artifact-1",
  "contractName": "EACAggregatorProxy",
  "sourceName": "contracts/chalinLink/EACAggregatorProxy.sol",
  "abi": [
    {
      "inputs": [
        {
          "internalType": "address",
          "name": "_aggregator",
          "type": "address"
        },
        {
          "internalType": "address",
          "name": "_accessController",
          "type": "address"
        }
      ],
      "stateMutability": "nonpayable",
      "type": "constructor"
    },
    {
      "anonymous": false,
      "inputs": [
        {
          "indexed": true,
          "internalType": "int256",
          "name": "current",
          "type": "int256"
        },
        {
          "indexed": true,
          "internalType": "uint256",
          "name": "roundId",
          "type": "uint256"
        },
        {
          "indexed": false,
          "internalType": "uint256",
          "name": "updatedAt",
          "type": "uint256"
        }
      ],
      "name": "AnswerUpdated",
      "type": "event"
    },
    {
      "anonymous": false,
      "inputs": [
        {
          "indexed": true,
          "internalType": "uint256",
          "name": "roundId",
          "type": "uint256"
        },
        {
          "indexed": true,
          "internalType": "address",
          "name": "startedBy",
          "type": "address"
        },
        {
          "indexed": false,
          "internalType": "uint256",
          "name": "startedAt",
          "type": "uint256"
        }
      ],
      "name": "NewRound",
      "type": "event"
    },
    {
      "anonymous": false,
      "inputs": [
        {
          "indexed": true,
          "internalType": "address",
          "name": "from",
          "type": "address"
        },
        {
          "indexed": true,
          "internalType": "address",
          "name": "to",
          "type": "address"
        }
      ],
      "name": "OwnershipTransferRequested",
      "type": "event"
    },
    {
      "anonymous": false,
      "inputs": [
        {
          "indexed": true,
          "internalType": "address",
          "name": "from",
          "type": "address"
        },
        {
          "indexed": true,
          "internalType": "address",
          "name": "to",
          "type": "address"
        }
      ],
      "name": "OwnershipTransferred",
      "type": "event"
    },
    {
      "inputs": [],
      "name": "acceptOwnership",
      "outputs": [],
      "stateMutability": "nonpayable",
      "type": "function"
    },
    {
      "inputs": [],
      "name": "accessController",
      "outputs": [
        {
          "internalType": "contract AccessControllerInterface",
          "name": "",
          "type": "address"
        }
      ],
      "stateMutability": "view",
      "type": "function"
    },
    {
      "inputs": [],
      "name": "aggregator",
      "outputs": [
        {
          "internalType": "address",
          "name": "",
          "type": "address"
        }
      ],
      "stateMutability": "view",
      "type": "function"
    },
    {
      "inputs": [
        {
          "internalType": "address",
          "name": "_aggregator",
          "type": "address"
        }
      ],
      "name": "confirmAggregator",
      "outputs": [],
      "stateMutability": "nonpayable",
      "type": "function"
    },
    {
      "inputs": [],
      "name": "decimals",
      "outputs": [
        {
          "internalType": "uint8",
          "name": "",
          "type": "uint8"
        }
      ],
      "stateMutability": "view",
      "type": "function"
    },
    {
      "inputs": [],
      "name": "description",
      "outputs": [
        {
          "internalType": "string",
          "name": "",
          "type": "string"
        }
      ],
      "stateMutability": "view",
      "type": "function"
    },
    {
      "inputs": [
        {
          "internalType": "uint256",
          "name": "_roundId",
          "type": "uint256"
        }
      ],
      "name": "getAnswer",
      "outputs": [
        {
          "internalType": "int256",
          "name": "",
          "type": "int256"
        }
      ],
      "stateMutability": "view",
      "type": "function"
    },
    {
      "inputs": [
        {
          "internalType": "uint80",
          "name": "_roundId",
          "type": "uint80"
        }
      ],
      "name": "getRoundData",
      "outputs": [
        {
          "internalType": "uint80",
          "name": "roundId",
          "type": "uint80"
        },
        {
          "internalType": "int256",
          "name": "answer",
          "type": "int256"
        },
        {
          "internalType": "uint256",
          "name": "startedAt",
          "type": "uint256"
        },
        {
          "internalType": "uint256",
          "name": "updatedAt",
          "type": "uint256"
        },
        {
          "internalType": "uint80",
          "name": "answeredInRound",
          "type": "uint80"
        }
      ],
      "stateMutability": "view",
      "type": "function"
    },
    {
      "inputs": [
        {
          "internalType": "uint256",
          "name": "_roundId",
          "type": "uint256"
        }
      ],
      "name": "getTimestamp",
      "outputs": [
        {
          "internalType": "uint256",
          "name": "",
          "type": "uint256"
        }
      ],
      "stateMutability": "view",
      "type": "function"
    },
    {
      "inputs": [],
      "name": "latestAnswer",
      "outputs": [
        {
          "internalType": "int256",
          "name": "",
          "type": "int256"
        }
      ],
      "stateMutability": "view",
      "type": "function"
    },
    {
      "inputs": [],
      "name": "latestRound",
      "outputs": [
        {
          "internalType": "uint256",
          "name": "",
          "type": "uint256"
        }
      ],
      "stateMutability": "view",
      "type": "function"
    },
    {
      "inputs": [],
      "name": "latestRoundData",
      "outputs": [
        {
          "internalType": "uint80",
          "name": "roundId",
          "type": "uint80"
        },
        {
          "internalType": "int256",
          "name": "answer",
          "type": "int256"
        },
        {
          "internalType": "uint256",
          "name": "startedAt",
          "type": "uint256"
        },
        {
          "internalType": "uint256",
          "name": "updatedAt",
          "type": "uint256"
        },
        {
          "internalType": "uint80",
          "name": "answeredInRound",
          "type": "uint80"
        }
      ],
      "stateMutability": "view",
      "type": "function"
    },
    {
      "inputs": [],
      "name": "latestTimestamp",
      "outputs": [
        {
          "internalType": "uint256",
          "name": "",
          "type": "uint256"
        }
      ],
      "stateMutability": "view",
      "type": "function"
    },
    {
      "inputs": [],
      "name": "owner",
      "outputs": [
        {
          "internalType": "address payable",
          "name": "",
          "type": "address"
        }
      ],
      "stateMutability": "view",
      "type": "function"
    },
    {
      "inputs": [
        {
          "internalType": "uint16",
          "name": "",
          "type": "uint16"
        }
      ],
      "name": "phaseAggregators",
      "outputs": [
        {
          "internalType": "contract AggregatorV2V3Interface",
          "name": "",
          "type": "address"
        }
      ],
      "stateMutability": "view",
      "type": "function"
    },
    {
      "inputs": [],
      "name": "phaseId",
      "outputs": [
        {
          "internalType": "uint16",
          "name": "",
          "type": "uint16"
        }
      ],
      "stateMutability": "view",
      "type": "function"
    },
    {
      "inputs": [
        {
          "internalType": "address",
          "name": "_aggregator",
          "type": "address"
        }
      ],
      "name": "proposeAggregator",
      "outputs": [],
      "stateMutability": "nonpayable",
      "type": "function"
    },
    {
      "inputs": [],
      "name": "proposedAggregator",
      "outputs": [
        {
          "internalType": "contract AggregatorV2V3Interface",
          "name": "",
          "type": "address"
        }
      ],
      "stateMutability": "view",
      "type": "function"
    },
    {
      "inputs": [
        {
          "internalType": "uint80",
          "name": "_roundId",
          "type": "uint80"
        }
      ],
      "name": "proposedGetRoundData",
      "outputs": [
        {
          "internalType": "uint80",
          "name": "roundId",
          "type": "uint80"
        },
        {
          "internalType": "int256",
          "name": "answer",
          "type": "int256"
        },
        {
          "internalType": "uint256",
          "name": "startedAt",
          "type": "uint256"
        },
        {
          "internalType": "uint256",
          "name": "updatedAt",
          "type": "uint256"
        },
        {
          "internalType": "uint80",
          "name": "answeredInRound",
          "type": "uint80"
        }
      ],
      "stateMutability": "view",
      "type": "function"
    },
    {
      "inputs": [],
      "name": "proposedLatestRoundData",
      "outputs": [
        {
          "internalType": "uint80",
          "name": "roundId",
          "type": "uint80"
        },
        {
          "internalType": "int256",
          "name": "answer",
          "type": "int256"
        },
        {
          "internalType": "uint256",
          "name": "startedAt",
          "type": "uint256"
        },
        {
          "internalType": "uint256",
          "name": "updatedAt",
          "type": "uint256"
        },
        {
          "internalType": "uint80",
          "name": "answeredInRound",
          "type": "uint80"
        }
      ],
      "stateMutability": "view",
      "type": "function"
    },
    {
      "inputs": [
        {
          "internalType": "address",
          "name": "_accessController",
          "type": "address"
        }
      ],
      "name": "setController",
      "outputs": [],
      "stateMutability": "nonpayable",
      "type": "function"
    },
    {
      "inputs": [
        {
          "internalType": "address",
          "name": "_to",
          "type": "address"
        }
      ],
      "name": "transferOwnership",
      "outputs": [],
      "stateMutability": "nonpayable",
      "type": "function"
    },
    {
      "inputs": [],
      "name": "version",
      "outputs": [
        {
          "internalType": "uint256",
          "name": "",
          "type": "uint256"
        }
      ],
      "stateMutability": "view",
      "type": "function"
    }
  ],
  "bytecode": "0x60806040523480156200001157600080fd5b5060405162001e2738038062001e27833981810160405260408110156200003757600080fd5b508051602090910151600080546001600160a01b031916331790558162000067816001600160e01b036200008416565b506200007c816001600160e01b03620000f316565b505062000175565b60028054604080518082018252600161ffff80851691909101168082526001600160a01b0395909516602091820181905261ffff19909316851762010000600160b01b0319166201000084021790935560009384526004909252912080546001600160a01b0319169091179055565b6000546001600160a01b0316331462000153576040805162461bcd60e51b815260206004820152601660248201527f4f6e6c792063616c6c61626c65206279206f776e657200000000000000000000604482015290519081900360640190fd5b600580546001600160a01b0319166001600160a01b0392909216919091179055565b611ca280620001856000396000f3fe608060405234801561001057600080fd5b506004361061018d5760003560e01c80638f6b4d91116100e3578063bc43cbaf1161008c578063f2fde38b11610066578063f2fde38b14610404578063f8a2abd31461042a578063feaf968c146104505761018d565b8063bc43cbaf146103d3578063c1597304146103db578063e8c4be30146103fc5761018d565b8063a928c096116100bd578063a928c09614610373578063b5ab58dc14610399578063b633620c146103b65761018d565b80638f6b4d911461031c57806392eefe9b146103245780639a6fc8f51461034a5761018d565b80636001ac531161014557806379ba50971161011f57806379ba5097146103025780638205bf6a1461030c5780638da5cb5b146103145761018d565b80636001ac5314610215578063668a0f021461027d5780637284e416146102855761018d565b806350d25bcd1161017657806350d25bcd146101d457806354fd4d50146101ee57806358303b10146101f65761018d565b8063245a7bfc14610192578063313ce567146101b6575b600080fd5b61019a610458565b604080516001600160a01b039092168252519081900360200190f35b6101be61046d565b6040805160ff9092168252519081900360200190f35b6101dc6104f1565b60408051918252519081900360200190f35b6101dc6105f9565b6101fe61064c565b6040805161ffff9092168252519081900360200190f35b61023e6004803603602081101561022b57600080fd5b503569ffffffffffffffffffff16610656565b6040805169ffffffffffffffffffff96871681526020810195909552848101939093526060840191909152909216608082015290519081900360a00190f35b6101dc6107d1565b61028d6108d3565b6040805160208082528351818301528351919283929083019185019080838360005b838110156102c75781810151838201526020016102af565b50505050905090810190601f1680156102f45780820380516001836020036101000a031916815260200191505b509250505060405180910390f35b61030a610a18565b005b6101dc610ace565b61019a610bd0565b61023e610bdf565b61030a6004803603602081101561033a57600080fd5b50356001600160a01b0316610d58565b61023e6004803603602081101561036057600080fd5b503569ffffffffffffffffffff16610dd9565b61030a6004803603602081101561038957600080fd5b50356001600160a01b0316610ee4565b6101dc600480360360208110156103af57600080fd5b5035610fc1565b6101dc600480360360208110156103cc57600080fd5b50356110cb565b61019a6111ce565b61019a600480360360208110156103f157600080fd5b503561ffff166111dd565b61019a6111f8565b61030a6004803603602081101561041a57600080fd5b50356001600160a01b0316611207565b61030a6004803603602081101561044057600080fd5b50356001600160a01b03166112b7565b61023e611338565b6002546201000090046001600160a01b031690565b6000600260000160029054906101000a90046001600160a01b03166001600160a01b031663313ce5676040518163ffffffff1660e01b815260040160206040518083038186803b1580156104c057600080fd5b505afa1580156104d4573d6000803e3d6000fd5b505050506040513d60208110156104ea57600080fd5b5051905090565b6005546000906001600160a01b03168015806105ae575060408051630d629b5f60e31b815233600482018181526024830193845236604484018190526001600160a01b03861694636b14daf8946000939190606401848480828437600083820152604051601f909101601f1916909201965060209550909350505081840390508186803b15801561058157600080fd5b505afa158015610595573d6000803e3d6000fd5b505050506040513d60208110156105ab57600080fd5b50515b6105eb576040805162461bcd60e51b81526020600482015260096024820152684e6f2061636365737360b81b604482015290519081900360640190fd5b6105f3611442565b91505090565b6000600260000160029054906101000a90046001600160a01b03166001600160a01b03166354fd4d506040518163ffffffff1660e01b815260040160206040518083038186803b1580156104c057600080fd5b60025461ffff1690565b60055460009081908190819081906001600160a01b031680158061071b575060408051630d629b5f60e31b815233600482018181526024830193845236604484018190526001600160a01b03861694636b14daf8946000939190606401848480828437600083820152604051601f909101601f1916909201965060209550909350505081840390508186803b1580156106ee57600080fd5b505afa158015610702573d6000803e3d6000fd5b505050506040513d602081101561071857600080fd5b50515b610758576040805162461bcd60e51b81526020600482015260096024820152684e6f2061636365737360b81b604482015290519081900360640190fd5b6003546001600160a01b03166107b5576040805162461bcd60e51b815260206004820152601e60248201527f4e6f2070726f706f7365642061676772656761746f722070726573656e740000604482015290519081900360640190fd5b6107be87611495565b939b929a50909850965090945092505050565b6005546000906001600160a01b031680158061088e575060408051630d629b5f60e31b815233600482018181526024830193845236604484018190526001600160a01b03861694636b14daf8946000939190606401848480828437600083820152604051601f909101601f1916909201965060209550909350505081840390508186803b15801561086157600080fd5b505afa158015610875573d6000803e3d6000fd5b505050506040513d602081101561088b57600080fd5b50515b6108cb576040805162461bcd60e51b81526020600482015260096024820152684e6f2061636365737360b81b604482015290519081900360640190fd5b6105f36115a7565b6060600260000160029054906101000a90046001600160a01b03166001600160a01b0316637284e4166040518163ffffffff1660e01b815260040160006040518083038186803b15801561092657600080fd5b505afa15801561093a573d6000803e3d6000fd5b505050506040513d6000823e601f3d908101601f19168201604052602081101561096357600080fd5b810190808051604051939291908464010000000082111561098357600080fd5b90830190602082018581111561099857600080fd5b82516401000000008111828201881017156109b257600080fd5b82525081516020918201929091019080838360005b838110156109df5781810151838201526020016109c7565b50505050905090810190601f168015610a0c5780820380516001836020036101000a031916815260200191505b50604052505050905090565b6001546001600160a01b03163314610a77576040805162461bcd60e51b815260206004820152601660248201527f4d7573742062652070726f706f736564206f776e657200000000000000000000604482015290519081900360640190fd5b60008054336001600160a01b0319808316821784556001805490911690556040516001600160a01b0390921692909183917f8be0079c531659141344cd1fd0a4f28419497f9722a3daafe3b4186f6b6457e091a350565b6005546000906001600160a01b0316801580610b8b575060408051630d629b5f60e31b815233600482018181526024830193845236604484018190526001600160a01b03861694636b14daf8946000939190606401848480828437600083820152604051601f909101601f1916909201965060209550909350505081840390508186803b158015610b5e57600080fd5b505afa158015610b72573d6000803e3d6000fd5b505050506040513d6020811015610b8857600080fd5b50515b610bc8576040805162461bcd60e51b81526020600482015260096024820152684e6f2061636365737360b81b604482015290519081900360640190fd5b6105f3611671565b6000546001600160a01b031681565b60055460009081908190819081906001600160a01b0316801580610ca4575060408051630d629b5f60e31b815233600482018181526024830193845236604484018190526001600160a01b03861694636b14daf8946000939190606401848480828437600083820152604051601f909101601f1916909201965060209550909350505081840390508186803b158015610c7757600080fd5b505afa158015610c8b573d6000803e3d6000fd5b505050506040513d6020811015610ca157600080fd5b50515b610ce1576040805162461bcd60e51b81526020600482015260096024820152684e6f2061636365737360b81b604482015290519081900360640190fd5b6003546001600160a01b0316610d3e576040805162461bcd60e51b815260206004820152601e60248201527f4e6f2070726f706f7365642061676772656761746f722070726573656e740000604482015290519081900360640190fd5b610d466116c4565b95509550955095509550509091929394565b6000546001600160a01b03163314610db7576040805162461bcd60e51b815260206004820152601660248201527f4f6e6c792063616c6c61626c65206279206f776e657200000000000000000000604482015290519081900360640190fd5b600580546001600160a01b0319166001600160a01b0392909216919091179055565b60055460009081908190819081906001600160a01b0316801580610e9e575060408051630d629b5f60e31b815233600482018181526024830193845236604484018190526001600160a01b03861694636b14daf8946000939190606401848480828437600083820152604051601f909101601f1916909201965060209550909350505081840390508186803b158015610e7157600080fd5b505afa158015610e85573d6000803e3d6000fd5b505050506040513d6020811015610e9b57600080fd5b50515b610edb576040805162461bcd60e51b81526020600482015260096024820152684e6f2061636365737360b81b604482015290519081900360640190fd5b6107be876117cc565b6000546001600160a01b03163314610f43576040805162461bcd60e51b815260206004820152601660248201527f4f6e6c792063616c6c61626c65206279206f776e657200000000000000000000604482015290519081900360640190fd5b6003546001600160a01b03828116911614610fa5576040805162461bcd60e51b815260206004820152601b60248201527f496e76616c69642070726f706f7365642061676772656761746f720000000000604482015290519081900360640190fd5b600380546001600160a01b0319169055610fbe816118d9565b50565b6005546000906001600160a01b031680158061107e575060408051630d629b5f60e31b815233600482018181526024830193845236604484018190526001600160a01b03861694636b14daf8946000939190606401848480828437600083820152604051601f909101601f1916909201965060209550909350505081840390508186803b15801561105157600080fd5b505afa158015611065573d6000803e3d6000fd5b505050506040513d602081101561107b57600080fd5b50515b6110bb576040805162461bcd60e51b81526020600482015260096024820152684e6f2061636365737360b81b604482015290519081900360640190fd5b6110c48361195e565b9392505050565b6005546000906001600160a01b0316801580611188575060408051630d629b5f60e31b815233600482018181526024830193845236604484018190526001600160a01b03861694636b14daf8946000939190606401848480828437600083820152604051601f909101601f1916909201965060209550909350505081840390508186803b15801561115b57600080fd5b505afa15801561116f573d6000803e3d6000fd5b505050506040513d602081101561118557600080fd5b50515b6111c5576040805162461bcd60e51b81526020600482015260096024820152684e6f2061636365737360b81b604482015290519081900360640190fd5b6110c483611a3e565b6005546001600160a01b031681565b6004602052600090815260409020546001600160a01b031681565b6003546001600160a01b031681565b6000546001600160a01b03163314611266576040805162461bcd60e51b815260206004820152601660248201527f4f6e6c792063616c6c61626c65206279206f776e657200000000000000000000604482015290519081900360640190fd5b600180546001600160a01b0319166001600160a01b0383811691821790925560008054604051929316917fed8889f560326eb138920d842192f0eb3dd22b4f139c87a2c57538e05bae12789190a350565b6000546001600160a01b03163314611316576040805162461bcd60e51b815260206004820152601660248201527f4f6e6c792063616c6c61626c65206279206f776e657200000000000000000000604482015290519081900360640190fd5b600380546001600160a01b0319166001600160a01b0392909216919091179055565b60055460009081908190819081906001600160a01b03168015806113fd575060408051630d629b5f60e31b815233600482018181526024830193845236604484018190526001600160a01b03861694636b14daf8946000939190606401848480828437600083820152604051601f909101601f1916909201965060209550909350505081840390508186803b1580156113d057600080fd5b505afa1580156113e4573d6000803e3d6000fd5b505050506040513d60208110156113fa57600080fd5b50515b61143a576040805162461bcd60e51b81526020600482015260096024820152684e6f2061636365737360b81b604482015290519081900360640190fd5b610d46611ae7565b6000600260000160029054906101000a90046001600160a01b03166001600160a01b03166350d25bcd6040518163ffffffff1660e01b815260040160206040518083038186803b1580156104c057600080fd5b60035460009081908190819081906001600160a01b03166114fd576040805162461bcd60e51b815260206004820152601e60248201527f4e6f2070726f706f7365642061676772656761746f722070726573656e740000604482015290519081900360640190fd5b60035460408051639a6fc8f560e01b815269ffffffffffffffffffff8916600482015290516001600160a01b0390921691639a6fc8f59160248082019260a092909190829003018186803b15801561155457600080fd5b505afa158015611568573d6000803e3d6000fd5b505050506040513d60a081101561157e57600080fd5b508051602082015160408301516060840151608090940151929a91995097509195509350915050565b60006115b1611c55565b5060408051808201825260025461ffff8116808352620100009091046001600160a01b0316602080840182905284517f668a0f020000000000000000000000000000000000000000000000000000000081529451939461165f9463668a0f0292600480840193919291829003018186803b15801561162e57600080fd5b505afa158015611642573d6000803e3d6000fd5b505050506040513d602081101561165857600080fd5b5051611bf7565b69ffffffffffffffffffff1691505090565b6000600260000160029054906101000a90046001600160a01b03166001600160a01b0316638205bf6a6040518163ffffffff1660e01b815260040160206040518083038186803b1580156104c057600080fd5b60035460009081908190819081906001600160a01b031661172c576040805162461bcd60e51b815260206004820152601e60248201527f4e6f2070726f706f7365642061676772656761746f722070726573656e740000604482015290519081900360640190fd5b600360009054906101000a90046001600160a01b03166001600160a01b031663feaf968c6040518163ffffffff1660e01b815260040160a06040518083038186803b15801561177a57600080fd5b505afa15801561178e573d6000803e3d6000fd5b505050506040513d60a08110156117a457600080fd5b5080516020820151604083015160608401516080909401519299919850965091945092509050565b60008060008060008060006117ec8869ffffffffffffffffffff16611c17565b61ffff82166000908152600460208190526040808320548151639a6fc8f560e01b815267ffffffffffffffff8616938101939093529051949650929450909283928392839283926001600160a01b031691639a6fc8f59160248083019260a0929190829003018186803b15801561186257600080fd5b505afa158015611876573d6000803e3d6000fd5b505050506040513d60a081101561188c57600080fd5b508051602082015160408301516060840151608090940151929850909650945090925090506118bf85858585858c611c1f565b9b509b509b509b509b505050505050505091939590929450565b60028054604080518082018252600161ffff80851691909101168082526001600160a01b0395909516602091820181905261ffff1990931685177fffffffffffffffffffff0000000000000000000000000000000000000000ffff166201000084021790935560009384526004909252912080546001600160a01b0319169091179055565b600069ffffffffffffffffffff82111561197a57506000611a39565b60008061198684611c17565b61ffff821660009081526004602052604090205491935091506001600160a01b0316806119b95760009350505050611a39565b806001600160a01b031663b5ab58dc836040518263ffffffff1660e01b8152600401808267ffffffffffffffff16815260200191505060206040518083038186803b158015611a0757600080fd5b505afa158015611a1b573d6000803e3d6000fd5b505050506040513d6020811015611a3157600080fd5b505193505050505b919050565b600069ffffffffffffffffffff821115611a5a57506000611a39565b600080611a6684611c17565b61ffff821660009081526004602052604090205491935091506001600160a01b031680611a995760009350505050611a39565b806001600160a01b031663b633620c836040518263ffffffff1660e01b8152600401808267ffffffffffffffff16815260200191505060206040518083038186803b158015611a0757600080fd5b6000806000806000611af7611c55565b5060408051808201825260025461ffff811682526201000090046001600160a01b03166020820181905282517ffeaf968c0000000000000000000000000000000000000000000000000000000081529251919260009283928392839283929163feaf968c9160048083019260a0929190829003018186803b158015611b7b57600080fd5b505afa158015611b8f573d6000803e3d6000fd5b505050506040513d60a0811015611ba557600080fd5b5080516020820151604083015160608401516080909401518a519399509197509550919350909150611be09086908690869086908690611c1f565b9a509a509a509a509a505050505050509091929394565b67ffffffffffffffff1660409190911b69ffff0000000000000000161790565b604081901c91565b6000806000806000611c31868c611bf7565b8a8a8a611c3e8a8c611bf7565b939f929e50909c509a509098509650505050505050565b60408051808201909152600080825260208201529056fea26469706673582212203043b655f0957ecb5ad4eda7c4209410bbcac0d73850054067f15bf12ff0911b64736f6c63430006060033",
  "linkReferences": {},
  "deployedLinkReferences": {}
}